{
	"Bridge.sol": {
		"Bridge": {
			"abi": [
				{
					"anonymous": false,
					"inputs": [
						{
							"indexed": true,
							"internalType": "uint256",
							"name": "orderID",
							"type": "uint256"
						},
						{
							"indexed": true,
							"internalType": "address",
							"name": "user",
							"type": "address"
						},
						{
							"indexed": false,
							"internalType": "uint256",
							"name": "value",
							"type": "uint256"
						},
						{
							"indexed": false,
							"internalType": "address",
							"name": "outputCurrency",
							"type": "address"
						}
					],
					"name": "CoinIn",
					"type": "event"
				},
				{
					"anonymous": false,
					"inputs": [
						{
							"indexed": true,
							"internalType": "uint256",
							"name": "orderID",
							"type": "uint256"
						},
						{
							"indexed": true,
							"internalType": "address",
							"name": "user",
							"type": "address"
						},
						{
							"indexed": false,
							"internalType": "uint256",
							"name": "value",
							"type": "uint256"
						}
					],
					"name": "CoinOut",
					"type": "event"
				},
				{
					"anonymous": false,
					"inputs": [
						{
							"indexed": true,
							"internalType": "uint256",
							"name": "orderID",
							"type": "uint256"
						},
						{
							"indexed": true,
							"internalType": "address",
							"name": "user",
							"type": "address"
						},
						{
							"indexed": false,
							"internalType": "uint256",
							"name": "value",
							"type": "uint256"
						}
					],
					"name": "CoinOutFailed",
					"type": "event"
				},
				{
					"anonymous": false,
					"inputs": [
						{
							"indexed": true,
							"internalType": "address",
							"name": "_from",
							"type": "address"
						},
						{
							"indexed": true,
							"internalType": "address",
							"name": "_to",
							"type": "address"
						}
					],
					"name": "OwnershipTransferred",
					"type": "event"
				},
				{
					"anonymous": false,
					"inputs": [
						{
							"indexed": true,
							"internalType": "address",
							"name": "signer",
							"type": "address"
						},
						{
							"indexed": true,
							"internalType": "bool",
							"name": "status",
							"type": "bool"
						}
					],
					"name": "SignerUpdated",
					"type": "event"
				},
				{
					"anonymous": false,
					"inputs": [
						{
							"indexed": true,
							"internalType": "uint256",
							"name": "orderID",
							"type": "uint256"
						},
						{
							"indexed": true,
							"internalType": "address",
							"name": "tokenAddress",
							"type": "address"
						},
						{
							"indexed": true,
							"internalType": "address",
							"name": "user",
							"type": "address"
						},
						{
							"indexed": false,
							"internalType": "uint256",
							"name": "value",
							"type": "uint256"
						},
						{
							"indexed": false,
							"internalType": "uint256",
							"name": "chainID",
							"type": "uint256"
						},
						{
							"indexed": false,
							"internalType": "address",
							"name": "outputCurrency",
							"type": "address"
						}
					],
					"name": "TokenIn",
					"type": "event"
				},
				{
					"anonymous": false,
					"inputs": [
						{
							"indexed": true,
							"internalType": "uint256",
							"name": "orderID",
							"type": "uint256"
						},
						{
							"indexed": true,
							"internalType": "address",
							"name": "tokenAddress",
							"type": "address"
						},
						{
							"indexed": true,
							"internalType": "address",
							"name": "user",
							"type": "address"
						},
						{
							"indexed": false,
							"internalType": "uint256",
							"name": "value",
							"type": "uint256"
						},
						{
							"indexed": false,
							"internalType": "uint256",
							"name": "chainID",
							"type": "uint256"
						}
					],
					"name": "TokenOut",
					"type": "event"
				},
				{
					"anonymous": false,
					"inputs": [
						{
							"indexed": true,
							"internalType": "uint256",
							"name": "orderID",
							"type": "uint256"
						},
						{
							"indexed": true,
							"internalType": "address",
							"name": "tokenAddress",
							"type": "address"
						},
						{
							"indexed": true,
							"internalType": "address",
							"name": "user",
							"type": "address"
						},
						{
							"indexed": false,
							"internalType": "uint256",
							"name": "value",
							"type": "uint256"
						},
						{
							"indexed": false,
							"internalType": "uint256",
							"name": "chainID",
							"type": "uint256"
						}
					],
					"name": "TokenOutFailed",
					"type": "event"
				},
				{
					"inputs": [],
					"name": "acceptOwnership",
					"outputs": [],
					"stateMutability": "nonpayable",
					"type": "function"
				},
				{
					"inputs": [
						{
							"internalType": "address",
							"name": "_signer",
							"type": "address"
						},
						{
							"internalType": "bool",
							"name": "_status",
							"type": "bool"
						}
					],
					"name": "changeSigner",
					"outputs": [],
					"stateMutability": "nonpayable",
					"type": "function"
				},
				{
					"inputs": [
						{
							"internalType": "address",
							"name": "outputCurrency",
							"type": "address"
						}
					],
					"name": "coinIn",
					"outputs": [
						{
							"internalType": "bool",
							"name": "",
							"type": "bool"
						}
					],
					"stateMutability": "payable",
					"type": "function"
				},
				{
					"inputs": [
						{
							"internalType": "address",
							"name": "user",
							"type": "address"
						},
						{
							"internalType": "uint256",
							"name": "amount",
							"type": "uint256"
						},
						{
							"internalType": "uint256",
							"name": "_orderID",
							"type": "uint256"
						}
					],
					"name": "coinOut",
					"outputs": [
						{
							"internalType": "bool",
							"name": "",
							"type": "bool"
						}
					],
					"stateMutability": "nonpayable",
					"type": "function"
				},
				{
					"inputs": [],
					"name": "destroyContract",
					"outputs": [],
					"stateMutability": "nonpayable",
					"type": "function"
				},
				{
					"inputs": [],
					"name": "exraCoinRewards",
					"outputs": [
						{
							"internalType": "uint256",
							"name": "",
							"type": "uint256"
						}
					],
					"stateMutability": "view",
					"type": "function"
				},
				{
					"inputs": [],
					"name": "feeWallet",
					"outputs": [
						{
							"internalType": "address",
							"name": "",
							"type": "address"
						}
					],
					"stateMutability": "view",
					"type": "function"
				},
				{
					"inputs": [],
					"name": "orderID",
					"outputs": [
						{
							"internalType": "uint256",
							"name": "",
							"type": "uint256"
						}
					],
					"stateMutability": "view",
					"type": "function"
				},
				{
					"inputs": [],
					"name": "owner",
					"outputs": [
						{
							"internalType": "address",
							"name": "",
							"type": "address"
						}
					],
					"stateMutability": "view",
					"type": "function"
				},
				{
					"inputs": [],
					"name": "reserveFundThreshold",
					"outputs": [
						{
							"internalType": "uint256",
							"name": "",
							"type": "uint256"
						}
					],
					"stateMutability": "view",
					"type": "function"
				},
				{
					"inputs": [],
					"name": "reserveWallet",
					"outputs": [
						{
							"internalType": "address",
							"name": "",
							"type": "address"
						}
					],
					"stateMutability": "view",
					"type": "function"
				},
				{
					"inputs": [
						{
							"internalType": "address",
							"name": "_feeWallet",
							"type": "address"
						}
					],
					"name": "setFeeWallet",
					"outputs": [
						{
							"internalType": "address",
							"name": "oldWallet",
							"type": "address"
						},
						{
							"internalType": "address",
							"name": "newWallet",
							"type": "address"
						}
					],
					"stateMutability": "nonpayable",
					"type": "function"
				},
				{
					"inputs": [
						{
							"internalType": "uint256",
							"name": "_amount",
							"type": "uint256"
						}
					],
					"name": "setFundThreshold",
					"outputs": [
						{
							"internalType": "uint256",
							"name": "oldAmount",
							"type": "uint256"
						},
						{
							"internalType": "uint256",
							"name": "newAmount",
							"type": "uint256"
						}
					],
					"stateMutability": "nonpayable",
					"type": "function"
				},
				{
					"inputs": [
						{
							"internalType": "address",
							"name": "_reserveWallet",
							"type": "address"
						}
					],
					"name": "setReserveWallet",
					"outputs": [
						{
							"internalType": "address",
							"name": "oldWallet",
							"type": "address"
						},
						{
							"internalType": "address",
							"name": "newWallet",
							"type": "address"
						}
					],
					"stateMutability": "nonpayable",
					"type": "function"
				},
				{
					"inputs": [
						{
							"internalType": "address",
							"name": "_tokenAddress",
							"type": "address"
						}
					],
					"name": "setUSDTAddress",
					"outputs": [
						{
							"internalType": "address",
							"name": "newAddress",
							"type": "address"
						}
					],
					"stateMutability": "nonpayable",
					"type": "function"
				},
				{
					"inputs": [
						{
							"internalType": "address",
							"name": "",
							"type": "address"
						}
					],
					"name": "signer",
					"outputs": [
						{
							"internalType": "bool",
							"name": "",
							"type": "bool"
						}
					],
					"stateMutability": "view",
					"type": "function"
				},
				{
					"inputs": [
						{
							"internalType": "address",
							"name": "tokenAddress",
							"type": "address"
						},
						{
							"internalType": "uint256",
							"name": "tokenAmount",
							"type": "uint256"
						},
						{
							"internalType": "uint256",
							"name": "chainID",
							"type": "uint256"
						},
						{
							"internalType": "address",
							"name": "outputCurrency",
							"type": "address"
						}
					],
					"name": "tokenIn",
					"outputs": [
						{
							"internalType": "bool",
							"name": "",
							"type": "bool"
						}
					],
					"stateMutability": "nonpayable",
					"type": "function"
				},
				{
					"inputs": [
						{
							"internalType": "address",
							"name": "tokenAddress",
							"type": "address"
						},
						{
							"internalType": "address",
							"name": "user",
							"type": "address"
						},
						{
							"internalType": "uint256",
							"name": "tokenAmount",
							"type": "uint256"
						},
						{
							"internalType": "uint256",
							"name": "_orderID",
							"type": "uint256"
						},
						{
							"internalType": "uint256",
							"name": "chainID",
							"type": "uint256"
						}
					],
					"name": "tokenOut",
					"outputs": [
						{
							"internalType": "bool",
							"name": "",
							"type": "bool"
						}
					],
					"stateMutability": "nonpayable",
					"type": "function"
				},
				{
					"inputs": [
						{
							"internalType": "address",
							"name": "_newOwner",
							"type": "address"
						}
					],
					"name": "transferOwnership",
					"outputs": [],
					"stateMutability": "nonpayable",
					"type": "function"
				},
				{
					"inputs": [
						{
							"internalType": "address",
							"name": "ofTokenAddress",
							"type": "address"
						},
						{
							"internalType": "address",
							"name": "toAddress",
							"type": "address"
						}
					],
					"name": "transferTokenOwnership",
					"outputs": [
						{
							"internalType": "address",
							"name": "oldOwner",
							"type": "address"
						},
						{
							"internalType": "address",
							"name": "newOwner",
							"type": "address"
						}
					],
					"stateMutability": "nonpayable",
					"type": "function"
				},
				{
					"inputs": [],
					"name": "usdtAddress",
					"outputs": [
						{
							"internalType": "address",
							"name": "",
							"type": "address"
						}
					],
					"stateMutability": "view",
					"type": "function"
				},
				{
					"stateMutability": "payable",
					"type": "receive"
				}
			],
			"devdoc": {
				"kind": "dev",
				"methods": {},
				"version": 1
			},
			"evm": {
				"assembly": "    /* \"Bridge.sol\":2565:8468  contract Bridge is owned {... */\n  mstore(0x40, 0x80)\n    /* \"Bridge.sol\":2812:2883  address public usdtAddress = 0xdAC17F958D2ee523a2206206994597C13D831ec7 */\n  0x07\n  dup1\n  sload\n  not(sub(shl(0xa0, 0x01), 0x01))\n  and\n    /* \"Bridge.sol\":2841:2883  0xdAC17F958D2ee523a2206206994597C13D831ec7 */\n  0xdac17f958d2ee523a2206206994597c13d831ec7\n    /* \"Bridge.sol\":2812:2883  address public usdtAddress = 0xdAC17F958D2ee523a2206206994597C13D831ec7 */\n  or\n  swap1\n  sstore\n    /* \"Bridge.sol\":2927:2932  10e18 */\n  0x8ac7230489e80000\n    /* \"Bridge.sol\":2889:2932  uint256 public reserveFundThreshold = 10e18 */\n  0x08\n  sstore\n    /* \"Bridge.sol\":2565:8468  contract Bridge is owned {... */\n  callvalue\n  dup1\n  iszero\n  tag_1\n  jumpi\n  0x00\n  dup1\n  revert\ntag_1:\n  pop\n    /* \"Bridge.sol\":1455:1460  owner */\n  0x00\n    /* \"Bridge.sol\":1455:1473  owner = msg.sender */\n  dup1\n  sload\n  not(sub(shl(0xa0, 0x01), 0x01))\n  and\n    /* \"Bridge.sol\":1463:1473  msg.sender */\n  caller\n    /* \"Bridge.sol\":1455:1473  owner = msg.sender */\n  or\n  swap1\n  sstore\n    /* \"Bridge.sol\":2565:8468  contract Bridge is owned {... */\n  dataSize(sub_0)\n  dup1\n  dataOffset(sub_0)\n  0x00\n  codecopy\n  0x00\n  return\nstop\n\nsub_0: assembly {\n        /* \"Bridge.sol\":2565:8468  contract Bridge is owned {... */\n      mstore(0x40, 0x80)\n      jumpi(tag_1, lt(calldatasize, 0x04))\n      shr(0xe0, calldataload(0x00))\n      dup1\n      0x90d49b9d\n      gt\n      tag_24\n      jumpi\n      dup1\n      0xdda4fa8f\n      gt\n      tag_25\n      jumpi\n      dup1\n      0xdda4fa8f\n      eq\n      tag_18\n      jumpi\n      dup1\n      0xf1c06906\n      eq\n      tag_19\n      jumpi\n      dup1\n      0xf25f4b56\n      eq\n      tag_20\n      jumpi\n      dup1\n      0xf2fde38b\n      eq\n      tag_21\n      jumpi\n      dup1\n      0xf3a7cb61\n      eq\n      tag_22\n      jumpi\n      dup1\n      0xfea54d06\n      eq\n      tag_23\n      jumpi\n      0x00\n      dup1\n      revert\n    tag_25:\n      dup1\n      0x90d49b9d\n      eq\n      tag_13\n      jumpi\n      dup1\n      0x9ab4a445\n      eq\n      tag_14\n      jumpi\n      dup1\n      0xc7e0af6a\n      eq\n      tag_15\n      jumpi\n      dup1\n      0xcd23e147\n      eq\n      tag_16\n      jumpi\n      dup1\n      0xd72b11bd\n      eq\n      tag_17\n      jumpi\n      0x00\n      dup1\n      revert\n    tag_24:\n      dup1\n      0x51295f01\n      gt\n      tag_26\n      jumpi\n      dup1\n      0x51295f01\n      eq\n      tag_8\n      jumpi\n      dup1\n      0x55eba868\n      eq\n      tag_9\n      jumpi\n      dup1\n      0x79ba5097\n      eq\n      tag_10\n      jumpi\n      dup1\n      0x81203d03\n      eq\n      tag_11\n      jumpi\n      dup1\n      0x8da5cb5b\n      eq\n      tag_12\n      jumpi\n      0x00\n      dup1\n      revert\n    tag_26:\n      dup1\n      0x0536b723\n      eq\n      tag_3\n      jumpi\n      dup1\n      0x092a5cce\n      eq\n      tag_4\n      jumpi\n      dup1\n      0x15a01045\n      eq\n      tag_5\n      jumpi\n      dup1\n      0x256c1ea3\n      eq\n      tag_6\n      jumpi\n      dup1\n      0x383fe467\n      eq\n      tag_7\n      jumpi\n      0x00\n      dup1\n      revert\n    tag_1:\n      jumpi(tag_2, calldatasize)\n      stop\n    tag_2:\n      0x00\n      dup1\n      revert\n        /* \"Bridge.sol\":1239:1277  mapping(address => bool) public signer */\n    tag_3:\n      callvalue\n      dup1\n      iszero\n      tag_29\n      jumpi\n      0x00\n      dup1\n      revert\n    tag_29:\n      pop\n      tag_30\n      tag_31\n      calldatasize\n      0x04\n      tag_32\n      jump\t// in\n    tag_31:\n      mstore(0x20, 0x02)\n      0x00\n      swap1\n      dup2\n      mstore\n      0x40\n      swap1\n      keccak256\n      sload\n      0xff\n      and\n      dup2\n      jump\n    tag_30:\n      mload(0x40)\n        /* \"#utility.yul\":567:581   */\n      swap1\n      iszero\n        /* \"#utility.yul\":560:582   */\n      iszero\n        /* \"#utility.yul\":542:583   */\n      dup2\n      mstore\n        /* \"#utility.yul\":530:532   */\n      0x20\n        /* \"#utility.yul\":515:533   */\n      add\n        /* \"Bridge.sol\":1239:1277  mapping(address => bool) public signer */\n    tag_34:\n      mload(0x40)\n      dup1\n      swap2\n      sub\n      swap1\n      return\n        /* \"Bridge.sol\":8370:8465  function destroyContract() external onlyOwner{... */\n    tag_4:\n      callvalue\n      dup1\n      iszero\n      tag_36\n      jumpi\n      0x00\n      dup1\n      revert\n    tag_36:\n      pop\n      tag_37\n      tag_38\n      jump\t// in\n    tag_37:\n      stop\n        /* \"Bridge.sol\":3803:4277  function coinIn(address outputCurrency) external payable returns(bool){... */\n    tag_5:\n      tag_30\n      tag_40\n      calldatasize\n      0x04\n      tag_32\n      jump\t// in\n    tag_40:\n      tag_41\n      jump\t// in\n        /* \"Bridge.sol\":5557:5969  function tokenOut(address tokenAddress, address user, uint256 tokenAmount, uint256 _orderID, uint256 chainID) external onlySigner returns(bool){... */\n    tag_6:\n      callvalue\n      dup1\n      iszero\n      tag_43\n      jumpi\n      0x00\n      dup1\n      revert\n    tag_43:\n      pop\n      tag_30\n      tag_45\n      calldatasize\n      0x04\n      tag_46\n      jump\t// in\n    tag_45:\n      tag_47\n      jump\t// in\n        /* \"Bridge.sol\":7909:8342  function transferTokenOwnership(address ofTokenAddress, address toAddress) external onlyOwner returns(address oldOwner, address newOwner){... */\n    tag_7:\n      callvalue\n      dup1\n      iszero\n      tag_49\n      jumpi\n      0x00\n      dup1\n      revert\n    tag_49:\n      pop\n      tag_50\n      tag_51\n      calldatasize\n      0x04\n      tag_52\n      jump\t// in\n    tag_51:\n      tag_53\n      jump\t// in\n    tag_50:\n      0x40\n      dup1\n      mload\n      sub(shl(0xa0, 0x01), 0x01)\n        /* \"#utility.yul\":1816:1831   */\n      swap4\n      dup5\n      and\n        /* \"#utility.yul\":1798:1832   */\n      dup2\n      mstore\n        /* \"#utility.yul\":1868:1883   */\n      swap3\n      swap1\n      swap2\n      and\n        /* \"#utility.yul\":1863:1865   */\n      0x20\n        /* \"#utility.yul\":1848:1866   */\n      dup4\n      add\n        /* \"#utility.yul\":1841:1884   */\n      mstore\n        /* \"#utility.yul\":1733:1751   */\n      add\n        /* \"Bridge.sol\":7909:8342  function transferTokenOwnership(address ofTokenAddress, address toAddress) external onlyOwner returns(address oldOwner, address newOwner){... */\n      tag_34\n        /* \"#utility.yul\":1586:1890   */\n      jump\n        /* \"Bridge.sol\":1729:1887  function changeSigner(address _signer, bool _status) public onlyOwner {... */\n    tag_8:\n      callvalue\n      dup1\n      iszero\n      tag_56\n      jumpi\n      0x00\n      dup1\n      revert\n    tag_56:\n      pop\n      tag_37\n      tag_58\n      calldatasize\n      0x04\n      tag_59\n      jump\t// in\n    tag_58:\n      tag_60\n      jump\t// in\n        /* \"Bridge.sol\":7284:7599  function setUSDTAddress(address _tokenAddress) external onlyOwner returns(address newAddress){... */\n    tag_9:\n      callvalue\n      dup1\n      iszero\n      tag_61\n      jumpi\n      0x00\n      dup1\n      revert\n    tag_61:\n      pop\n      tag_62\n      tag_63\n      calldatasize\n      0x04\n      tag_32\n      jump\t// in\n    tag_63:\n      tag_64\n      jump\t// in\n    tag_62:\n      mload(0x40)\n      sub(shl(0xa0, 0x01), 0x01)\n        /* \"#utility.yul\":2569:2601   */\n      swap1\n      swap2\n      and\n        /* \"#utility.yul\":2551:2602   */\n      dup2\n      mstore\n        /* \"#utility.yul\":2539:2541   */\n      0x20\n        /* \"#utility.yul\":2524:2542   */\n      add\n        /* \"Bridge.sol\":7284:7599  function setUSDTAddress(address _tokenAddress) external onlyOwner returns(address newAddress){... */\n      tag_34\n        /* \"#utility.yul\":2405:2608   */\n      jump\n        /* \"Bridge.sol\":2115:2306  function acceptOwnership() public {... */\n    tag_10:\n      callvalue\n      dup1\n      iszero\n      tag_67\n      jumpi\n      0x00\n      dup1\n      revert\n    tag_67:\n      pop\n      tag_37\n      tag_69\n      jump\t// in\n        /* \"Bridge.sol\":2601:2623  uint256 public orderID */\n    tag_11:\n      callvalue\n      dup1\n      iszero\n      tag_70\n      jumpi\n      0x00\n      dup1\n      revert\n    tag_70:\n      pop\n      tag_71\n      sload(0x03)\n      dup2\n      jump\n    tag_71:\n      mload(0x40)\n        /* \"#utility.yul\":2759:2784   */\n      swap1\n      dup2\n      mstore\n        /* \"#utility.yul\":2747:2749   */\n      0x20\n        /* \"#utility.yul\":2732:2750   */\n      add\n        /* \"Bridge.sol\":2601:2623  uint256 public orderID */\n      tag_34\n        /* \"#utility.yul\":2613:2790   */\n      jump\n        /* \"Bridge.sol\":1182:1202  address public owner */\n    tag_12:\n      callvalue\n      dup1\n      iszero\n      tag_75\n      jumpi\n      0x00\n      dup1\n      revert\n    tag_75:\n      pop\n      sload(0x00)\n      tag_62\n      swap1\n      sub(shl(0xa0, 0x01), 0x01)\n      and\n      dup2\n      jump\n        /* \"Bridge.sol\":6773:6980  function setFeeWallet(address _feeWallet) external onlyOwner returns(address oldWallet, address newWallet){... */\n    tag_13:\n      callvalue\n      dup1\n      iszero\n      tag_79\n      jumpi\n      0x00\n      dup1\n      revert\n    tag_79:\n      pop\n      tag_50\n      tag_81\n      calldatasize\n      0x04\n      tag_32\n      jump\t// in\n    tag_81:\n      tag_82\n      jump\t// in\n        /* \"Bridge.sol\":2812:2883  address public usdtAddress = 0xdAC17F958D2ee523a2206206994597C13D831ec7 */\n    tag_14:\n      callvalue\n      dup1\n      iszero\n      tag_84\n      jumpi\n      0x00\n      dup1\n      revert\n    tag_84:\n      pop\n      sload(0x07)\n      tag_62\n      swap1\n      sub(shl(0xa0, 0x01), 0x01)\n      and\n      dup2\n      jump\n        /* \"Bridge.sol\":7628:7853  function setFundThreshold(uint256 _amount) external onlyOwner returns(uint256 oldAmount, uint256 newAmount){... */\n    tag_15:\n      callvalue\n      dup1\n      iszero\n      tag_88\n      jumpi\n      0x00\n      dup1\n      revert\n    tag_88:\n      pop\n      tag_89\n      tag_90\n      calldatasize\n      0x04\n      tag_91\n      jump\t// in\n    tag_90:\n      tag_92\n      jump\t// in\n    tag_89:\n      0x40\n      dup1\n      mload\n        /* \"#utility.yul\":3154:3179   */\n      swap3\n      dup4\n      mstore\n        /* \"#utility.yul\":3210:3212   */\n      0x20\n        /* \"#utility.yul\":3195:3213   */\n      dup4\n      add\n        /* \"#utility.yul\":3188:3222   */\n      swap2\n      swap1\n      swap2\n      mstore\n        /* \"#utility.yul\":3127:3145   */\n      add\n        /* \"Bridge.sol\":7628:7853  function setFundThreshold(uint256 _amount) external onlyOwner returns(uint256 oldAmount, uint256 newAmount){... */\n      tag_34\n        /* \"#utility.yul\":2980:3228   */\n      jump\n        /* \"Bridge.sol\":2889:2932  uint256 public reserveFundThreshold = 10e18 */\n    tag_16:\n      callvalue\n      dup1\n      iszero\n      tag_95\n      jumpi\n      0x00\n      dup1\n      revert\n    tag_95:\n      pop\n      tag_71\n      sload(0x08)\n      dup2\n      jump\n        /* \"Bridge.sol\":2778:2806  address public reserveWallet */\n    tag_17:\n      callvalue\n      dup1\n      iszero\n      tag_99\n      jumpi\n      0x00\n      dup1\n      revert\n    tag_99:\n      pop\n      sload(0x06)\n      tag_62\n      swap1\n      sub(shl(0xa0, 0x01), 0x01)\n      and\n      dup2\n      jump\n        /* \"Bridge.sol\":7015:7246  function setReserveWallet(address _reserveWallet) external onlyOwner returns(address oldWallet, address newWallet){... */\n    tag_18:\n      callvalue\n      dup1\n      iszero\n      tag_103\n      jumpi\n      0x00\n      dup1\n      revert\n    tag_103:\n      pop\n      tag_50\n      tag_105\n      calldatasize\n      0x04\n      tag_32\n      jump\t// in\n    tag_105:\n      tag_106\n      jump\t// in\n        /* \"Bridge.sol\":2629:2659  uint256 public exraCoinRewards */\n    tag_19:\n      callvalue\n      dup1\n      iszero\n      tag_108\n      jumpi\n      0x00\n      dup1\n      revert\n    tag_108:\n      pop\n      tag_71\n      sload(0x04)\n      dup2\n      jump\n        /* \"Bridge.sol\":2748:2772  address public feeWallet */\n    tag_20:\n      callvalue\n      dup1\n      iszero\n      tag_112\n      jumpi\n      0x00\n      dup1\n      revert\n    tag_112:\n      pop\n      sload(0x05)\n      tag_62\n      swap1\n      sub(shl(0xa0, 0x01), 0x01)\n      and\n      dup2\n      jump\n        /* \"Bridge.sol\":1893:1993  function transferOwnership(address _newOwner) public onlyOwner {... */\n    tag_21:\n      callvalue\n      dup1\n      iszero\n      tag_116\n      jumpi\n      0x00\n      dup1\n      revert\n    tag_116:\n      pop\n      tag_37\n      tag_118\n      calldatasize\n      0x04\n      tag_32\n      jump\t// in\n    tag_118:\n      tag_119\n      jump\t// in\n        /* \"Bridge.sol\":4540:5542  function tokenIn(address tokenAddress, uint256 tokenAmount, uint256 chainID, address outputCurrency) external returns(bool){... */\n    tag_22:\n      callvalue\n      dup1\n      iszero\n      tag_120\n      jumpi\n      0x00\n      dup1\n      revert\n    tag_120:\n      pop\n      tag_30\n      tag_122\n      calldatasize\n      0x04\n      tag_123\n      jump\t// in\n    tag_122:\n      tag_124\n      jump\t// in\n        /* \"Bridge.sol\":4287:4525  function coinOut(address user, uint256 amount, uint256 _orderID) external onlySigner returns(bool){... */\n    tag_23:\n      callvalue\n      dup1\n      iszero\n      tag_126\n      jumpi\n      0x00\n      dup1\n      revert\n    tag_126:\n      pop\n      tag_30\n      tag_128\n      calldatasize\n      0x04\n      tag_129\n      jump\t// in\n    tag_128:\n      tag_130\n      jump\t// in\n        /* \"Bridge.sol\":8370:8465  function destroyContract() external onlyOwner{... */\n    tag_38:\n        /* \"Bridge.sol\":1591:1596  owner */\n      and(sub(shl(0xa0, 0x01), 0x01), sload(0x00))\n        /* \"Bridge.sol\":1577:1587  msg.sender */\n      caller\n        /* \"Bridge.sol\":1577:1596  msg.sender == owner */\n      eq\n        /* \"Bridge.sol\":1569:1597  require(msg.sender == owner) */\n      tag_133\n      jumpi\n      0x00\n      dup1\n      revert\n    tag_133:\n        /* \"Bridge.sol\":8446:8456  msg.sender */\n      caller\n        /* \"Bridge.sol\":8425:8458  selfdestruct(payable(msg.sender)) */\n      selfdestruct\n        /* \"Bridge.sol\":3803:4277  function coinIn(address outputCurrency) external payable returns(bool){... */\n    tag_41:\n        /* \"Bridge.sol\":3883:3890  orderID */\n      0x03\n        /* \"Bridge.sol\":3883:3892  orderID++ */\n      dup1\n      sload\n        /* \"Bridge.sol\":3868:3872  bool */\n      0x00\n      swap2\n      dup3\n        /* \"Bridge.sol\":3883:3892  orderID++ */\n      tag_136\n      dup4\n      tag_137\n      jump\t// in\n    tag_136:\n      swap1\n      swap2\n      sstore\n      pop\n        /* \"Bridge.sol\":3919:3928  msg.value */\n      callvalue\n      swap1\n      pop\n        /* \"Bridge.sol\":3902:3916  uint256 amount */\n      0x00\n      dup1\n        /* \"Bridge.sol\":4003:4021  processTax(amount) */\n      tag_138\n        /* \"Bridge.sol\":3919:3928  msg.value */\n      dup4\n        /* \"Bridge.sol\":4003:4013  processTax */\n      tag_139\n        /* \"Bridge.sol\":4003:4021  processTax(amount) */\n      jump\t// in\n    tag_138:\n        /* \"Bridge.sol\":4039:4048  feeWallet */\n      sload(0x05)\n        /* \"Bridge.sol\":4031:4063  payable(feeWallet).transfer(tax) */\n      mload(0x40)\n        /* \"Bridge.sol\":3986:4021  (afterTax,tax) = processTax(amount) */\n      swap3\n      swap5\n      pop\n      swap1\n      swap3\n      pop\n      sub(shl(0xa0, 0x01), 0x01)\n        /* \"Bridge.sol\":4039:4048  feeWallet */\n      and\n      swap1\n        /* \"Bridge.sol\":4031:4063  payable(feeWallet).transfer(tax) */\n      dup3\n      iszero\n      0x08fc\n      mul\n      swap1\n        /* \"Bridge.sol\":3986:4021  (afterTax,tax) = processTax(amount) */\n      dup4\n      swap1\n        /* \"Bridge.sol\":4039:4048  feeWallet */\n      0x00\n        /* \"Bridge.sol\":4031:4063  payable(feeWallet).transfer(tax) */\n      dup2\n        /* \"Bridge.sol\":4039:4048  feeWallet */\n      dup2\n        /* \"Bridge.sol\":4031:4063  payable(feeWallet).transfer(tax) */\n      dup2\n        /* \"Bridge.sol\":3986:4021  (afterTax,tax) = processTax(amount) */\n      dup6\n        /* \"Bridge.sol\":4039:4048  feeWallet */\n      dup9\n        /* \"Bridge.sol\":4031:4063  payable(feeWallet).transfer(tax) */\n      dup9\n      call\n      swap4\n      pop\n      pop\n      pop\n      pop\n      iszero\n      dup1\n      iszero\n      tag_141\n      jumpi\n      returndatasize\n      0x00\n      dup1\n      returndatacopy\n      revert(0x00, returndatasize)\n    tag_141:\n      pop\n        /* \"Bridge.sol\":4102:4122  reserveFundThreshold */\n      sload(0x08)\n        /* \"Bridge.sol\":4077:4098  address(this).balance */\n      selfbalance\n        /* \"Bridge.sol\":4077:4122  address(this).balance >= reserveFundThreshold */\n      lt\n        /* \"Bridge.sol\":4074:4181  if(address(this).balance >= reserveFundThreshold){... */\n      tag_142\n      jumpi\n        /* \"Bridge.sol\":4145:4150  owner */\n      0x00\n      dup1\n      sload\n        /* \"Bridge.sol\":4137:4170  payable(owner).transfer(afterTax) */\n      mload(0x40)\n      sub(shl(0xa0, 0x01), 0x01)\n        /* \"Bridge.sol\":4145:4150  owner */\n      swap1\n      swap2\n      and\n      swap2\n        /* \"Bridge.sol\":4137:4170  payable(owner).transfer(afterTax) */\n      dup5\n      iszero\n      0x08fc\n      mul\n      swap2\n        /* \"Bridge.sol\":4161:4169  afterTax */\n      dup6\n      swap2\n        /* \"Bridge.sol\":4137:4170  payable(owner).transfer(afterTax) */\n      dup2\n        /* \"Bridge.sol\":4145:4150  owner */\n      dup2\n        /* \"Bridge.sol\":4137:4170  payable(owner).transfer(afterTax) */\n      dup2\n        /* \"Bridge.sol\":4161:4169  afterTax */\n      dup6\n        /* \"Bridge.sol\":4145:4150  owner */\n      dup9\n        /* \"Bridge.sol\":4137:4170  payable(owner).transfer(afterTax) */\n      dup9\n      call\n      swap4\n      pop\n      pop\n      pop\n      pop\n      iszero\n      dup1\n      iszero\n      tag_144\n      jumpi\n      returndatasize\n      0x00\n      dup1\n      returndatacopy\n      revert(0x00, returndatasize)\n    tag_144:\n      pop\n        /* \"Bridge.sol\":4074:4181  if(address(this).balance >= reserveFundThreshold){... */\n    tag_142:\n        /* \"Bridge.sol\":4203:4210  orderID */\n      sload(0x03)\n        /* \"Bridge.sol\":4196:4249  CoinIn(orderID, msg.sender, afterTax, outputCurrency) */\n      0x40\n      dup1\n      mload\n        /* \"#utility.yul\":4597:4622   */\n      dup5\n      dup2\n      mstore\n      sub(shl(0xa0, 0x01), 0x01)\n        /* \"#utility.yul\":4658:4690   */\n      dup9\n      and\n        /* \"#utility.yul\":4653:4655   */\n      0x20\n        /* \"#utility.yul\":4638:4656   */\n      dup3\n      add\n        /* \"#utility.yul\":4631:4691   */\n      mstore\n        /* \"Bridge.sol\":4212:4222  msg.sender */\n      caller\n      swap3\n        /* \"Bridge.sol\":4203:4210  orderID */\n      swap2\n        /* \"Bridge.sol\":4196:4249  CoinIn(orderID, msg.sender, afterTax, outputCurrency) */\n      0x50ed54fdff2e8028310feac14aa2e8343c5eb6ab4fb192510bd3358cbe18fb1d\n      swap2\n        /* \"#utility.yul\":4570:4588   */\n      add\n        /* \"Bridge.sol\":4196:4249  CoinIn(orderID, msg.sender, afterTax, outputCurrency) */\n      mload(0x40)\n      dup1\n      swap2\n      sub\n      swap1\n      log3\n      pop\n        /* \"Bridge.sol\":4266:4270  true */\n      0x01\n      swap5\n        /* \"Bridge.sol\":3803:4277  function coinIn(address outputCurrency) external payable returns(bool){... */\n      swap4\n      pop\n      pop\n      pop\n      pop\n      jump\t// out\n        /* \"Bridge.sol\":5557:5969  function tokenOut(address tokenAddress, address user, uint256 tokenAmount, uint256 _orderID, uint256 chainID) external onlySigner returns(bool){... */\n    tag_47:\n        /* \"Bridge.sol\":1667:1677  msg.sender */\n      caller\n        /* \"Bridge.sol\":5695:5699  bool */\n      0x00\n        /* \"Bridge.sol\":1660:1678  signer[msg.sender] */\n      swap1\n      dup2\n      mstore\n        /* \"Bridge.sol\":1660:1666  signer */\n      0x02\n        /* \"Bridge.sol\":1660:1678  signer[msg.sender] */\n      0x20\n      mstore\n      0x40\n      dup2\n      keccak256\n      sload\n      0xff\n      and\n        /* \"Bridge.sol\":1652:1704  require(signer[msg.sender], 'caller must be signer') */\n      tag_148\n      jumpi\n      mload(0x40)\n      shl(0xe5, 0x461bcd)\n      dup2\n      mstore\n        /* \"#utility.yul\":4904:4906   */\n      0x20\n        /* \"Bridge.sol\":1652:1704  require(signer[msg.sender], 'caller must be signer') */\n      0x04\n      dup3\n      add\n        /* \"#utility.yul\":4886:4907   */\n      mstore\n        /* \"#utility.yul\":4943:4945   */\n      0x15\n        /* \"#utility.yul\":4923:4941   */\n      0x24\n      dup3\n      add\n        /* \"#utility.yul\":4916:4946   */\n      mstore\n      shl(0x59, 0x31b0b63632b91036bab9ba1031329039b4b3b732b9)\n        /* \"#utility.yul\":4962:4980   */\n      0x44\n      dup3\n      add\n        /* \"#utility.yul\":4955:5006   */\n      mstore\n        /* \"#utility.yul\":5023:5041   */\n      0x64\n      add\n        /* \"Bridge.sol\":1652:1704  require(signer[msg.sender], 'caller must be signer') */\n    tag_149:\n      mload(0x40)\n      dup1\n      swap2\n      sub\n      swap1\n      revert\n    tag_148:\n        /* \"Bridge.sol\":5796:5810  uint256 minted */\n      0x00\n        /* \"Bridge.sol\":5815:5858  mintTokens(tokenAddress, user, tokenAmount) */\n      tag_152\n        /* \"Bridge.sol\":5826:5838  tokenAddress */\n      dup8\n        /* \"Bridge.sol\":5840:5844  user */\n      dup8\n        /* \"Bridge.sol\":5846:5857  tokenAmount */\n      dup8\n        /* \"Bridge.sol\":5815:5825  mintTokens */\n      tag_153\n        /* \"Bridge.sol\":5815:5858  mintTokens(tokenAddress, user, tokenAmount) */\n      jump\t// in\n    tag_152:\n        /* \"Bridge.sol\":5795:5858  (uint256 minted,) = mintTokens(tokenAddress, user, tokenAmount) */\n      pop\n      swap1\n      pop\n        /* \"Bridge.sol\":5910:5914  user */\n      dup6\n      sub(shl(0xa0, 0x01), 0x01)\n        /* \"Bridge.sol\":5877:5932  TokenOut(_orderID, tokenAddress, user, minted, chainID) */\n      and\n        /* \"Bridge.sol\":5896:5908  tokenAddress */\n      dup8\n      sub(shl(0xa0, 0x01), 0x01)\n        /* \"Bridge.sol\":5877:5932  TokenOut(_orderID, tokenAddress, user, minted, chainID) */\n      and\n        /* \"Bridge.sol\":5886:5894  _orderID */\n      dup6\n        /* \"Bridge.sol\":5877:5932  TokenOut(_orderID, tokenAddress, user, minted, chainID) */\n      0x227f62390ff31ea224acc601adb99ca571aafaeef45b6528a1f75af3fdee81b0\n        /* \"Bridge.sol\":5916:5922  minted */\n      dup5\n        /* \"Bridge.sol\":5924:5931  chainID */\n      dup8\n        /* \"Bridge.sol\":5877:5932  TokenOut(_orderID, tokenAddress, user, minted, chainID) */\n      mload(0x40)\n      tag_154\n      swap3\n      swap2\n      swap1\n        /* \"#utility.yul\":3154:3179   */\n      swap2\n      dup3\n      mstore\n        /* \"#utility.yul\":3210:3212   */\n      0x20\n        /* \"#utility.yul\":3195:3213   */\n      dup3\n      add\n        /* \"#utility.yul\":3188:3222   */\n      mstore\n        /* \"#utility.yul\":3142:3144   */\n      0x40\n        /* \"#utility.yul\":3127:3145   */\n      add\n      swap1\n        /* \"#utility.yul\":2980:3228   */\n      jump\n        /* \"Bridge.sol\":5877:5932  TokenOut(_orderID, tokenAddress, user, minted, chainID) */\n    tag_154:\n      mload(0x40)\n      dup1\n      swap2\n      sub\n      swap1\n      log4\n      pop\n        /* \"Bridge.sol\":5958:5962  true */\n      0x01\n      swap7\n        /* \"Bridge.sol\":5557:5969  function tokenOut(address tokenAddress, address user, uint256 tokenAmount, uint256 _orderID, uint256 chainID) external onlySigner returns(bool){... */\n      swap6\n      pop\n      pop\n      pop\n      pop\n      pop\n      pop\n      jump\t// out\n        /* \"Bridge.sol\":7909:8342  function transferTokenOwnership(address ofTokenAddress, address toAddress) external onlyOwner returns(address oldOwner, address newOwner){... */\n    tag_53:\n        /* \"Bridge.sol\":8011:8027  address oldOwner */\n      0x00\n        /* \"Bridge.sol\":1591:1596  owner */\n      dup1\n      sload\n        /* \"Bridge.sol\":8011:8027  address oldOwner */\n      dup2\n      swap1\n      sub(shl(0xa0, 0x01), 0x01)\n        /* \"Bridge.sol\":1591:1596  owner */\n      and\n        /* \"Bridge.sol\":1577:1587  msg.sender */\n      caller\n        /* \"Bridge.sol\":1577:1596  msg.sender == owner */\n      eq\n        /* \"Bridge.sol\":1569:1597  require(msg.sender == owner) */\n      tag_156\n      jumpi\n      0x00\n      dup1\n      revert\n    tag_156:\n      sub(shl(0xa0, 0x01), 0x01)\n        /* \"Bridge.sol\":8064:8092  ofTokenAddress != address(0) */\n      dup5\n      and\n      iszero\n      dup1\n      iszero\n      swap1\n        /* \"Bridge.sol\":8064:8119  ofTokenAddress != address(0) && toAddress != address(0) */\n      tag_158\n      jumpi\n      pop\n      sub(shl(0xa0, 0x01), 0x01)\n        /* \"Bridge.sol\":8096:8119  toAddress != address(0) */\n      dup4\n      and\n      iszero\n      iszero\n        /* \"Bridge.sol\":8064:8119  ofTokenAddress != address(0) && toAddress != address(0) */\n    tag_158:\n        /* \"Bridge.sol\":8056:8148  require(ofTokenAddress != address(0) && toAddress != address(0), \"zero address not allowed\") */\n      tag_159\n      jumpi\n      mload(0x40)\n      shl(0xe5, 0x461bcd)\n      dup2\n      mstore\n        /* \"#utility.yul\":5254:5256   */\n      0x20\n        /* \"Bridge.sol\":8056:8148  require(ofTokenAddress != address(0) && toAddress != address(0), \"zero address not allowed\") */\n      0x04\n      dup3\n      add\n        /* \"#utility.yul\":5236:5257   */\n      mstore\n        /* \"#utility.yul\":5293:5295   */\n      0x18\n        /* \"#utility.yul\":5273:5291   */\n      0x24\n      dup3\n      add\n        /* \"#utility.yul\":5266:5296   */\n      mstore\n      shl(0x42, 0x1e995c9bc81859191c995cdcc81b9bdd08185b1b1bddd959)\n        /* \"#utility.yul\":5312:5330   */\n      0x44\n      dup3\n      add\n        /* \"#utility.yul\":5305:5359   */\n      mstore\n        /* \"#utility.yul\":5376:5394   */\n      0x64\n      add\n        /* \"Bridge.sol\":8056:8148  require(ofTokenAddress != address(0) && toAddress != address(0), \"zero address not allowed\") */\n      tag_149\n        /* \"#utility.yul\":5052:5400   */\n      jump\n        /* \"Bridge.sol\":8056:8148  require(ofTokenAddress != address(0) && toAddress != address(0), \"zero address not allowed\") */\n    tag_159:\n        /* \"Bridge.sol\":8184:8198  ofTokenAddress */\n      dup4\n      sub(shl(0xa0, 0x01), 0x01)\n        /* \"Bridge.sol\":8169:8205  ERC20Essential(ofTokenAddress).owner */\n      and\n      0x8da5cb5b\n        /* \"Bridge.sol\":8169:8207  ERC20Essential(ofTokenAddress).owner() */\n      mload(0x40)\n      dup2\n      0xffffffff\n      and\n      0xe0\n      shl\n      dup2\n      mstore\n      0x04\n      add\n      0x20\n      mload(0x40)\n      dup1\n      dup4\n      sub\n      dup2\n      0x00\n      dup8\n      gas\n      call\n      iszero\n      dup1\n      iszero\n      tag_163\n      jumpi\n      returndatasize\n      0x00\n      dup1\n      returndatacopy\n      revert(0x00, returndatasize)\n    tag_163:\n      pop\n      pop\n      pop\n      pop\n      mload(0x40)\n      returndatasize\n      not(0x1f)\n      0x1f\n      dup3\n      add\n      and\n      dup3\n      add\n      dup1\n      0x40\n      mstore\n      pop\n      dup2\n      add\n      swap1\n      tag_164\n      swap2\n      swap1\n      tag_165\n      jump\t// in\n    tag_164:\n        /* \"Bridge.sol\":8217:8276  ERC20Essential(ofTokenAddress).transferOwnership(toAddress) */\n      mload(0x40)\n      shl(0xe0, 0xf2fde38b)\n      dup2\n      mstore\n      sub(shl(0xa0, 0x01), 0x01)\n        /* \"#utility.yul\":2569:2601   */\n      dup6\n      dup2\n      and\n        /* \"Bridge.sol\":8217:8276  ERC20Essential(ofTokenAddress).transferOwnership(toAddress) */\n      0x04\n      dup4\n      add\n        /* \"#utility.yul\":2551:2602   */\n      mstore\n        /* \"Bridge.sol\":8158:8207  oldOwner = ERC20Essential(ofTokenAddress).owner() */\n      swap2\n      swap4\n      pop\n        /* \"Bridge.sol\":8217:8265  ERC20Essential(ofTokenAddress).transferOwnership */\n      swap1\n      dup6\n      and\n      swap1\n      0xf2fde38b\n      swap1\n        /* \"#utility.yul\":2524:2542   */\n      0x24\n      add\n        /* \"Bridge.sol\":8217:8276  ERC20Essential(ofTokenAddress).transferOwnership(toAddress) */\n      0x00\n      mload(0x40)\n      dup1\n      dup4\n      sub\n      dup2\n      0x00\n      dup8\n      dup1\n      extcodesize\n      iszero\n      dup1\n      iszero\n      tag_167\n      jumpi\n      0x00\n      dup1\n      revert\n    tag_167:\n      pop\n      gas\n      call\n      iszero\n      dup1\n      iszero\n      tag_169\n      jumpi\n      returndatasize\n      0x00\n      dup1\n      returndatacopy\n      revert(0x00, returndatasize)\n    tag_169:\n      pop\n      pop\n      pop\n      pop\n        /* \"Bridge.sol\":8312:8326  ofTokenAddress */\n      dup4\n      sub(shl(0xa0, 0x01), 0x01)\n        /* \"Bridge.sol\":8297:8333  ERC20Essential(ofTokenAddress).owner */\n      and\n      0x8da5cb5b\n        /* \"Bridge.sol\":8297:8335  ERC20Essential(ofTokenAddress).owner() */\n      mload(0x40)\n      dup2\n      0xffffffff\n      and\n      0xe0\n      shl\n      dup2\n      mstore\n      0x04\n      add\n      0x20\n      mload(0x40)\n      dup1\n      dup4\n      sub\n      dup2\n      0x00\n      dup8\n      gas\n      call\n      iszero\n      dup1\n      iszero\n      tag_171\n      jumpi\n      returndatasize\n      0x00\n      dup1\n      returndatacopy\n      revert(0x00, returndatasize)\n    tag_171:\n      pop\n      pop\n      pop\n      pop\n      mload(0x40)\n      returndatasize\n      not(0x1f)\n      0x1f\n      dup3\n      add\n      and\n      dup3\n      add\n      dup1\n      0x40\n      mstore\n      pop\n      dup2\n      add\n      swap1\n      tag_172\n      swap2\n      swap1\n      tag_165\n      jump\t// in\n    tag_172:\n        /* \"Bridge.sol\":8286:8335  newOwner = ERC20Essential(ofTokenAddress).owner() */\n      swap1\n      pop\n        /* \"Bridge.sol\":7909:8342  function transferTokenOwnership(address ofTokenAddress, address toAddress) external onlyOwner returns(address oldOwner, address newOwner){... */\n      swap3\n      pop\n      swap3\n      swap1\n      pop\n      jump\t// out\n        /* \"Bridge.sol\":1729:1887  function changeSigner(address _signer, bool _status) public onlyOwner {... */\n    tag_60:\n        /* \"Bridge.sol\":1591:1596  owner */\n      and(sub(shl(0xa0, 0x01), 0x01), sload(0x00))\n        /* \"Bridge.sol\":1577:1587  msg.sender */\n      caller\n        /* \"Bridge.sol\":1577:1596  msg.sender == owner */\n      eq\n        /* \"Bridge.sol\":1569:1597  require(msg.sender == owner) */\n      tag_174\n      jumpi\n      0x00\n      dup1\n      revert\n    tag_174:\n      sub(shl(0xa0, 0x01), 0x01)\n        /* \"Bridge.sol\":1809:1824  signer[_signer] */\n      dup3\n      and\n      0x00\n      dup2\n      dup2\n      mstore\n        /* \"Bridge.sol\":1809:1815  signer */\n      0x02\n        /* \"Bridge.sol\":1809:1824  signer[_signer] */\n      0x20\n      mstore\n      0x40\n      dup1\n      dup3\n      keccak256\n        /* \"Bridge.sol\":1809:1834  signer[_signer] = _status */\n      dup1\n      sload\n      not(0xff)\n      and\n      dup6\n      iszero\n      iszero\n      swap1\n      dup2\n      or\n      swap1\n      swap2\n      sstore\n        /* \"Bridge.sol\":1849:1880  SignerUpdated(_signer, _status) */\n      swap1\n      mload\n        /* \"Bridge.sol\":1809:1834  signer[_signer] = _status */\n      swap1\n      swap3\n        /* \"Bridge.sol\":1809:1824  signer[_signer] */\n      swap2\n        /* \"Bridge.sol\":1849:1880  SignerUpdated(_signer, _status) */\n      0xfcaa24b1276bfa7dbf77797c0a984b9df924acbeaabd48cd2f1b0eca379b78fa\n      swap2\n      log3\n        /* \"Bridge.sol\":1729:1887  function changeSigner(address _signer, bool _status) public onlyOwner {... */\n      pop\n      pop\n      jump\t// out\n        /* \"Bridge.sol\":7284:7599  function setUSDTAddress(address _tokenAddress) external onlyOwner returns(address newAddress){... */\n    tag_64:\n        /* \"Bridge.sol\":7358:7376  address newAddress */\n      0x00\n        /* \"Bridge.sol\":1591:1596  owner */\n      dup1\n      sload\n      sub(shl(0xa0, 0x01), 0x01)\n      and\n        /* \"Bridge.sol\":1577:1587  msg.sender */\n      caller\n        /* \"Bridge.sol\":1577:1596  msg.sender == owner */\n      eq\n        /* \"Bridge.sol\":1569:1597  require(msg.sender == owner) */\n      tag_177\n      jumpi\n      0x00\n      dup1\n      revert\n    tag_177:\n      sub(shl(0xa0, 0x01), 0x01)\n        /* \"Bridge.sol\":7395:7422  _tokenAddress != address(0) */\n      dup3\n      and\n        /* \"Bridge.sol\":7387:7451  require(_tokenAddress != address(0), \"zero address not allowed\") */\n      tag_179\n      jumpi\n      mload(0x40)\n      shl(0xe5, 0x461bcd)\n      dup2\n      mstore\n        /* \"#utility.yul\":5254:5256   */\n      0x20\n        /* \"Bridge.sol\":7387:7451  require(_tokenAddress != address(0), \"zero address not allowed\") */\n      0x04\n      dup3\n      add\n        /* \"#utility.yul\":5236:5257   */\n      mstore\n        /* \"#utility.yul\":5293:5295   */\n      0x18\n        /* \"#utility.yul\":5273:5291   */\n      0x24\n      dup3\n      add\n        /* \"#utility.yul\":5266:5296   */\n      mstore\n      shl(0x42, 0x1e995c9bc81859191c995cdcc81b9bdd08185b1b1bddd959)\n        /* \"#utility.yul\":5312:5330   */\n      0x44\n      dup3\n      add\n        /* \"#utility.yul\":5305:5359   */\n      mstore\n        /* \"#utility.yul\":5376:5394   */\n      0x64\n      add\n        /* \"Bridge.sol\":7387:7451  require(_tokenAddress != address(0), \"zero address not allowed\") */\n      tag_149\n        /* \"#utility.yul\":5052:5400   */\n      jump\n        /* \"Bridge.sol\":7387:7451  require(_tokenAddress != address(0), \"zero address not allowed\") */\n    tag_179:\n        /* \"Bridge.sol\":7486:7497  usdtAddress */\n      sload(0x07)\n      sub(shl(0xa0, 0x01), 0x01)\n      swap1\n      dup2\n      and\n        /* \"Bridge.sol\":7469:7497  _tokenAddress != usdtAddress */\n      swap1\n      dup4\n      and\n      sub\n        /* \"Bridge.sol\":7461:7521  require(_tokenAddress != usdtAddress, \"same as old address\") */\n      tag_181\n      jumpi\n      mload(0x40)\n      shl(0xe5, 0x461bcd)\n      dup2\n      mstore\n        /* \"#utility.yul\":5863:5865   */\n      0x20\n        /* \"Bridge.sol\":7461:7521  require(_tokenAddress != usdtAddress, \"same as old address\") */\n      0x04\n      dup3\n      add\n        /* \"#utility.yul\":5845:5866   */\n      mstore\n        /* \"#utility.yul\":5902:5904   */\n      0x13\n        /* \"#utility.yul\":5882:5900   */\n      0x24\n      dup3\n      add\n        /* \"#utility.yul\":5875:5905   */\n      mstore\n      shl(0x68, 0x73616d65206173206f6c642061646472657373)\n        /* \"#utility.yul\":5921:5939   */\n      0x44\n      dup3\n      add\n        /* \"#utility.yul\":5914:5963   */\n      mstore\n        /* \"#utility.yul\":5980:5998   */\n      0x64\n      add\n        /* \"Bridge.sol\":7461:7521  require(_tokenAddress != usdtAddress, \"same as old address\") */\n      tag_149\n        /* \"#utility.yul\":5661:6004   */\n      jump\n        /* \"Bridge.sol\":7461:7521  require(_tokenAddress != usdtAddress, \"same as old address\") */\n    tag_181:\n      pop\n        /* \"Bridge.sol\":7531:7542  usdtAddress */\n      0x07\n        /* \"Bridge.sol\":7531:7558  usdtAddress = _tokenAddress */\n      dup1\n      sload\n      sub(shl(0xa0, 0x01), 0x01)\n      swap1\n      swap3\n      and\n      not(sub(shl(0xa0, 0x01), 0x01))\n      swap1\n      swap3\n      and\n      dup3\n      or\n      swap1\n      sstore\n      swap1\n        /* \"Bridge.sol\":7284:7599  function setUSDTAddress(address _tokenAddress) external onlyOwner returns(address newAddress){... */\n      jump\t// out\n        /* \"Bridge.sol\":2115:2306  function acceptOwnership() public {... */\n    tag_69:\n        /* \"Bridge.sol\":2181:2189  newOwner */\n      and(sub(shl(0xa0, 0x01), 0x01), sload(0x01))\n        /* \"Bridge.sol\":2167:2177  msg.sender */\n      caller\n        /* \"Bridge.sol\":2167:2189  msg.sender == newOwner */\n      eq\n        /* \"Bridge.sol\":2159:2190  require(msg.sender == newOwner) */\n      tag_185\n      jumpi\n      0x00\n      dup1\n      revert\n    tag_185:\n        /* \"Bridge.sol\":2233:2241  newOwner */\n      sload(0x01)\n      0x00\n        /* \"Bridge.sol\":2226:2231  owner */\n      dup1\n      sload\n        /* \"Bridge.sol\":2205:2242  OwnershipTransferred(owner, newOwner) */\n      mload(0x40)\n      sub(shl(0xa0, 0x01), 0x01)\n        /* \"Bridge.sol\":2233:2241  newOwner */\n      swap4\n      dup5\n      and\n      swap4\n        /* \"Bridge.sol\":2226:2231  owner */\n      swap1\n      swap2\n      and\n      swap2\n        /* \"Bridge.sol\":2205:2242  OwnershipTransferred(owner, newOwner) */\n      0x8be0079c531659141344cd1fd0a4f28419497f9722a3daafe3b4186f6b6457e0\n      swap2\n      log3\n        /* \"Bridge.sol\":2260:2268  newOwner */\n      0x01\n      dup1\n      sload\n      0x00\n        /* \"Bridge.sol\":2252:2268  owner = newOwner */\n      dup1\n      sload\n      not(sub(shl(0xa0, 0x01), 0x01))\n      swap1\n      dup2\n      and\n      sub(shl(0xa0, 0x01), 0x01)\n        /* \"Bridge.sol\":2260:2268  newOwner */\n      dup5\n      and\n        /* \"Bridge.sol\":2252:2268  owner = newOwner */\n      or\n      swap1\n      swap2\n      sstore\n        /* \"Bridge.sol\":2278:2299  newOwner = address(0) */\n      and\n      swap1\n      sstore\n        /* \"Bridge.sol\":2115:2306  function acceptOwnership() public {... */\n      jump\t// out\n        /* \"Bridge.sol\":6773:6980  function setFeeWallet(address _feeWallet) external onlyOwner returns(address oldWallet, address newWallet){... */\n    tag_82:\n        /* \"Bridge.sol\":6842:6859  address oldWallet */\n      0x00\n        /* \"Bridge.sol\":1591:1596  owner */\n      dup1\n      sload\n        /* \"Bridge.sol\":6842:6859  address oldWallet */\n      dup2\n      swap1\n      sub(shl(0xa0, 0x01), 0x01)\n        /* \"Bridge.sol\":1591:1596  owner */\n      and\n        /* \"Bridge.sol\":1577:1587  msg.sender */\n      caller\n        /* \"Bridge.sol\":1577:1596  msg.sender == owner */\n      eq\n        /* \"Bridge.sol\":1569:1597  require(msg.sender == owner) */\n      tag_187\n      jumpi\n      0x00\n      dup1\n      revert\n    tag_187:\n      pop\n      pop\n        /* \"Bridge.sol\":6901:6910  feeWallet */\n      0x05\n      dup1\n      sload\n      sub(shl(0xa0, 0x01), 0x01)\n        /* \"Bridge.sol\":6920:6942  feeWallet = _feeWallet */\n      swap3\n      dup4\n      and\n      not(sub(shl(0xa0, 0x01), 0x01))\n      dup3\n      and\n      dup2\n      or\n      swap1\n      swap3\n      sstore\n        /* \"Bridge.sol\":6901:6910  feeWallet */\n      swap2\n      swap1\n      swap2\n      and\n      swap2\n        /* \"Bridge.sol\":6773:6980  function setFeeWallet(address _feeWallet) external onlyOwner returns(address oldWallet, address newWallet){... */\n      jump\t// out\n        /* \"Bridge.sol\":7628:7853  function setFundThreshold(uint256 _amount) external onlyOwner returns(uint256 oldAmount, uint256 newAmount){... */\n    tag_92:\n        /* \"Bridge.sol\":7698:7715  uint256 oldAmount */\n      0x00\n        /* \"Bridge.sol\":1591:1596  owner */\n      dup1\n      sload\n        /* \"Bridge.sol\":7698:7715  uint256 oldAmount */\n      dup2\n      swap1\n      sub(shl(0xa0, 0x01), 0x01)\n        /* \"Bridge.sol\":1591:1596  owner */\n      and\n        /* \"Bridge.sol\":1577:1587  msg.sender */\n      caller\n        /* \"Bridge.sol\":1577:1596  msg.sender == owner */\n      eq\n        /* \"Bridge.sol\":1569:1597  require(msg.sender == owner) */\n      tag_190\n      jumpi\n      0x00\n      dup1\n      revert\n    tag_190:\n      pop\n      pop\n        /* \"Bridge.sol\":7757:7777  reserveFundThreshold */\n      0x08\n      dup1\n      sload\n        /* \"Bridge.sol\":7787:7817  reserveFundThreshold = _amount */\n      swap1\n      dup3\n      swap1\n      sstore\n        /* \"Bridge.sol\":7757:7777  reserveFundThreshold */\n      swap2\n        /* \"Bridge.sol\":7628:7853  function setFundThreshold(uint256 _amount) external onlyOwner returns(uint256 oldAmount, uint256 newAmount){... */\n      jump\t// out\n        /* \"Bridge.sol\":7015:7246  function setReserveWallet(address _reserveWallet) external onlyOwner returns(address oldWallet, address newWallet){... */\n    tag_106:\n        /* \"Bridge.sol\":7092:7109  address oldWallet */\n      0x00\n        /* \"Bridge.sol\":1591:1596  owner */\n      dup1\n      sload\n        /* \"Bridge.sol\":7092:7109  address oldWallet */\n      dup2\n      swap1\n      sub(shl(0xa0, 0x01), 0x01)\n        /* \"Bridge.sol\":1591:1596  owner */\n      and\n        /* \"Bridge.sol\":1577:1587  msg.sender */\n      caller\n        /* \"Bridge.sol\":1577:1596  msg.sender == owner */\n      eq\n        /* \"Bridge.sol\":1569:1597  require(msg.sender == owner) */\n      tag_193\n      jumpi\n      0x00\n      dup1\n      revert\n    tag_193:\n      pop\n      pop\n        /* \"Bridge.sol\":7151:7164  reserveWallet */\n      0x06\n      dup1\n      sload\n      sub(shl(0xa0, 0x01), 0x01)\n        /* \"Bridge.sol\":7174:7204  reserveWallet = _reserveWallet */\n      swap3\n      dup4\n      and\n      not(sub(shl(0xa0, 0x01), 0x01))\n      dup3\n      and\n      dup2\n      or\n      swap1\n      swap3\n      sstore\n        /* \"Bridge.sol\":7151:7164  reserveWallet */\n      swap2\n      swap1\n      swap2\n      and\n      swap2\n        /* \"Bridge.sol\":7015:7246  function setReserveWallet(address _reserveWallet) external onlyOwner returns(address oldWallet, address newWallet){... */\n      jump\t// out\n        /* \"Bridge.sol\":1893:1993  function transferOwnership(address _newOwner) public onlyOwner {... */\n    tag_119:\n        /* \"Bridge.sol\":1591:1596  owner */\n      and(sub(shl(0xa0, 0x01), 0x01), sload(0x00))\n        /* \"Bridge.sol\":1577:1587  msg.sender */\n      caller\n        /* \"Bridge.sol\":1577:1596  msg.sender == owner */\n      eq\n        /* \"Bridge.sol\":1569:1597  require(msg.sender == owner) */\n      tag_196\n      jumpi\n      0x00\n      dup1\n      revert\n    tag_196:\n        /* \"Bridge.sol\":1966:1974  newOwner */\n      0x01\n        /* \"Bridge.sol\":1966:1986  newOwner = _newOwner */\n      dup1\n      sload\n      not(sub(shl(0xa0, 0x01), 0x01))\n      and\n      sub(shl(0xa0, 0x01), 0x01)\n      swap3\n      swap1\n      swap3\n      and\n      swap2\n      swap1\n      swap2\n      or\n      swap1\n      sstore\n        /* \"Bridge.sol\":1893:1993  function transferOwnership(address _newOwner) public onlyOwner {... */\n      jump\t// out\n        /* \"Bridge.sol\":4540:5542  function tokenIn(address tokenAddress, uint256 tokenAmount, uint256 chainID, address outputCurrency) external returns(bool){... */\n    tag_124:\n        /* \"Bridge.sol\":4673:4680  orderID */\n      0x03\n        /* \"Bridge.sol\":4673:4682  orderID++ */\n      dup1\n      sload\n        /* \"Bridge.sol\":4658:4662  bool */\n      0x00\n      swap2\n      dup3\n        /* \"Bridge.sol\":4673:4682  orderID++ */\n      tag_199\n      dup4\n      tag_137\n      jump\t// in\n    tag_199:\n      swap2\n      swap1\n      pop\n      sstore\n      pop\n        /* \"Bridge.sol\":4692:4705  uint256 burnt */\n      0x00\n        /* \"Bridge.sol\":4715:4726  uint256 tax */\n      dup1\n        /* \"Bridge.sol\":4736:4752  uint256 afterTax */\n      0x00\n        /* \"Bridge.sol\":4780:4803  processTax(tokenAmount) */\n      tag_200\n        /* \"Bridge.sol\":4791:4802  tokenAmount */\n      dup8\n        /* \"Bridge.sol\":4780:4790  processTax */\n      tag_139\n        /* \"Bridge.sol\":4780:4803  processTax(tokenAmount) */\n      jump\t// in\n    tag_200:\n        /* \"Bridge.sol\":4868:4879  usdtAddress */\n      sload(0x07)\n        /* \"Bridge.sol\":4762:4803  (afterTax, tax) = processTax(tokenAmount) */\n      swap1\n      swap4\n      pop\n      swap1\n      swap2\n      pop\n      sub(shl(0xa0, 0x01), 0x01)\n        /* \"Bridge.sol\":4868:4879  usdtAddress */\n      swap1\n      dup2\n      and\n        /* \"Bridge.sol\":4852:4879  tokenAddress == usdtAddress */\n      swap1\n      dup10\n      and\n      sub\n        /* \"Bridge.sol\":4849:5419  if(tokenAddress == usdtAddress){... */\n      tag_201\n      jumpi\n        /* \"Bridge.sol\":4975:5054  usdtContract(tokenAddress).transferFrom(msg.sender, address(this), tokenAmount) */\n      mload(0x40)\n      shl(0xe0, 0x23b872dd)\n      dup2\n      mstore\n        /* \"Bridge.sol\":5015:5025  msg.sender */\n      caller\n        /* \"Bridge.sol\":4975:5054  usdtContract(tokenAddress).transferFrom(msg.sender, address(this), tokenAmount) */\n      0x04\n      dup3\n      add\n        /* \"#utility.yul\":6249:6283   */\n      mstore\n        /* \"Bridge.sol\":5035:5039  this */\n      address\n        /* \"#utility.yul\":6299:6317   */\n      0x24\n      dup3\n      add\n        /* \"#utility.yul\":6292:6335   */\n      mstore\n        /* \"#utility.yul\":6351:6369   */\n      0x44\n      dup2\n      add\n        /* \"#utility.yul\":6344:6378   */\n      dup9\n      swap1\n      mstore\n      sub(shl(0xa0, 0x01), 0x01)\n        /* \"Bridge.sol\":4975:5014  usdtContract(tokenAddress).transferFrom */\n      dup10\n      and\n      swap1\n      0x23b872dd\n      swap1\n        /* \"#utility.yul\":6184:6202   */\n      0x64\n      add\n        /* \"Bridge.sol\":4975:5054  usdtContract(tokenAddress).transferFrom(msg.sender, address(this), tokenAmount) */\n      0x00\n      mload(0x40)\n      dup1\n      dup4\n      sub\n      dup2\n      0x00\n      dup8\n      dup1\n      extcodesize\n      iszero\n      dup1\n      iszero\n      tag_204\n      jumpi\n      0x00\n      dup1\n      revert\n    tag_204:\n      pop\n      gas\n      call\n      iszero\n      dup1\n      iszero\n      tag_206\n      jumpi\n      returndatasize\n      0x00\n      dup1\n      returndatacopy\n      revert(0x00, returndatasize)\n    tag_206:\n      pop\n      pop\n        /* \"Bridge.sol\":5104:5113  feeWallet */\n      sload(0x05)\n        /* \"Bridge.sol\":5068:5119  usdtContract(tokenAddress).transfer(feeWallet, tax) */\n      mload(0x40)\n      shl(0xe0, 0xa9059cbb)\n      dup2\n      mstore\n      sub(shl(0xa0, 0x01), 0x01)\n        /* \"Bridge.sol\":5104:5113  feeWallet */\n      swap2\n      dup3\n      and\n        /* \"Bridge.sol\":5068:5119  usdtContract(tokenAddress).transfer(feeWallet, tax) */\n      0x04\n      dup3\n      add\n        /* \"#utility.yul\":6563:6614   */\n      mstore\n        /* \"#utility.yul\":6630:6648   */\n      0x24\n      dup2\n      add\n        /* \"#utility.yul\":6623:6657   */\n      dup7\n      swap1\n      mstore\n        /* \"Bridge.sol\":5068:5103  usdtContract(tokenAddress).transfer */\n      swap1\n      dup12\n      and\n      swap3\n      pop\n      0xa9059cbb\n      swap2\n      pop\n        /* \"#utility.yul\":6536:6554   */\n      0x44\n      add\n        /* \"Bridge.sol\":5068:5119  usdtContract(tokenAddress).transfer(feeWallet, tax) */\n      0x00\n      mload(0x40)\n      dup1\n      dup4\n      sub\n      dup2\n      0x00\n      dup8\n      dup1\n      extcodesize\n      iszero\n      dup1\n      iszero\n      tag_209\n      jumpi\n      0x00\n      dup1\n      revert\n    tag_209:\n      pop\n      gas\n      call\n      iszero\n      dup1\n      iszero\n      tag_211\n      jumpi\n      returndatasize\n      0x00\n      dup1\n      returndatacopy\n      revert(0x00, returndatasize)\n    tag_211:\n      pop\n      pop\n      pop\n      pop\n        /* \"Bridge.sol\":5141:5175  burnTokens(tokenAddress, afterTax) */\n      tag_212\n        /* \"Bridge.sol\":5152:5164  tokenAddress */\n      dup9\n        /* \"Bridge.sol\":5166:5174  afterTax */\n      dup3\n        /* \"Bridge.sol\":5141:5151  burnTokens */\n      tag_213\n        /* \"Bridge.sol\":5141:5175  burnTokens(tokenAddress, afterTax) */\n      jump\t// in\n    tag_212:\n        /* \"Bridge.sol\":5133:5175  burnt = burnTokens(tokenAddress, afterTax) */\n      swap3\n      pop\n        /* \"Bridge.sol\":4849:5419  if(tokenAddress == usdtAddress){... */\n      jump(tag_214)\n    tag_201:\n        /* \"Bridge.sol\":5204:5285  ERC20Essential(tokenAddress).transferFrom(msg.sender, address(this), tokenAmount) */\n      mload(0x40)\n      shl(0xe0, 0x23b872dd)\n      dup2\n      mstore\n        /* \"Bridge.sol\":5246:5256  msg.sender */\n      caller\n        /* \"Bridge.sol\":5204:5285  ERC20Essential(tokenAddress).transferFrom(msg.sender, address(this), tokenAmount) */\n      0x04\n      dup3\n      add\n        /* \"#utility.yul\":6249:6283   */\n      mstore\n        /* \"Bridge.sol\":5266:5270  this */\n      address\n        /* \"#utility.yul\":6299:6317   */\n      0x24\n      dup3\n      add\n        /* \"#utility.yul\":6292:6335   */\n      mstore\n        /* \"#utility.yul\":6351:6369   */\n      0x44\n      dup2\n      add\n        /* \"#utility.yul\":6344:6378   */\n      dup9\n      swap1\n      mstore\n      sub(shl(0xa0, 0x01), 0x01)\n        /* \"Bridge.sol\":5204:5245  ERC20Essential(tokenAddress).transferFrom */\n      dup10\n      and\n      swap1\n      0x23b872dd\n      swap1\n        /* \"#utility.yul\":6184:6202   */\n      0x64\n      add\n        /* \"Bridge.sol\":5204:5285  ERC20Essential(tokenAddress).transferFrom(msg.sender, address(this), tokenAmount) */\n      0x20\n      mload(0x40)\n      dup1\n      dup4\n      sub\n      dup2\n      0x00\n      dup8\n      gas\n      call\n      iszero\n      dup1\n      iszero\n      tag_217\n      jumpi\n      returndatasize\n      0x00\n      dup1\n      returndatacopy\n      revert(0x00, returndatasize)\n    tag_217:\n      pop\n      pop\n      pop\n      pop\n      mload(0x40)\n      returndatasize\n      not(0x1f)\n      0x1f\n      dup3\n      add\n      and\n      dup3\n      add\n      dup1\n      0x40\n      mstore\n      pop\n      dup2\n      add\n      swap1\n      tag_218\n      swap2\n      swap1\n      tag_219\n      jump\t// in\n    tag_218:\n      pop\n        /* \"Bridge.sol\":5337:5346  feeWallet */\n      sload(0x05)\n        /* \"Bridge.sol\":5299:5352  ERC20Essential(tokenAddress).transfer(feeWallet, tax) */\n      mload(0x40)\n      shl(0xe0, 0xa9059cbb)\n      dup2\n      mstore\n      sub(shl(0xa0, 0x01), 0x01)\n        /* \"Bridge.sol\":5337:5346  feeWallet */\n      swap2\n      dup3\n      and\n        /* \"Bridge.sol\":5299:5352  ERC20Essential(tokenAddress).transfer(feeWallet, tax) */\n      0x04\n      dup3\n      add\n        /* \"#utility.yul\":6563:6614   */\n      mstore\n        /* \"#utility.yul\":6630:6648   */\n      0x24\n      dup2\n      add\n        /* \"#utility.yul\":6623:6657   */\n      dup5\n      swap1\n      mstore\n        /* \"Bridge.sol\":5299:5336  ERC20Essential(tokenAddress).transfer */\n      swap1\n      dup10\n      and\n      swap1\n      0xa9059cbb\n      swap1\n        /* \"#utility.yul\":6536:6554   */\n      0x44\n      add\n        /* \"Bridge.sol\":5299:5352  ERC20Essential(tokenAddress).transfer(feeWallet, tax) */\n      0x20\n      mload(0x40)\n      dup1\n      dup4\n      sub\n      dup2\n      0x00\n      dup8\n      gas\n      call\n      iszero\n      dup1\n      iszero\n      tag_222\n      jumpi\n      returndatasize\n      0x00\n      dup1\n      returndatacopy\n      revert(0x00, returndatasize)\n    tag_222:\n      pop\n      pop\n      pop\n      pop\n      mload(0x40)\n      returndatasize\n      not(0x1f)\n      0x1f\n      dup3\n      add\n      and\n      dup3\n      add\n      dup1\n      0x40\n      mstore\n      pop\n      dup2\n      add\n      swap1\n      tag_223\n      swap2\n      swap1\n      tag_219\n      jump\t// in\n    tag_223:\n      pop\n        /* \"Bridge.sol\":5374:5408  burnTokens(tokenAddress, afterTax) */\n      tag_224\n        /* \"Bridge.sol\":5385:5397  tokenAddress */\n      dup9\n        /* \"Bridge.sol\":5399:5407  afterTax */\n      dup3\n        /* \"Bridge.sol\":5374:5384  burnTokens */\n      tag_213\n        /* \"Bridge.sol\":5374:5408  burnTokens(tokenAddress, afterTax) */\n      jump\t// in\n    tag_224:\n        /* \"Bridge.sol\":5366:5408  burnt = burnTokens(tokenAddress, afterTax) */\n      swap3\n      pop\n        /* \"Bridge.sol\":4849:5419  if(tokenAddress == usdtAddress){... */\n    tag_214:\n        /* \"Bridge.sol\":5442:5449  orderID */\n      sload(0x03)\n        /* \"Bridge.sol\":5434:5514  TokenIn(orderID, tokenAddress, msg.sender, tokenAmount, chainID, outputCurrency) */\n      0x40\n      dup1\n      mload\n        /* \"#utility.yul\":7120:7145   */\n      dup10\n      dup2\n      mstore\n        /* \"#utility.yul\":7176:7178   */\n      0x20\n        /* \"#utility.yul\":7161:7179   */\n      dup2\n      add\n        /* \"#utility.yul\":7154:7188   */\n      dup10\n      swap1\n      mstore\n      sub(shl(0xa0, 0x01), 0x01)\n        /* \"#utility.yul\":7224:7256   */\n      dup9\n      dup2\n      and\n        /* \"#utility.yul\":7204:7222   */\n      dup3\n      dup5\n      add\n        /* \"#utility.yul\":7197:7257   */\n      mstore\n        /* \"Bridge.sol\":5434:5514  TokenIn(orderID, tokenAddress, msg.sender, tokenAmount, chainID, outputCurrency) */\n      swap2\n      mload\n        /* \"Bridge.sol\":5465:5475  msg.sender */\n      caller\n      swap4\n        /* \"Bridge.sol\":5434:5514  TokenIn(orderID, tokenAddress, msg.sender, tokenAmount, chainID, outputCurrency) */\n      swap3\n      dup13\n      and\n      swap3\n        /* \"Bridge.sol\":5442:5449  orderID */\n      swap2\n        /* \"Bridge.sol\":5434:5514  TokenIn(orderID, tokenAddress, msg.sender, tokenAmount, chainID, outputCurrency) */\n      0x8a9f5b93a9427ed2074a269336914d74d6b34dfe5679f30c5cf172f5842aa795\n      swap2\n      swap1\n      dup2\n      swap1\n      sub\n        /* \"#utility.yul\":7108:7110   */\n      0x60\n        /* \"Bridge.sol\":5434:5514  TokenIn(orderID, tokenAddress, msg.sender, tokenAmount, chainID, outputCurrency) */\n      add\n      swap1\n      log4\n      pop\n        /* \"Bridge.sol\":5531:5535  true */\n      0x01\n      swap8\n        /* \"Bridge.sol\":4540:5542  function tokenIn(address tokenAddress, uint256 tokenAmount, uint256 chainID, address outputCurrency) external returns(bool){... */\n      swap7\n      pop\n      pop\n      pop\n      pop\n      pop\n      pop\n      pop\n      jump\t// out\n        /* \"Bridge.sol\":4287:4525  function coinOut(address user, uint256 amount, uint256 _orderID) external onlySigner returns(bool){... */\n    tag_130:\n        /* \"Bridge.sol\":1667:1677  msg.sender */\n      caller\n        /* \"Bridge.sol\":4380:4384  bool */\n      0x00\n        /* \"Bridge.sol\":1660:1678  signer[msg.sender] */\n      swap1\n      dup2\n      mstore\n        /* \"Bridge.sol\":1660:1666  signer */\n      0x02\n        /* \"Bridge.sol\":1660:1678  signer[msg.sender] */\n      0x20\n      mstore\n      0x40\n      dup2\n      keccak256\n      sload\n      0xff\n      and\n        /* \"Bridge.sol\":1652:1704  require(signer[msg.sender], 'caller must be signer') */\n      tag_228\n      jumpi\n      mload(0x40)\n      shl(0xe5, 0x461bcd)\n      dup2\n      mstore\n        /* \"#utility.yul\":4904:4906   */\n      0x20\n        /* \"Bridge.sol\":1652:1704  require(signer[msg.sender], 'caller must be signer') */\n      0x04\n      dup3\n      add\n        /* \"#utility.yul\":4886:4907   */\n      mstore\n        /* \"#utility.yul\":4943:4945   */\n      0x15\n        /* \"#utility.yul\":4923:4941   */\n      0x24\n      dup3\n      add\n        /* \"#utility.yul\":4916:4946   */\n      mstore\n      shl(0x59, 0x31b0b63632b91036bab9ba1031329039b4b3b732b9)\n        /* \"#utility.yul\":4962:4980   */\n      0x44\n      dup3\n      add\n        /* \"#utility.yul\":4955:5006   */\n      mstore\n        /* \"#utility.yul\":5023:5041   */\n      0x64\n      add\n        /* \"Bridge.sol\":1652:1704  require(signer[msg.sender], 'caller must be signer') */\n      tag_149\n        /* \"#utility.yul\":4702:5047   */\n      jump\n        /* \"Bridge.sol\":1652:1704  require(signer[msg.sender], 'caller must be signer') */\n    tag_228:\n        /* \"Bridge.sol\":4408:4438  payable(user).transfer(amount) */\n      mload(0x40)\n      sub(shl(0xa0, 0x01), 0x01)\n        /* \"Bridge.sol\":4408:4430  payable(user).transfer */\n      dup6\n      and\n      swap1\n        /* \"Bridge.sol\":4408:4438  payable(user).transfer(amount) */\n      dup5\n      iszero\n      0x08fc\n      mul\n      swap1\n        /* \"Bridge.sol\":4431:4437  amount */\n      dup6\n      swap1\n        /* \"Bridge.sol\":4408:4438  payable(user).transfer(amount) */\n      0x00\n      dup2\n      dup2\n      dup2\n        /* \"Bridge.sol\":4431:4437  amount */\n      dup6\n        /* \"Bridge.sol\":4408:4430  payable(user).transfer */\n      dup9\n        /* \"Bridge.sol\":4408:4438  payable(user).transfer(amount) */\n      dup9\n      call\n      swap4\n      pop\n      pop\n      pop\n      pop\n      iszero\n      dup1\n      iszero\n      tag_232\n      jumpi\n      returndatasize\n      0x00\n      dup1\n      returndatacopy\n      revert(0x00, returndatasize)\n    tag_232:\n      pop\n        /* \"Bridge.sol\":4475:4479  user */\n      dup4\n      sub(shl(0xa0, 0x01), 0x01)\n        /* \"Bridge.sol\":4457:4488  CoinOut(_orderID, user, amount) */\n      and\n        /* \"Bridge.sol\":4465:4473  _orderID */\n      dup3\n        /* \"Bridge.sol\":4457:4488  CoinOut(_orderID, user, amount) */\n      0x9651479651fe91907cee7de24a0e47091421878d660c93c6fe0d04c7b7b2404b\n        /* \"Bridge.sol\":4481:4487  amount */\n      dup6\n        /* \"Bridge.sol\":4457:4488  CoinOut(_orderID, user, amount) */\n      mload(0x40)\n      tag_233\n      swap2\n        /* \"#utility.yul\":2759:2784   */\n      dup2\n      mstore\n        /* \"#utility.yul\":2747:2749   */\n      0x20\n        /* \"#utility.yul\":2732:2750   */\n      add\n      swap1\n        /* \"#utility.yul\":2613:2790   */\n      jump\n        /* \"Bridge.sol\":4457:4488  CoinOut(_orderID, user, amount) */\n    tag_233:\n      mload(0x40)\n      dup1\n      swap2\n      sub\n      swap1\n      log3\n      pop\n        /* \"Bridge.sol\":4514:4518  true */\n      0x01\n        /* \"Bridge.sol\":4287:4525  function coinOut(address user, uint256 amount, uint256 _orderID) external onlySigner returns(bool){... */\n      swap4\n      swap3\n      pop\n      pop\n      pop\n      jump\t// out\n        /* \"Bridge.sol\":5996:6202  function processTax(uint256 amount) internal pure returns(uint256 afterTax, uint256 deductedTax){... */\n    tag_139:\n        /* \"Bridge.sol\":6054:6070  uint256 afterTax */\n      0x00\n      dup1\n        /* \"Bridge.sol\":6131:6134  1e4 */\n      0x2710\n        /* \"Bridge.sol\":6117:6129  500 * amount */\n      tag_235\n        /* \"Bridge.sol\":6123:6129  amount */\n      dup5\n        /* \"Bridge.sol\":6117:6120  500 */\n      0x01f4\n        /* \"Bridge.sol\":6117:6129  500 * amount */\n      tag_236\n      jump\t// in\n    tag_235:\n        /* \"Bridge.sol\":6116:6134  (500 * amount)/1e4 */\n      tag_237\n      swap2\n      swap1\n      tag_238\n      jump\t// in\n    tag_237:\n        /* \"Bridge.sol\":6102:6134  deductedTax = (500 * amount)/1e4 */\n      swap1\n      pop\n        /* \"Bridge.sol\":6175:6195  amount - deductedTax */\n      tag_239\n        /* \"Bridge.sol\":6102:6134  deductedTax = (500 * amount)/1e4 */\n      dup2\n        /* \"Bridge.sol\":6175:6181  amount */\n      dup5\n        /* \"Bridge.sol\":6175:6195  amount - deductedTax */\n      tag_240\n      jump\t// in\n    tag_239:\n        /* \"Bridge.sol\":6164:6195  afterTax = amount - deductedTax */\n      swap2\n      pop\n        /* \"Bridge.sol\":5996:6202  function processTax(uint256 amount) internal pure returns(uint256 afterTax, uint256 deductedTax){... */\n      swap2\n      pop\n      swap2\n      jump\t// out\n        /* \"Bridge.sol\":6240:6518  function mintTokens(address tokenAddress, address userAddress, uint256 amountToMint) internal returns(uint256 minted, address toAddress){... */\n    tag_153:\n        /* \"Bridge.sol\":6386:6446  ERC20Essential(tokenAddress).mint(userAddress, amountToMint) */\n      mload(0x40)\n      shl(0xe0, 0x40c10f19)\n      dup2\n      mstore\n      sub(shl(0xa0, 0x01), 0x01)\n        /* \"#utility.yul\":6581:6613   */\n      dup4\n      dup2\n      and\n        /* \"Bridge.sol\":6386:6446  ERC20Essential(tokenAddress).mint(userAddress, amountToMint) */\n      0x04\n      dup4\n      add\n        /* \"#utility.yul\":6563:6614   */\n      mstore\n        /* \"#utility.yul\":6630:6648   */\n      0x24\n      dup3\n      add\n        /* \"#utility.yul\":6623:6657   */\n      dup4\n      swap1\n      mstore\n        /* \"Bridge.sol\":6342:6356  uint256 minted */\n      0x00\n      swap2\n      dup3\n      swap2\n        /* \"Bridge.sol\":6386:6419  ERC20Essential(tokenAddress).mint */\n      dup7\n      and\n      swap1\n      0x40c10f19\n      swap1\n        /* \"#utility.yul\":6536:6554   */\n      0x44\n      add\n        /* \"Bridge.sol\":6386:6446  ERC20Essential(tokenAddress).mint(userAddress, amountToMint) */\n      0x00\n      mload(0x40)\n      dup1\n      dup4\n      sub\n      dup2\n      0x00\n      dup8\n      dup1\n      extcodesize\n      iszero\n      dup1\n      iszero\n      tag_243\n      jumpi\n      0x00\n      dup1\n      revert\n    tag_243:\n      pop\n      gas\n      call\n      iszero\n      dup1\n      iszero\n      tag_245\n      jumpi\n      returndatasize\n      0x00\n      dup1\n      returndatacopy\n      revert(0x00, returndatasize)\n    tag_245:\n      pop\n        /* \"Bridge.sol\":6466:6478  amountToMint */\n      swap5\n      swap8\n        /* \"Bridge.sol\":6500:6511  userAddress */\n      swap6\n      swap7\n      pop\n      pop\n      pop\n      pop\n      pop\n      pop\n        /* \"Bridge.sol\":6240:6518  function mintTokens(address tokenAddress, address userAddress, uint256 amountToMint) internal returns(uint256 minted, address toAddress){... */\n      jump\t// out\n        /* \"Bridge.sol\":6556:6742  function burnTokens(address tokenAddress, uint256 amount) internal returns(uint256 burnt){... */\n    tag_213:\n        /* \"Bridge.sol\":6655:6711  ERC20Essential(tokenAddress).burn(address(this), amount) */\n      mload(0x40)\n      shl(0xe2, 0x2770a7eb)\n      dup2\n      mstore\n        /* \"Bridge.sol\":6697:6701  this */\n      address\n        /* \"Bridge.sol\":6655:6711  ERC20Essential(tokenAddress).burn(address(this), amount) */\n      0x04\n      dup3\n      add\n        /* \"#utility.yul\":6563:6614   */\n      mstore\n        /* \"#utility.yul\":6630:6648   */\n      0x24\n      dup2\n      add\n        /* \"#utility.yul\":6623:6657   */\n      dup3\n      swap1\n      mstore\n        /* \"Bridge.sol\":6631:6644  uint256 burnt */\n      0x00\n      swap1\n      sub(shl(0xa0, 0x01), 0x01)\n        /* \"Bridge.sol\":6655:6688  ERC20Essential(tokenAddress).burn */\n      dup5\n      and\n      swap1\n      0x9dc29fac\n      swap1\n        /* \"#utility.yul\":6536:6554   */\n      0x44\n      add\n        /* \"Bridge.sol\":6655:6711  ERC20Essential(tokenAddress).burn(address(this), amount) */\n      0x00\n      mload(0x40)\n      dup1\n      dup4\n      sub\n      dup2\n      0x00\n      dup8\n      dup1\n      extcodesize\n      iszero\n      dup1\n      iszero\n      tag_248\n      jumpi\n      0x00\n      dup1\n      revert\n    tag_248:\n      pop\n      gas\n      call\n      iszero\n      dup1\n      iszero\n      tag_250\n      jumpi\n      returndatasize\n      0x00\n      dup1\n      returndatacopy\n      revert(0x00, returndatasize)\n    tag_250:\n      pop\n        /* \"Bridge.sol\":6729:6735  amount */\n      swap4\n      swap6\n        /* \"Bridge.sol\":6556:6742  function burnTokens(address tokenAddress, uint256 amount) internal returns(uint256 burnt){... */\n      swap5\n      pop\n      pop\n      pop\n      pop\n      pop\n      jump\t// out\n        /* \"#utility.yul\":14:145   */\n    tag_251:\n      sub(shl(0xa0, 0x01), 0x01)\n        /* \"#utility.yul\":89:120   */\n      dup2\n      and\n        /* \"#utility.yul\":79:121   */\n      dup2\n      eq\n        /* \"#utility.yul\":69:139   */\n      tag_256\n      jumpi\n        /* \"#utility.yul\":135:136   */\n      0x00\n        /* \"#utility.yul\":132:133   */\n      dup1\n        /* \"#utility.yul\":125:137   */\n      revert\n        /* \"#utility.yul\":69:139   */\n    tag_256:\n        /* \"#utility.yul\":14:145   */\n      pop\n      jump\t// out\n        /* \"#utility.yul\":150:397   */\n    tag_32:\n        /* \"#utility.yul\":209:215   */\n      0x00\n        /* \"#utility.yul\":262:264   */\n      0x20\n        /* \"#utility.yul\":250:259   */\n      dup3\n        /* \"#utility.yul\":241:248   */\n      dup5\n        /* \"#utility.yul\":237:260   */\n      sub\n        /* \"#utility.yul\":233:265   */\n      slt\n        /* \"#utility.yul\":230:282   */\n      iszero\n      tag_258\n      jumpi\n        /* \"#utility.yul\":278:279   */\n      0x00\n        /* \"#utility.yul\":275:276   */\n      dup1\n        /* \"#utility.yul\":268:280   */\n      revert\n        /* \"#utility.yul\":230:282   */\n    tag_258:\n        /* \"#utility.yul\":317:326   */\n      dup2\n        /* \"#utility.yul\":304:327   */\n      calldataload\n        /* \"#utility.yul\":336:367   */\n      tag_259\n        /* \"#utility.yul\":361:366   */\n      dup2\n        /* \"#utility.yul\":336:367   */\n      tag_251\n      jump\t// in\n    tag_259:\n        /* \"#utility.yul\":386:391   */\n      swap4\n        /* \"#utility.yul\":150:397   */\n      swap3\n      pop\n      pop\n      pop\n      jump\t// out\n        /* \"#utility.yul\":594:1188   */\n    tag_46:\n        /* \"#utility.yul\":689:695   */\n      0x00\n        /* \"#utility.yul\":697:703   */\n      dup1\n        /* \"#utility.yul\":705:711   */\n      0x00\n        /* \"#utility.yul\":713:719   */\n      dup1\n        /* \"#utility.yul\":721:727   */\n      0x00\n        /* \"#utility.yul\":774:777   */\n      0xa0\n        /* \"#utility.yul\":762:771   */\n      dup7\n        /* \"#utility.yul\":753:760   */\n      dup9\n        /* \"#utility.yul\":749:772   */\n      sub\n        /* \"#utility.yul\":745:778   */\n      slt\n        /* \"#utility.yul\":742:795   */\n      iszero\n      tag_262\n      jumpi\n        /* \"#utility.yul\":791:792   */\n      0x00\n        /* \"#utility.yul\":788:789   */\n      dup1\n        /* \"#utility.yul\":781:793   */\n      revert\n        /* \"#utility.yul\":742:795   */\n    tag_262:\n        /* \"#utility.yul\":830:839   */\n      dup6\n        /* \"#utility.yul\":817:840   */\n      calldataload\n        /* \"#utility.yul\":849:880   */\n      tag_263\n        /* \"#utility.yul\":874:879   */\n      dup2\n        /* \"#utility.yul\":849:880   */\n      tag_251\n      jump\t// in\n    tag_263:\n        /* \"#utility.yul\":899:904   */\n      swap5\n      pop\n        /* \"#utility.yul\":956:958   */\n      0x20\n        /* \"#utility.yul\":941:959   */\n      dup7\n      add\n        /* \"#utility.yul\":928:960   */\n      calldataload\n        /* \"#utility.yul\":969:1002   */\n      tag_264\n        /* \"#utility.yul\":928:960   */\n      dup2\n        /* \"#utility.yul\":969:1002   */\n      tag_251\n      jump\t// in\n    tag_264:\n        /* \"#utility.yul\":594:1188   */\n      swap5\n      swap8\n        /* \"#utility.yul\":1021:1028   */\n      swap5\n      swap7\n      pop\n      pop\n      pop\n      pop\n        /* \"#utility.yul\":1075:1077   */\n      0x40\n        /* \"#utility.yul\":1060:1078   */\n      dup4\n      add\n        /* \"#utility.yul\":1047:1079   */\n      calldataload\n      swap3\n        /* \"#utility.yul\":1126:1128   */\n      0x60\n        /* \"#utility.yul\":1111:1129   */\n      dup2\n      add\n        /* \"#utility.yul\":1098:1130   */\n      calldataload\n      swap3\n        /* \"#utility.yul\":1177:1180   */\n      0x80\n        /* \"#utility.yul\":1162:1181   */\n      swap1\n      swap2\n      add\n        /* \"#utility.yul\":1149:1182   */\n      calldataload\n      swap2\n      pop\n        /* \"#utility.yul\":594:1188   */\n      jump\t// out\n        /* \"#utility.yul\":1193:1581   */\n    tag_52:\n        /* \"#utility.yul\":1261:1267   */\n      0x00\n        /* \"#utility.yul\":1269:1275   */\n      dup1\n        /* \"#utility.yul\":1322:1324   */\n      0x40\n        /* \"#utility.yul\":1310:1319   */\n      dup4\n        /* \"#utility.yul\":1301:1308   */\n      dup6\n        /* \"#utility.yul\":1297:1320   */\n      sub\n        /* \"#utility.yul\":1293:1325   */\n      slt\n        /* \"#utility.yul\":1290:1342   */\n      iszero\n      tag_266\n      jumpi\n        /* \"#utility.yul\":1338:1339   */\n      0x00\n        /* \"#utility.yul\":1335:1336   */\n      dup1\n        /* \"#utility.yul\":1328:1340   */\n      revert\n        /* \"#utility.yul\":1290:1342   */\n    tag_266:\n        /* \"#utility.yul\":1377:1386   */\n      dup3\n        /* \"#utility.yul\":1364:1387   */\n      calldataload\n        /* \"#utility.yul\":1396:1427   */\n      tag_267\n        /* \"#utility.yul\":1421:1426   */\n      dup2\n        /* \"#utility.yul\":1396:1427   */\n      tag_251\n      jump\t// in\n    tag_267:\n        /* \"#utility.yul\":1446:1451   */\n      swap2\n      pop\n        /* \"#utility.yul\":1503:1505   */\n      0x20\n        /* \"#utility.yul\":1488:1506   */\n      dup4\n      add\n        /* \"#utility.yul\":1475:1507   */\n      calldataload\n        /* \"#utility.yul\":1516:1549   */\n      tag_268\n        /* \"#utility.yul\":1475:1507   */\n      dup2\n        /* \"#utility.yul\":1516:1549   */\n      tag_251\n      jump\t// in\n    tag_268:\n        /* \"#utility.yul\":1568:1575   */\n      dup1\n        /* \"#utility.yul\":1558:1575   */\n      swap2\n      pop\n      pop\n        /* \"#utility.yul\":1193:1581   */\n      swap3\n      pop\n      swap3\n      swap1\n      pop\n      jump\t// out\n        /* \"#utility.yul\":1895:2013   */\n    tag_252:\n        /* \"#utility.yul\":1981:1986   */\n      dup1\n        /* \"#utility.yul\":1974:1987   */\n      iszero\n        /* \"#utility.yul\":1967:1988   */\n      iszero\n        /* \"#utility.yul\":1960:1965   */\n      dup2\n        /* \"#utility.yul\":1957:1989   */\n      eq\n        /* \"#utility.yul\":1947:2007   */\n      tag_256\n      jumpi\n        /* \"#utility.yul\":2003:2004   */\n      0x00\n        /* \"#utility.yul\":2000:2001   */\n      dup1\n        /* \"#utility.yul\":1993:2005   */\n      revert\n        /* \"#utility.yul\":2018:2400   */\n    tag_59:\n        /* \"#utility.yul\":2083:2089   */\n      0x00\n        /* \"#utility.yul\":2091:2097   */\n      dup1\n        /* \"#utility.yul\":2144:2146   */\n      0x40\n        /* \"#utility.yul\":2132:2141   */\n      dup4\n        /* \"#utility.yul\":2123:2130   */\n      dup6\n        /* \"#utility.yul\":2119:2142   */\n      sub\n        /* \"#utility.yul\":2115:2147   */\n      slt\n        /* \"#utility.yul\":2112:2164   */\n      iszero\n      tag_273\n      jumpi\n        /* \"#utility.yul\":2160:2161   */\n      0x00\n        /* \"#utility.yul\":2157:2158   */\n      dup1\n        /* \"#utility.yul\":2150:2162   */\n      revert\n        /* \"#utility.yul\":2112:2164   */\n    tag_273:\n        /* \"#utility.yul\":2199:2208   */\n      dup3\n        /* \"#utility.yul\":2186:2209   */\n      calldataload\n        /* \"#utility.yul\":2218:2249   */\n      tag_274\n        /* \"#utility.yul\":2243:2248   */\n      dup2\n        /* \"#utility.yul\":2218:2249   */\n      tag_251\n      jump\t// in\n    tag_274:\n        /* \"#utility.yul\":2268:2273   */\n      swap2\n      pop\n        /* \"#utility.yul\":2325:2327   */\n      0x20\n        /* \"#utility.yul\":2310:2328   */\n      dup4\n      add\n        /* \"#utility.yul\":2297:2329   */\n      calldataload\n        /* \"#utility.yul\":2338:2368   */\n      tag_268\n        /* \"#utility.yul\":2297:2329   */\n      dup2\n        /* \"#utility.yul\":2338:2368   */\n      tag_252\n      jump\t// in\n        /* \"#utility.yul\":2795:2975   */\n    tag_91:\n        /* \"#utility.yul\":2854:2860   */\n      0x00\n        /* \"#utility.yul\":2907:2909   */\n      0x20\n        /* \"#utility.yul\":2895:2904   */\n      dup3\n        /* \"#utility.yul\":2886:2893   */\n      dup5\n        /* \"#utility.yul\":2882:2905   */\n      sub\n        /* \"#utility.yul\":2878:2910   */\n      slt\n        /* \"#utility.yul\":2875:2927   */\n      iszero\n      tag_279\n      jumpi\n        /* \"#utility.yul\":2923:2924   */\n      0x00\n        /* \"#utility.yul\":2920:2921   */\n      dup1\n        /* \"#utility.yul\":2913:2925   */\n      revert\n        /* \"#utility.yul\":2875:2927   */\n    tag_279:\n      pop\n        /* \"#utility.yul\":2946:2969   */\n      calldataload\n      swap2\n        /* \"#utility.yul\":2795:2975   */\n      swap1\n      pop\n      jump\t// out\n        /* \"#utility.yul\":3233:3758   */\n    tag_123:\n        /* \"#utility.yul\":3319:3325   */\n      0x00\n        /* \"#utility.yul\":3327:3333   */\n      dup1\n        /* \"#utility.yul\":3335:3341   */\n      0x00\n        /* \"#utility.yul\":3343:3349   */\n      dup1\n        /* \"#utility.yul\":3396:3399   */\n      0x80\n        /* \"#utility.yul\":3384:3393   */\n      dup6\n        /* \"#utility.yul\":3375:3382   */\n      dup8\n        /* \"#utility.yul\":3371:3394   */\n      sub\n        /* \"#utility.yul\":3367:3400   */\n      slt\n        /* \"#utility.yul\":3364:3417   */\n      iszero\n      tag_282\n      jumpi\n        /* \"#utility.yul\":3413:3414   */\n      0x00\n        /* \"#utility.yul\":3410:3411   */\n      dup1\n        /* \"#utility.yul\":3403:3415   */\n      revert\n        /* \"#utility.yul\":3364:3417   */\n    tag_282:\n        /* \"#utility.yul\":3452:3461   */\n      dup5\n        /* \"#utility.yul\":3439:3462   */\n      calldataload\n        /* \"#utility.yul\":3471:3502   */\n      tag_283\n        /* \"#utility.yul\":3496:3501   */\n      dup2\n        /* \"#utility.yul\":3471:3502   */\n      tag_251\n      jump\t// in\n    tag_283:\n        /* \"#utility.yul\":3521:3526   */\n      swap4\n      pop\n        /* \"#utility.yul\":3573:3575   */\n      0x20\n        /* \"#utility.yul\":3558:3576   */\n      dup6\n      add\n        /* \"#utility.yul\":3545:3577   */\n      calldataload\n      swap3\n      pop\n        /* \"#utility.yul\":3624:3626   */\n      0x40\n        /* \"#utility.yul\":3609:3627   */\n      dup6\n      add\n        /* \"#utility.yul\":3596:3628   */\n      calldataload\n      swap2\n      pop\n        /* \"#utility.yul\":3680:3682   */\n      0x60\n        /* \"#utility.yul\":3665:3683   */\n      dup6\n      add\n        /* \"#utility.yul\":3652:3684   */\n      calldataload\n        /* \"#utility.yul\":3693:3726   */\n      tag_284\n        /* \"#utility.yul\":3652:3684   */\n      dup2\n        /* \"#utility.yul\":3693:3726   */\n      tag_251\n      jump\t// in\n    tag_284:\n        /* \"#utility.yul\":3233:3758   */\n      swap4\n      swap7\n      swap3\n      swap6\n      pop\n      swap1\n      swap4\n      pop\n      pop\n      jump\t// out\n        /* \"#utility.yul\":3763:4146   */\n    tag_129:\n        /* \"#utility.yul\":3840:3846   */\n      0x00\n        /* \"#utility.yul\":3848:3854   */\n      dup1\n        /* \"#utility.yul\":3856:3862   */\n      0x00\n        /* \"#utility.yul\":3909:3911   */\n      0x60\n        /* \"#utility.yul\":3897:3906   */\n      dup5\n        /* \"#utility.yul\":3888:3895   */\n      dup7\n        /* \"#utility.yul\":3884:3907   */\n      sub\n        /* \"#utility.yul\":3880:3912   */\n      slt\n        /* \"#utility.yul\":3877:3929   */\n      iszero\n      tag_286\n      jumpi\n        /* \"#utility.yul\":3925:3926   */\n      0x00\n        /* \"#utility.yul\":3922:3923   */\n      dup1\n        /* \"#utility.yul\":3915:3927   */\n      revert\n        /* \"#utility.yul\":3877:3929   */\n    tag_286:\n        /* \"#utility.yul\":3964:3973   */\n      dup4\n        /* \"#utility.yul\":3951:3974   */\n      calldataload\n        /* \"#utility.yul\":3983:4014   */\n      tag_287\n        /* \"#utility.yul\":4008:4013   */\n      dup2\n        /* \"#utility.yul\":3983:4014   */\n      tag_251\n      jump\t// in\n    tag_287:\n        /* \"#utility.yul\":4033:4038   */\n      swap6\n        /* \"#utility.yul\":4085:4087   */\n      0x20\n        /* \"#utility.yul\":4070:4088   */\n      dup6\n      add\n        /* \"#utility.yul\":4057:4089   */\n      calldataload\n      swap6\n      pop\n        /* \"#utility.yul\":4136:4138   */\n      0x40\n        /* \"#utility.yul\":4121:4139   */\n      swap1\n      swap5\n      add\n        /* \"#utility.yul\":4108:4140   */\n      calldataload\n      swap4\n        /* \"#utility.yul\":3763:4146   */\n      swap3\n      pop\n      pop\n      pop\n      jump\t// out\n        /* \"#utility.yul\":4151:4278   */\n    tag_253:\n        /* \"#utility.yul\":4212:4222   */\n      0x4e487b71\n        /* \"#utility.yul\":4207:4210   */\n      0xe0\n        /* \"#utility.yul\":4203:4223   */\n      shl\n        /* \"#utility.yul\":4200:4201   */\n      0x00\n        /* \"#utility.yul\":4193:4224   */\n      mstore\n        /* \"#utility.yul\":4243:4247   */\n      0x11\n        /* \"#utility.yul\":4240:4241   */\n      0x04\n        /* \"#utility.yul\":4233:4248   */\n      mstore\n        /* \"#utility.yul\":4267:4271   */\n      0x24\n        /* \"#utility.yul\":4264:4265   */\n      0x00\n        /* \"#utility.yul\":4257:4272   */\n      revert\n        /* \"#utility.yul\":4283:4418   */\n    tag_137:\n        /* \"#utility.yul\":4322:4325   */\n      0x00\n        /* \"#utility.yul\":4343:4360   */\n      0x01\n      dup3\n      add\n        /* \"#utility.yul\":4340:4383   */\n      tag_291\n      jumpi\n        /* \"#utility.yul\":4363:4381   */\n      tag_291\n      tag_253\n      jump\t// in\n    tag_291:\n      pop\n        /* \"#utility.yul\":4410:4411   */\n      0x01\n        /* \"#utility.yul\":4399:4412   */\n      add\n      swap1\n        /* \"#utility.yul\":4283:4418   */\n      jump\t// out\n        /* \"#utility.yul\":5405:5656   */\n    tag_165:\n        /* \"#utility.yul\":5475:5481   */\n      0x00\n        /* \"#utility.yul\":5528:5530   */\n      0x20\n        /* \"#utility.yul\":5516:5525   */\n      dup3\n        /* \"#utility.yul\":5507:5514   */\n      dup5\n        /* \"#utility.yul\":5503:5526   */\n      sub\n        /* \"#utility.yul\":5499:5531   */\n      slt\n        /* \"#utility.yul\":5496:5548   */\n      iszero\n      tag_296\n      jumpi\n        /* \"#utility.yul\":5544:5545   */\n      0x00\n        /* \"#utility.yul\":5541:5542   */\n      dup1\n        /* \"#utility.yul\":5534:5546   */\n      revert\n        /* \"#utility.yul\":5496:5548   */\n    tag_296:\n        /* \"#utility.yul\":5576:5585   */\n      dup2\n        /* \"#utility.yul\":5570:5586   */\n      mload\n        /* \"#utility.yul\":5595:5626   */\n      tag_259\n        /* \"#utility.yul\":5620:5625   */\n      dup2\n        /* \"#utility.yul\":5595:5626   */\n      tag_251\n      jump\t// in\n        /* \"#utility.yul\":6668:6913   */\n    tag_219:\n        /* \"#utility.yul\":6735:6741   */\n      0x00\n        /* \"#utility.yul\":6788:6790   */\n      0x20\n        /* \"#utility.yul\":6776:6785   */\n      dup3\n        /* \"#utility.yul\":6767:6774   */\n      dup5\n        /* \"#utility.yul\":6763:6786   */\n      sub\n        /* \"#utility.yul\":6759:6791   */\n      slt\n        /* \"#utility.yul\":6756:6808   */\n      iszero\n      tag_302\n      jumpi\n        /* \"#utility.yul\":6804:6805   */\n      0x00\n        /* \"#utility.yul\":6801:6802   */\n      dup1\n        /* \"#utility.yul\":6794:6806   */\n      revert\n        /* \"#utility.yul\":6756:6808   */\n    tag_302:\n        /* \"#utility.yul\":6836:6845   */\n      dup2\n        /* \"#utility.yul\":6830:6846   */\n      mload\n        /* \"#utility.yul\":6855:6883   */\n      tag_259\n        /* \"#utility.yul\":6877:6882   */\n      dup2\n        /* \"#utility.yul\":6855:6883   */\n      tag_252\n      jump\t// in\n        /* \"#utility.yul\":7268:7436   */\n    tag_236:\n        /* \"#utility.yul\":7341:7350   */\n      dup1\n      dup3\n      mul\n        /* \"#utility.yul\":7372:7381   */\n      dup2\n      iszero\n        /* \"#utility.yul\":7389:7404   */\n      dup3\n      dup3\n      div\n        /* \"#utility.yul\":7383:7405   */\n      dup5\n      eq\n        /* \"#utility.yul\":7369:7406   */\n      or\n        /* \"#utility.yul\":7359:7430   */\n      tag_307\n      jumpi\n        /* \"#utility.yul\":7410:7428   */\n      tag_307\n      tag_253\n      jump\t// in\n    tag_307:\n        /* \"#utility.yul\":7268:7436   */\n      swap3\n      swap2\n      pop\n      pop\n      jump\t// out\n        /* \"#utility.yul\":7441:7658   */\n    tag_238:\n        /* \"#utility.yul\":7481:7482   */\n      0x00\n        /* \"#utility.yul\":7507:7508   */\n      dup3\n        /* \"#utility.yul\":7497:7629   */\n      tag_309\n      jumpi\n        /* \"#utility.yul\":7551:7561   */\n      0x4e487b71\n        /* \"#utility.yul\":7546:7549   */\n      0xe0\n        /* \"#utility.yul\":7542:7562   */\n      shl\n        /* \"#utility.yul\":7539:7540   */\n      0x00\n        /* \"#utility.yul\":7532:7563   */\n      mstore\n        /* \"#utility.yul\":7586:7590   */\n      0x12\n        /* \"#utility.yul\":7583:7584   */\n      0x04\n        /* \"#utility.yul\":7576:7591   */\n      mstore\n        /* \"#utility.yul\":7614:7618   */\n      0x24\n        /* \"#utility.yul\":7611:7612   */\n      0x00\n        /* \"#utility.yul\":7604:7619   */\n      revert\n        /* \"#utility.yul\":7497:7629   */\n    tag_309:\n      pop\n        /* \"#utility.yul\":7643:7652   */\n      div\n      swap1\n        /* \"#utility.yul\":7441:7658   */\n      jump\t// out\n        /* \"#utility.yul\":7663:7791   */\n    tag_240:\n        /* \"#utility.yul\":7730:7739   */\n      dup2\n      dup2\n      sub\n        /* \"#utility.yul\":7751:7762   */\n      dup2\n      dup2\n      gt\n        /* \"#utility.yul\":7748:7785   */\n      iszero\n      tag_307\n      jumpi\n        /* \"#utility.yul\":7765:7783   */\n      tag_307\n      tag_253\n      jump\t// in\n\n    auxdata: 0xa26469706673582212203cd07ecd11b1e6c81942ef4cddc8f2fb9f07a8ced845b728fff12fa0676ef99e64736f6c63430008110033\n}\n",
				"bytecode": {
					"linkReferences": {},
					"object": "6080604052600780546001600160a01b03191673dac17f958d2ee523a2206206994597c13d831ec7179055678ac7230489e8000060085534801561004257600080fd5b50600080546001600160a01b03191633179055611145806100646000396000f3fe60806040526004361061012e5760003560e01c806390d49b9d116100ab578063dda4fa8f1161006f578063dda4fa8f14610365578063f1c0690614610385578063f25f4b561461039b578063f2fde38b146103bb578063f3a7cb61146103db578063fea54d06146103fb57600080fd5b806390d49b9d146102ba5780639ab4a445146102da578063c7e0af6a146102fa578063cd23e1471461032f578063d72b11bd1461034557600080fd5b806351295f01116100f257806351295f011461020957806355eba8681461022957806379ba50971461026157806381203d03146102765780638da5cb5b1461029a57600080fd5b80630536b7231461013a578063092a5cce1461017f57806315a0104514610196578063256c1ea3146101a9578063383fe467146101c957600080fd5b3661013557005b600080fd5b34801561014657600080fd5b5061016a610155366004610ed2565b60026020526000908152604090205460ff1681565b60405190151581526020015b60405180910390f35b34801561018b57600080fd5b5061019461041b565b005b61016a6101a4366004610ed2565b610435565b3480156101b557600080fd5b5061016a6101c4366004610ef6565b61052e565b3480156101d557600080fd5b506101e96101e4366004610f47565b6105fe565b604080516001600160a01b03938416815292909116602083015201610176565b34801561021557600080fd5b50610194610224366004610f8e565b6107af565b34801561023557600080fd5b50610249610244366004610ed2565b61081a565b6040516001600160a01b039091168152602001610176565b34801561026d57600080fd5b506101946108fa565b34801561028257600080fd5b5061028c60035481565b604051908152602001610176565b3480156102a657600080fd5b50600054610249906001600160a01b031681565b3480156102c657600080fd5b506101e96102d5366004610ed2565b610975565b3480156102e657600080fd5b50600754610249906001600160a01b031681565b34801561030657600080fd5b5061031a610315366004610fbc565b6109b7565b60408051928352602083019190915201610176565b34801561033b57600080fd5b5061028c60085481565b34801561035157600080fd5b50600654610249906001600160a01b031681565b34801561037157600080fd5b506101e9610380366004610ed2565b6109de565b34801561039157600080fd5b5061028c60045481565b3480156103a757600080fd5b50600554610249906001600160a01b031681565b3480156103c757600080fd5b506101946103d6366004610ed2565b610a20565b3480156103e757600080fd5b5061016a6103f6366004610fd5565b610a59565b34801561040757600080fd5b5061016a61041636600461101f565b610cd5565b6000546001600160a01b0316331461043257600080fd5b33ff5b60038054600091826104468361106a565b9091555034905060008061045983610db1565b6005546040519294509092506001600160a01b03169082156108fc029083906000818181858888f19350505050158015610497573d6000803e3d6000fd5b5060085447106104dc57600080546040516001600160a01b039091169184156108fc02918591818181858888f193505050501580156104da573d6000803e3d6000fd5b505b600354604080518481526001600160a01b03881660208201523392917f50ed54fdff2e8028310feac14aa2e8343c5eb6ab4fb192510bd3358cbe18fb1d910160405180910390a3506001949350505050565b3360009081526002602052604081205460ff1661058a5760405162461bcd60e51b815260206004820152601560248201527431b0b63632b91036bab9ba1031329039b4b3b732b960591b60448201526064015b60405180910390fd5b6000610597878787610de0565b509050856001600160a01b0316876001600160a01b0316857f227f62390ff31ea224acc601adb99ca571aafaeef45b6528a1f75af3fdee81b084876040516105e9929190918252602082015260400190565b60405180910390a45060019695505050505050565b6000805481906001600160a01b0316331461061857600080fd5b6001600160a01b0384161580159061063857506001600160a01b03831615155b61067f5760405162461bcd60e51b81526020600482015260186024820152771e995c9bc81859191c995cdcc81b9bdd08185b1b1bddd95960421b6044820152606401610581565b836001600160a01b0316638da5cb5b6040518163ffffffff1660e01b81526004016020604051808303816000875af11580156106bf573d6000803e3d6000fd5b505050506040513d601f19601f820116820180604052508101906106e39190611083565b60405163f2fde38b60e01b81526001600160a01b0385811660048301529193509085169063f2fde38b90602401600060405180830381600087803b15801561072a57600080fd5b505af115801561073e573d6000803e3d6000fd5b50505050836001600160a01b0316638da5cb5b6040518163ffffffff1660e01b81526004016020604051808303816000875af1158015610782573d6000803e3d6000fd5b505050506040513d601f19601f820116820180604052508101906107a69190611083565b90509250929050565b6000546001600160a01b031633146107c657600080fd5b6001600160a01b038216600081815260026020526040808220805460ff191685151590811790915590519092917ffcaa24b1276bfa7dbf77797c0a984b9df924acbeaabd48cd2f1b0eca379b78fa91a35050565b600080546001600160a01b0316331461083257600080fd5b6001600160a01b0382166108835760405162461bcd60e51b81526020600482015260186024820152771e995c9bc81859191c995cdcc81b9bdd08185b1b1bddd95960421b6044820152606401610581565b6007546001600160a01b03908116908316036108d75760405162461bcd60e51b815260206004820152601360248201527273616d65206173206f6c64206164647265737360681b6044820152606401610581565b50600780546001600160a01b039092166001600160a01b03199092168217905590565b6001546001600160a01b0316331461091157600080fd5b600154600080546040516001600160a01b0393841693909116917f8be0079c531659141344cd1fd0a4f28419497f9722a3daafe3b4186f6b6457e091a360018054600080546001600160a01b03199081166001600160a01b03841617909155169055565b6000805481906001600160a01b0316331461098f57600080fd5b5050600580546001600160a01b039283166001600160a01b0319821681179092559190911691565b6000805481906001600160a01b031633146109d157600080fd5b5050600880549082905591565b6000805481906001600160a01b031633146109f857600080fd5b5050600680546001600160a01b039283166001600160a01b0319821681179092559190911691565b6000546001600160a01b03163314610a3757600080fd5b600180546001600160a01b0319166001600160a01b0392909216919091179055565b6003805460009182610a6a8361106a565b91905055506000806000610a7d87610db1565b6007549093509091506001600160a01b0390811690891603610b76576040516323b872dd60e01b8152336004820152306024820152604481018890526001600160a01b038916906323b872dd90606401600060405180830381600087803b158015610ae757600080fd5b505af1158015610afb573d6000803e3d6000fd5b505060055460405163a9059cbb60e01b81526001600160a01b03918216600482015260248101869052908b16925063a9059cbb9150604401600060405180830381600087803b158015610b4d57600080fd5b505af1158015610b61573d6000803e3d6000fd5b50505050610b6f8882610e50565b9250610c73565b6040516323b872dd60e01b8152336004820152306024820152604481018890526001600160a01b038916906323b872dd906064016020604051808303816000875af1158015610bc9573d6000803e3d6000fd5b505050506040513d601f19601f82011682018060405250810190610bed91906110a0565b5060055460405163a9059cbb60e01b81526001600160a01b039182166004820152602481018490529089169063a9059cbb906044016020604051808303816000875af1158015610c41573d6000803e3d6000fd5b505050506040513d601f19601f82011682018060405250810190610c6591906110a0565b50610c708882610e50565b92505b60035460408051898152602081018990526001600160a01b038881168284015291513393928c1692917f8a9f5b93a9427ed2074a269336914d74d6b34dfe5679f30c5cf172f5842aa795919081900360600190a4506001979650505050505050565b3360009081526002602052604081205460ff16610d2c5760405162461bcd60e51b815260206004820152601560248201527431b0b63632b91036bab9ba1031329039b4b3b732b960591b6044820152606401610581565b6040516001600160a01b0385169084156108fc029085906000818181858888f19350505050158015610d62573d6000803e3d6000fd5b50836001600160a01b0316827f9651479651fe91907cee7de24a0e47091421878d660c93c6fe0d04c7b7b2404b85604051610d9f91815260200190565b60405180910390a35060019392505050565b600080612710610dc3846101f46110bd565b610dcd91906110da565b9050610dd981846110fc565b9150915091565b6040516340c10f1960e01b81526001600160a01b0383811660048301526024820183905260009182918616906340c10f1990604401600060405180830381600087803b158015610e2f57600080fd5b505af1158015610e43573d6000803e3d6000fd5b5094979596505050505050565b604051632770a7eb60e21b8152306004820152602481018290526000906001600160a01b03841690639dc29fac90604401600060405180830381600087803b158015610e9b57600080fd5b505af1158015610eaf573d6000803e3d6000fd5b509395945050505050565b6001600160a01b0381168114610ecf57600080fd5b50565b600060208284031215610ee457600080fd5b8135610eef81610eba565b9392505050565b600080600080600060a08688031215610f0e57600080fd5b8535610f1981610eba565b94506020860135610f2981610eba565b94979496505050506040830135926060810135926080909101359150565b60008060408385031215610f5a57600080fd5b8235610f6581610eba565b91506020830135610f7581610eba565b809150509250929050565b8015158114610ecf57600080fd5b60008060408385031215610fa157600080fd5b8235610fac81610eba565b91506020830135610f7581610f80565b600060208284031215610fce57600080fd5b5035919050565b60008060008060808587031215610feb57600080fd5b8435610ff681610eba565b93506020850135925060408501359150606085013561101481610eba565b939692955090935050565b60008060006060848603121561103457600080fd5b833561103f81610eba565b95602085013595506040909401359392505050565b634e487b7160e01b600052601160045260246000fd5b60006001820161107c5761107c611054565b5060010190565b60006020828403121561109557600080fd5b8151610eef81610eba565b6000602082840312156110b257600080fd5b8151610eef81610f80565b80820281158282048414176110d4576110d4611054565b92915050565b6000826110f757634e487b7160e01b600052601260045260246000fd5b500490565b818103818111156110d4576110d461105456fea26469706673582212203cd07ecd11b1e6c81942ef4cddc8f2fb9f07a8ced845b728fff12fa0676ef99e64736f6c63430008110033",
					"opcodes": "PUSH1 0x80 PUSH1 0x40 MSTORE PUSH1 0x7 DUP1 SLOAD PUSH1 0x1 PUSH1 0x1 PUSH1 0xA0 SHL SUB NOT AND PUSH20 0xDAC17F958D2EE523A2206206994597C13D831EC7 OR SWAP1 SSTORE PUSH8 0x8AC7230489E80000 PUSH1 0x8 SSTORE CALLVALUE DUP1 ISZERO PUSH2 0x42 JUMPI PUSH1 0x0 DUP1 REVERT JUMPDEST POP PUSH1 0x0 DUP1 SLOAD PUSH1 0x1 PUSH1 0x1 PUSH1 0xA0 SHL SUB NOT AND CALLER OR SWAP1 SSTORE PUSH2 0x1145 DUP1 PUSH2 0x64 PUSH1 0x0 CODECOPY PUSH1 0x0 RETURN INVALID PUSH1 0x80 PUSH1 0x40 MSTORE PUSH1 0x4 CALLDATASIZE LT PUSH2 0x12E JUMPI PUSH1 0x0 CALLDATALOAD PUSH1 0xE0 SHR DUP1 PUSH4 0x90D49B9D GT PUSH2 0xAB JUMPI DUP1 PUSH4 0xDDA4FA8F GT PUSH2 0x6F JUMPI DUP1 PUSH4 0xDDA4FA8F EQ PUSH2 0x365 JUMPI DUP1 PUSH4 0xF1C06906 EQ PUSH2 0x385 JUMPI DUP1 PUSH4 0xF25F4B56 EQ PUSH2 0x39B JUMPI DUP1 PUSH4 0xF2FDE38B EQ PUSH2 0x3BB JUMPI DUP1 PUSH4 0xF3A7CB61 EQ PUSH2 0x3DB JUMPI DUP1 PUSH4 0xFEA54D06 EQ PUSH2 0x3FB JUMPI PUSH1 0x0 DUP1 REVERT JUMPDEST DUP1 PUSH4 0x90D49B9D EQ PUSH2 0x2BA JUMPI DUP1 PUSH4 0x9AB4A445 EQ PUSH2 0x2DA JUMPI DUP1 PUSH4 0xC7E0AF6A EQ PUSH2 0x2FA JUMPI DUP1 PUSH4 0xCD23E147 EQ PUSH2 0x32F JUMPI DUP1 PUSH4 0xD72B11BD EQ PUSH2 0x345 JUMPI PUSH1 0x0 DUP1 REVERT JUMPDEST DUP1 PUSH4 0x51295F01 GT PUSH2 0xF2 JUMPI DUP1 PUSH4 0x51295F01 EQ PUSH2 0x209 JUMPI DUP1 PUSH4 0x55EBA868 EQ PUSH2 0x229 JUMPI DUP1 PUSH4 0x79BA5097 EQ PUSH2 0x261 JUMPI DUP1 PUSH4 0x81203D03 EQ PUSH2 0x276 JUMPI DUP1 PUSH4 0x8DA5CB5B EQ PUSH2 0x29A JUMPI PUSH1 0x0 DUP1 REVERT JUMPDEST DUP1 PUSH4 0x536B723 EQ PUSH2 0x13A JUMPI DUP1 PUSH4 0x92A5CCE EQ PUSH2 0x17F JUMPI DUP1 PUSH4 0x15A01045 EQ PUSH2 0x196 JUMPI DUP1 PUSH4 0x256C1EA3 EQ PUSH2 0x1A9 JUMPI DUP1 PUSH4 0x383FE467 EQ PUSH2 0x1C9 JUMPI PUSH1 0x0 DUP1 REVERT JUMPDEST CALLDATASIZE PUSH2 0x135 JUMPI STOP JUMPDEST PUSH1 0x0 DUP1 REVERT JUMPDEST CALLVALUE DUP1 ISZERO PUSH2 0x146 JUMPI PUSH1 0x0 DUP1 REVERT JUMPDEST POP PUSH2 0x16A PUSH2 0x155 CALLDATASIZE PUSH1 0x4 PUSH2 0xED2 JUMP JUMPDEST PUSH1 0x2 PUSH1 0x20 MSTORE PUSH1 0x0 SWAP1 DUP2 MSTORE PUSH1 0x40 SWAP1 KECCAK256 SLOAD PUSH1 0xFF AND DUP2 JUMP JUMPDEST PUSH1 0x40 MLOAD SWAP1 ISZERO ISZERO DUP2 MSTORE PUSH1 0x20 ADD JUMPDEST PUSH1 0x40 MLOAD DUP1 SWAP2 SUB SWAP1 RETURN JUMPDEST CALLVALUE DUP1 ISZERO PUSH2 0x18B JUMPI PUSH1 0x0 DUP1 REVERT JUMPDEST POP PUSH2 0x194 PUSH2 0x41B JUMP JUMPDEST STOP JUMPDEST PUSH2 0x16A PUSH2 0x1A4 CALLDATASIZE PUSH1 0x4 PUSH2 0xED2 JUMP JUMPDEST PUSH2 0x435 JUMP JUMPDEST CALLVALUE DUP1 ISZERO PUSH2 0x1B5 JUMPI PUSH1 0x0 DUP1 REVERT JUMPDEST POP PUSH2 0x16A PUSH2 0x1C4 CALLDATASIZE PUSH1 0x4 PUSH2 0xEF6 JUMP JUMPDEST PUSH2 0x52E JUMP JUMPDEST CALLVALUE DUP1 ISZERO PUSH2 0x1D5 JUMPI PUSH1 0x0 DUP1 REVERT JUMPDEST POP PUSH2 0x1E9 PUSH2 0x1E4 CALLDATASIZE PUSH1 0x4 PUSH2 0xF47 JUMP JUMPDEST PUSH2 0x5FE JUMP JUMPDEST PUSH1 0x40 DUP1 MLOAD PUSH1 0x1 PUSH1 0x1 PUSH1 0xA0 SHL SUB SWAP4 DUP5 AND DUP2 MSTORE SWAP3 SWAP1 SWAP2 AND PUSH1 0x20 DUP4 ADD MSTORE ADD PUSH2 0x176 JUMP JUMPDEST CALLVALUE DUP1 ISZERO PUSH2 0x215 JUMPI PUSH1 0x0 DUP1 REVERT JUMPDEST POP PUSH2 0x194 PUSH2 0x224 CALLDATASIZE PUSH1 0x4 PUSH2 0xF8E JUMP JUMPDEST PUSH2 0x7AF JUMP JUMPDEST CALLVALUE DUP1 ISZERO PUSH2 0x235 JUMPI PUSH1 0x0 DUP1 REVERT JUMPDEST POP PUSH2 0x249 PUSH2 0x244 CALLDATASIZE PUSH1 0x4 PUSH2 0xED2 JUMP JUMPDEST PUSH2 0x81A JUMP JUMPDEST PUSH1 0x40 MLOAD PUSH1 0x1 PUSH1 0x1 PUSH1 0xA0 SHL SUB SWAP1 SWAP2 AND DUP2 MSTORE PUSH1 0x20 ADD PUSH2 0x176 JUMP JUMPDEST CALLVALUE DUP1 ISZERO PUSH2 0x26D JUMPI PUSH1 0x0 DUP1 REVERT JUMPDEST POP PUSH2 0x194 PUSH2 0x8FA JUMP JUMPDEST CALLVALUE DUP1 ISZERO PUSH2 0x282 JUMPI PUSH1 0x0 DUP1 REVERT JUMPDEST POP PUSH2 0x28C PUSH1 0x3 SLOAD DUP2 JUMP JUMPDEST PUSH1 0x40 MLOAD SWAP1 DUP2 MSTORE PUSH1 0x20 ADD PUSH2 0x176 JUMP JUMPDEST CALLVALUE DUP1 ISZERO PUSH2 0x2A6 JUMPI PUSH1 0x0 DUP1 REVERT JUMPDEST POP PUSH1 0x0 SLOAD PUSH2 0x249 SWAP1 PUSH1 0x1 PUSH1 0x1 PUSH1 0xA0 SHL SUB AND DUP2 JUMP JUMPDEST CALLVALUE DUP1 ISZERO PUSH2 0x2C6 JUMPI PUSH1 0x0 DUP1 REVERT JUMPDEST POP PUSH2 0x1E9 PUSH2 0x2D5 CALLDATASIZE PUSH1 0x4 PUSH2 0xED2 JUMP JUMPDEST PUSH2 0x975 JUMP JUMPDEST CALLVALUE DUP1 ISZERO PUSH2 0x2E6 JUMPI PUSH1 0x0 DUP1 REVERT JUMPDEST POP PUSH1 0x7 SLOAD PUSH2 0x249 SWAP1 PUSH1 0x1 PUSH1 0x1 PUSH1 0xA0 SHL SUB AND DUP2 JUMP JUMPDEST CALLVALUE DUP1 ISZERO PUSH2 0x306 JUMPI PUSH1 0x0 DUP1 REVERT JUMPDEST POP PUSH2 0x31A PUSH2 0x315 CALLDATASIZE PUSH1 0x4 PUSH2 0xFBC JUMP JUMPDEST PUSH2 0x9B7 JUMP JUMPDEST PUSH1 0x40 DUP1 MLOAD SWAP3 DUP4 MSTORE PUSH1 0x20 DUP4 ADD SWAP2 SWAP1 SWAP2 MSTORE ADD PUSH2 0x176 JUMP JUMPDEST CALLVALUE DUP1 ISZERO PUSH2 0x33B JUMPI PUSH1 0x0 DUP1 REVERT JUMPDEST POP PUSH2 0x28C PUSH1 0x8 SLOAD DUP2 JUMP JUMPDEST CALLVALUE DUP1 ISZERO PUSH2 0x351 JUMPI PUSH1 0x0 DUP1 REVERT JUMPDEST POP PUSH1 0x6 SLOAD PUSH2 0x249 SWAP1 PUSH1 0x1 PUSH1 0x1 PUSH1 0xA0 SHL SUB AND DUP2 JUMP JUMPDEST CALLVALUE DUP1 ISZERO PUSH2 0x371 JUMPI PUSH1 0x0 DUP1 REVERT JUMPDEST POP PUSH2 0x1E9 PUSH2 0x380 CALLDATASIZE PUSH1 0x4 PUSH2 0xED2 JUMP JUMPDEST PUSH2 0x9DE JUMP JUMPDEST CALLVALUE DUP1 ISZERO PUSH2 0x391 JUMPI PUSH1 0x0 DUP1 REVERT JUMPDEST POP PUSH2 0x28C PUSH1 0x4 SLOAD DUP2 JUMP JUMPDEST CALLVALUE DUP1 ISZERO PUSH2 0x3A7 JUMPI PUSH1 0x0 DUP1 REVERT JUMPDEST POP PUSH1 0x5 SLOAD PUSH2 0x249 SWAP1 PUSH1 0x1 PUSH1 0x1 PUSH1 0xA0 SHL SUB AND DUP2 JUMP JUMPDEST CALLVALUE DUP1 ISZERO PUSH2 0x3C7 JUMPI PUSH1 0x0 DUP1 REVERT JUMPDEST POP PUSH2 0x194 PUSH2 0x3D6 CALLDATASIZE PUSH1 0x4 PUSH2 0xED2 JUMP JUMPDEST PUSH2 0xA20 JUMP JUMPDEST CALLVALUE DUP1 ISZERO PUSH2 0x3E7 JUMPI PUSH1 0x0 DUP1 REVERT JUMPDEST POP PUSH2 0x16A PUSH2 0x3F6 CALLDATASIZE PUSH1 0x4 PUSH2 0xFD5 JUMP JUMPDEST PUSH2 0xA59 JUMP JUMPDEST CALLVALUE DUP1 ISZERO PUSH2 0x407 JUMPI PUSH1 0x0 DUP1 REVERT JUMPDEST POP PUSH2 0x16A PUSH2 0x416 CALLDATASIZE PUSH1 0x4 PUSH2 0x101F JUMP JUMPDEST PUSH2 0xCD5 JUMP JUMPDEST PUSH1 0x0 SLOAD PUSH1 0x1 PUSH1 0x1 PUSH1 0xA0 SHL SUB AND CALLER EQ PUSH2 0x432 JUMPI PUSH1 0x0 DUP1 REVERT JUMPDEST CALLER SELFDESTRUCT JUMPDEST PUSH1 0x3 DUP1 SLOAD PUSH1 0x0 SWAP2 DUP3 PUSH2 0x446 DUP4 PUSH2 0x106A JUMP JUMPDEST SWAP1 SWAP2 SSTORE POP CALLVALUE SWAP1 POP PUSH1 0x0 DUP1 PUSH2 0x459 DUP4 PUSH2 0xDB1 JUMP JUMPDEST PUSH1 0x5 SLOAD PUSH1 0x40 MLOAD SWAP3 SWAP5 POP SWAP1 SWAP3 POP PUSH1 0x1 PUSH1 0x1 PUSH1 0xA0 SHL SUB AND SWAP1 DUP3 ISZERO PUSH2 0x8FC MUL SWAP1 DUP4 SWAP1 PUSH1 0x0 DUP2 DUP2 DUP2 DUP6 DUP9 DUP9 CALL SWAP4 POP POP POP POP ISZERO DUP1 ISZERO PUSH2 0x497 JUMPI RETURNDATASIZE PUSH1 0x0 DUP1 RETURNDATACOPY RETURNDATASIZE PUSH1 0x0 REVERT JUMPDEST POP PUSH1 0x8 SLOAD SELFBALANCE LT PUSH2 0x4DC JUMPI PUSH1 0x0 DUP1 SLOAD PUSH1 0x40 MLOAD PUSH1 0x1 PUSH1 0x1 PUSH1 0xA0 SHL SUB SWAP1 SWAP2 AND SWAP2 DUP5 ISZERO PUSH2 0x8FC MUL SWAP2 DUP6 SWAP2 DUP2 DUP2 DUP2 DUP6 DUP9 DUP9 CALL SWAP4 POP POP POP POP ISZERO DUP1 ISZERO PUSH2 0x4DA JUMPI RETURNDATASIZE PUSH1 0x0 DUP1 RETURNDATACOPY RETURNDATASIZE PUSH1 0x0 REVERT JUMPDEST POP JUMPDEST PUSH1 0x3 SLOAD PUSH1 0x40 DUP1 MLOAD DUP5 DUP2 MSTORE PUSH1 0x1 PUSH1 0x1 PUSH1 0xA0 SHL SUB DUP9 AND PUSH1 0x20 DUP3 ADD MSTORE CALLER SWAP3 SWAP2 PUSH32 0x50ED54FDFF2E8028310FEAC14AA2E8343C5EB6AB4FB192510BD3358CBE18FB1D SWAP2 ADD PUSH1 0x40 MLOAD DUP1 SWAP2 SUB SWAP1 LOG3 POP PUSH1 0x1 SWAP5 SWAP4 POP POP POP POP JUMP JUMPDEST CALLER PUSH1 0x0 SWAP1 DUP2 MSTORE PUSH1 0x2 PUSH1 0x20 MSTORE PUSH1 0x40 DUP2 KECCAK256 SLOAD PUSH1 0xFF AND PUSH2 0x58A JUMPI PUSH1 0x40 MLOAD PUSH3 0x461BCD PUSH1 0xE5 SHL DUP2 MSTORE PUSH1 0x20 PUSH1 0x4 DUP3 ADD MSTORE PUSH1 0x15 PUSH1 0x24 DUP3 ADD MSTORE PUSH21 0x31B0B63632B91036BAB9BA1031329039B4B3B732B9 PUSH1 0x59 SHL PUSH1 0x44 DUP3 ADD MSTORE PUSH1 0x64 ADD JUMPDEST PUSH1 0x40 MLOAD DUP1 SWAP2 SUB SWAP1 REVERT JUMPDEST PUSH1 0x0 PUSH2 0x597 DUP8 DUP8 DUP8 PUSH2 0xDE0 JUMP JUMPDEST POP SWAP1 POP DUP6 PUSH1 0x1 PUSH1 0x1 PUSH1 0xA0 SHL SUB AND DUP8 PUSH1 0x1 PUSH1 0x1 PUSH1 0xA0 SHL SUB AND DUP6 PUSH32 0x227F62390FF31EA224ACC601ADB99CA571AAFAEEF45B6528A1F75AF3FDEE81B0 DUP5 DUP8 PUSH1 0x40 MLOAD PUSH2 0x5E9 SWAP3 SWAP2 SWAP1 SWAP2 DUP3 MSTORE PUSH1 0x20 DUP3 ADD MSTORE PUSH1 0x40 ADD SWAP1 JUMP JUMPDEST PUSH1 0x40 MLOAD DUP1 SWAP2 SUB SWAP1 LOG4 POP PUSH1 0x1 SWAP7 SWAP6 POP POP POP POP POP POP JUMP JUMPDEST PUSH1 0x0 DUP1 SLOAD DUP2 SWAP1 PUSH1 0x1 PUSH1 0x1 PUSH1 0xA0 SHL SUB AND CALLER EQ PUSH2 0x618 JUMPI PUSH1 0x0 DUP1 REVERT JUMPDEST PUSH1 0x1 PUSH1 0x1 PUSH1 0xA0 SHL SUB DUP5 AND ISZERO DUP1 ISZERO SWAP1 PUSH2 0x638 JUMPI POP PUSH1 0x1 PUSH1 0x1 PUSH1 0xA0 SHL SUB DUP4 AND ISZERO ISZERO JUMPDEST PUSH2 0x67F JUMPI PUSH1 0x40 MLOAD PUSH3 0x461BCD PUSH1 0xE5 SHL DUP2 MSTORE PUSH1 0x20 PUSH1 0x4 DUP3 ADD MSTORE PUSH1 0x18 PUSH1 0x24 DUP3 ADD MSTORE PUSH24 0x1E995C9BC81859191C995CDCC81B9BDD08185B1B1BDDD959 PUSH1 0x42 SHL PUSH1 0x44 DUP3 ADD MSTORE PUSH1 0x64 ADD PUSH2 0x581 JUMP JUMPDEST DUP4 PUSH1 0x1 PUSH1 0x1 PUSH1 0xA0 SHL SUB AND PUSH4 0x8DA5CB5B PUSH1 0x40 MLOAD DUP2 PUSH4 0xFFFFFFFF AND PUSH1 0xE0 SHL DUP2 MSTORE PUSH1 0x4 ADD PUSH1 0x20 PUSH1 0x40 MLOAD DUP1 DUP4 SUB DUP2 PUSH1 0x0 DUP8 GAS CALL ISZERO DUP1 ISZERO PUSH2 0x6BF JUMPI RETURNDATASIZE PUSH1 0x0 DUP1 RETURNDATACOPY RETURNDATASIZE PUSH1 0x0 REVERT JUMPDEST POP POP POP POP PUSH1 0x40 MLOAD RETURNDATASIZE PUSH1 0x1F NOT PUSH1 0x1F DUP3 ADD AND DUP3 ADD DUP1 PUSH1 0x40 MSTORE POP DUP2 ADD SWAP1 PUSH2 0x6E3 SWAP2 SWAP1 PUSH2 0x1083 JUMP JUMPDEST PUSH1 0x40 MLOAD PUSH4 0xF2FDE38B PUSH1 0xE0 SHL DUP2 MSTORE PUSH1 0x1 PUSH1 0x1 PUSH1 0xA0 SHL SUB DUP6 DUP2 AND PUSH1 0x4 DUP4 ADD MSTORE SWAP2 SWAP4 POP SWAP1 DUP6 AND SWAP1 PUSH4 0xF2FDE38B SWAP1 PUSH1 0x24 ADD PUSH1 0x0 PUSH1 0x40 MLOAD DUP1 DUP4 SUB DUP2 PUSH1 0x0 DUP8 DUP1 EXTCODESIZE ISZERO DUP1 ISZERO PUSH2 0x72A JUMPI PUSH1 0x0 DUP1 REVERT JUMPDEST POP GAS CALL ISZERO DUP1 ISZERO PUSH2 0x73E JUMPI RETURNDATASIZE PUSH1 0x0 DUP1 RETURNDATACOPY RETURNDATASIZE PUSH1 0x0 REVERT JUMPDEST POP POP POP POP DUP4 PUSH1 0x1 PUSH1 0x1 PUSH1 0xA0 SHL SUB AND PUSH4 0x8DA5CB5B PUSH1 0x40 MLOAD DUP2 PUSH4 0xFFFFFFFF AND PUSH1 0xE0 SHL DUP2 MSTORE PUSH1 0x4 ADD PUSH1 0x20 PUSH1 0x40 MLOAD DUP1 DUP4 SUB DUP2 PUSH1 0x0 DUP8 GAS CALL ISZERO DUP1 ISZERO PUSH2 0x782 JUMPI RETURNDATASIZE PUSH1 0x0 DUP1 RETURNDATACOPY RETURNDATASIZE PUSH1 0x0 REVERT JUMPDEST POP POP POP POP PUSH1 0x40 MLOAD RETURNDATASIZE PUSH1 0x1F NOT PUSH1 0x1F DUP3 ADD AND DUP3 ADD DUP1 PUSH1 0x40 MSTORE POP DUP2 ADD SWAP1 PUSH2 0x7A6 SWAP2 SWAP1 PUSH2 0x1083 JUMP JUMPDEST SWAP1 POP SWAP3 POP SWAP3 SWAP1 POP JUMP JUMPDEST PUSH1 0x0 SLOAD PUSH1 0x1 PUSH1 0x1 PUSH1 0xA0 SHL SUB AND CALLER EQ PUSH2 0x7C6 JUMPI PUSH1 0x0 DUP1 REVERT JUMPDEST PUSH1 0x1 PUSH1 0x1 PUSH1 0xA0 SHL SUB DUP3 AND PUSH1 0x0 DUP2 DUP2 MSTORE PUSH1 0x2 PUSH1 0x20 MSTORE PUSH1 0x40 DUP1 DUP3 KECCAK256 DUP1 SLOAD PUSH1 0xFF NOT AND DUP6 ISZERO ISZERO SWAP1 DUP2 OR SWAP1 SWAP2 SSTORE SWAP1 MLOAD SWAP1 SWAP3 SWAP2 PUSH32 0xFCAA24B1276BFA7DBF77797C0A984B9DF924ACBEAABD48CD2F1B0ECA379B78FA SWAP2 LOG3 POP POP JUMP JUMPDEST PUSH1 0x0 DUP1 SLOAD PUSH1 0x1 PUSH1 0x1 PUSH1 0xA0 SHL SUB AND CALLER EQ PUSH2 0x832 JUMPI PUSH1 0x0 DUP1 REVERT JUMPDEST PUSH1 0x1 PUSH1 0x1 PUSH1 0xA0 SHL SUB DUP3 AND PUSH2 0x883 JUMPI PUSH1 0x40 MLOAD PUSH3 0x461BCD PUSH1 0xE5 SHL DUP2 MSTORE PUSH1 0x20 PUSH1 0x4 DUP3 ADD MSTORE PUSH1 0x18 PUSH1 0x24 DUP3 ADD MSTORE PUSH24 0x1E995C9BC81859191C995CDCC81B9BDD08185B1B1BDDD959 PUSH1 0x42 SHL PUSH1 0x44 DUP3 ADD MSTORE PUSH1 0x64 ADD PUSH2 0x581 JUMP JUMPDEST PUSH1 0x7 SLOAD PUSH1 0x1 PUSH1 0x1 PUSH1 0xA0 SHL SUB SWAP1 DUP2 AND SWAP1 DUP4 AND SUB PUSH2 0x8D7 JUMPI PUSH1 0x40 MLOAD PUSH3 0x461BCD PUSH1 0xE5 SHL DUP2 MSTORE PUSH1 0x20 PUSH1 0x4 DUP3 ADD MSTORE PUSH1 0x13 PUSH1 0x24 DUP3 ADD MSTORE PUSH19 0x73616D65206173206F6C642061646472657373 PUSH1 0x68 SHL PUSH1 0x44 DUP3 ADD MSTORE PUSH1 0x64 ADD PUSH2 0x581 JUMP JUMPDEST POP PUSH1 0x7 DUP1 SLOAD PUSH1 0x1 PUSH1 0x1 PUSH1 0xA0 SHL SUB SWAP1 SWAP3 AND PUSH1 0x1 PUSH1 0x1 PUSH1 0xA0 SHL SUB NOT SWAP1 SWAP3 AND DUP3 OR SWAP1 SSTORE SWAP1 JUMP JUMPDEST PUSH1 0x1 SLOAD PUSH1 0x1 PUSH1 0x1 PUSH1 0xA0 SHL SUB AND CALLER EQ PUSH2 0x911 JUMPI PUSH1 0x0 DUP1 REVERT JUMPDEST PUSH1 0x1 SLOAD PUSH1 0x0 DUP1 SLOAD PUSH1 0x40 MLOAD PUSH1 0x1 PUSH1 0x1 PUSH1 0xA0 SHL SUB SWAP4 DUP5 AND SWAP4 SWAP1 SWAP2 AND SWAP2 PUSH32 0x8BE0079C531659141344CD1FD0A4F28419497F9722A3DAAFE3B4186F6B6457E0 SWAP2 LOG3 PUSH1 0x1 DUP1 SLOAD PUSH1 0x0 DUP1 SLOAD PUSH1 0x1 PUSH1 0x1 PUSH1 0xA0 SHL SUB NOT SWAP1 DUP2 AND PUSH1 0x1 PUSH1 0x1 PUSH1 0xA0 SHL SUB DUP5 AND OR SWAP1 SWAP2 SSTORE AND SWAP1 SSTORE JUMP JUMPDEST PUSH1 0x0 DUP1 SLOAD DUP2 SWAP1 PUSH1 0x1 PUSH1 0x1 PUSH1 0xA0 SHL SUB AND CALLER EQ PUSH2 0x98F JUMPI PUSH1 0x0 DUP1 REVERT JUMPDEST POP POP PUSH1 0x5 DUP1 SLOAD PUSH1 0x1 PUSH1 0x1 PUSH1 0xA0 SHL SUB SWAP3 DUP4 AND PUSH1 0x1 PUSH1 0x1 PUSH1 0xA0 SHL SUB NOT DUP3 AND DUP2 OR SWAP1 SWAP3 SSTORE SWAP2 SWAP1 SWAP2 AND SWAP2 JUMP JUMPDEST PUSH1 0x0 DUP1 SLOAD DUP2 SWAP1 PUSH1 0x1 PUSH1 0x1 PUSH1 0xA0 SHL SUB AND CALLER EQ PUSH2 0x9D1 JUMPI PUSH1 0x0 DUP1 REVERT JUMPDEST POP POP PUSH1 0x8 DUP1 SLOAD SWAP1 DUP3 SWAP1 SSTORE SWAP2 JUMP JUMPDEST PUSH1 0x0 DUP1 SLOAD DUP2 SWAP1 PUSH1 0x1 PUSH1 0x1 PUSH1 0xA0 SHL SUB AND CALLER EQ PUSH2 0x9F8 JUMPI PUSH1 0x0 DUP1 REVERT JUMPDEST POP POP PUSH1 0x6 DUP1 SLOAD PUSH1 0x1 PUSH1 0x1 PUSH1 0xA0 SHL SUB SWAP3 DUP4 AND PUSH1 0x1 PUSH1 0x1 PUSH1 0xA0 SHL SUB NOT DUP3 AND DUP2 OR SWAP1 SWAP3 SSTORE SWAP2 SWAP1 SWAP2 AND SWAP2 JUMP JUMPDEST PUSH1 0x0 SLOAD PUSH1 0x1 PUSH1 0x1 PUSH1 0xA0 SHL SUB AND CALLER EQ PUSH2 0xA37 JUMPI PUSH1 0x0 DUP1 REVERT JUMPDEST PUSH1 0x1 DUP1 SLOAD PUSH1 0x1 PUSH1 0x1 PUSH1 0xA0 SHL SUB NOT AND PUSH1 0x1 PUSH1 0x1 PUSH1 0xA0 SHL SUB SWAP3 SWAP1 SWAP3 AND SWAP2 SWAP1 SWAP2 OR SWAP1 SSTORE JUMP JUMPDEST PUSH1 0x3 DUP1 SLOAD PUSH1 0x0 SWAP2 DUP3 PUSH2 0xA6A DUP4 PUSH2 0x106A JUMP JUMPDEST SWAP2 SWAP1 POP SSTORE POP PUSH1 0x0 DUP1 PUSH1 0x0 PUSH2 0xA7D DUP8 PUSH2 0xDB1 JUMP JUMPDEST PUSH1 0x7 SLOAD SWAP1 SWAP4 POP SWAP1 SWAP2 POP PUSH1 0x1 PUSH1 0x1 PUSH1 0xA0 SHL SUB SWAP1 DUP2 AND SWAP1 DUP10 AND SUB PUSH2 0xB76 JUMPI PUSH1 0x40 MLOAD PUSH4 0x23B872DD PUSH1 0xE0 SHL DUP2 MSTORE CALLER PUSH1 0x4 DUP3 ADD MSTORE ADDRESS PUSH1 0x24 DUP3 ADD MSTORE PUSH1 0x44 DUP2 ADD DUP9 SWAP1 MSTORE PUSH1 0x1 PUSH1 0x1 PUSH1 0xA0 SHL SUB DUP10 AND SWAP1 PUSH4 0x23B872DD SWAP1 PUSH1 0x64 ADD PUSH1 0x0 PUSH1 0x40 MLOAD DUP1 DUP4 SUB DUP2 PUSH1 0x0 DUP8 DUP1 EXTCODESIZE ISZERO DUP1 ISZERO PUSH2 0xAE7 JUMPI PUSH1 0x0 DUP1 REVERT JUMPDEST POP GAS CALL ISZERO DUP1 ISZERO PUSH2 0xAFB JUMPI RETURNDATASIZE PUSH1 0x0 DUP1 RETURNDATACOPY RETURNDATASIZE PUSH1 0x0 REVERT JUMPDEST POP POP PUSH1 0x5 SLOAD PUSH1 0x40 MLOAD PUSH4 0xA9059CBB PUSH1 0xE0 SHL DUP2 MSTORE PUSH1 0x1 PUSH1 0x1 PUSH1 0xA0 SHL SUB SWAP2 DUP3 AND PUSH1 0x4 DUP3 ADD MSTORE PUSH1 0x24 DUP2 ADD DUP7 SWAP1 MSTORE SWAP1 DUP12 AND SWAP3 POP PUSH4 0xA9059CBB SWAP2 POP PUSH1 0x44 ADD PUSH1 0x0 PUSH1 0x40 MLOAD DUP1 DUP4 SUB DUP2 PUSH1 0x0 DUP8 DUP1 EXTCODESIZE ISZERO DUP1 ISZERO PUSH2 0xB4D JUMPI PUSH1 0x0 DUP1 REVERT JUMPDEST POP GAS CALL ISZERO DUP1 ISZERO PUSH2 0xB61 JUMPI RETURNDATASIZE PUSH1 0x0 DUP1 RETURNDATACOPY RETURNDATASIZE PUSH1 0x0 REVERT JUMPDEST POP POP POP POP PUSH2 0xB6F DUP9 DUP3 PUSH2 0xE50 JUMP JUMPDEST SWAP3 POP PUSH2 0xC73 JUMP JUMPDEST PUSH1 0x40 MLOAD PUSH4 0x23B872DD PUSH1 0xE0 SHL DUP2 MSTORE CALLER PUSH1 0x4 DUP3 ADD MSTORE ADDRESS PUSH1 0x24 DUP3 ADD MSTORE PUSH1 0x44 DUP2 ADD DUP9 SWAP1 MSTORE PUSH1 0x1 PUSH1 0x1 PUSH1 0xA0 SHL SUB DUP10 AND SWAP1 PUSH4 0x23B872DD SWAP1 PUSH1 0x64 ADD PUSH1 0x20 PUSH1 0x40 MLOAD DUP1 DUP4 SUB DUP2 PUSH1 0x0 DUP8 GAS CALL ISZERO DUP1 ISZERO PUSH2 0xBC9 JUMPI RETURNDATASIZE PUSH1 0x0 DUP1 RETURNDATACOPY RETURNDATASIZE PUSH1 0x0 REVERT JUMPDEST POP POP POP POP PUSH1 0x40 MLOAD RETURNDATASIZE PUSH1 0x1F NOT PUSH1 0x1F DUP3 ADD AND DUP3 ADD DUP1 PUSH1 0x40 MSTORE POP DUP2 ADD SWAP1 PUSH2 0xBED SWAP2 SWAP1 PUSH2 0x10A0 JUMP JUMPDEST POP PUSH1 0x5 SLOAD PUSH1 0x40 MLOAD PUSH4 0xA9059CBB PUSH1 0xE0 SHL DUP2 MSTORE PUSH1 0x1 PUSH1 0x1 PUSH1 0xA0 SHL SUB SWAP2 DUP3 AND PUSH1 0x4 DUP3 ADD MSTORE PUSH1 0x24 DUP2 ADD DUP5 SWAP1 MSTORE SWAP1 DUP10 AND SWAP1 PUSH4 0xA9059CBB SWAP1 PUSH1 0x44 ADD PUSH1 0x20 PUSH1 0x40 MLOAD DUP1 DUP4 SUB DUP2 PUSH1 0x0 DUP8 GAS CALL ISZERO DUP1 ISZERO PUSH2 0xC41 JUMPI RETURNDATASIZE PUSH1 0x0 DUP1 RETURNDATACOPY RETURNDATASIZE PUSH1 0x0 REVERT JUMPDEST POP POP POP POP PUSH1 0x40 MLOAD RETURNDATASIZE PUSH1 0x1F NOT PUSH1 0x1F DUP3 ADD AND DUP3 ADD DUP1 PUSH1 0x40 MSTORE POP DUP2 ADD SWAP1 PUSH2 0xC65 SWAP2 SWAP1 PUSH2 0x10A0 JUMP JUMPDEST POP PUSH2 0xC70 DUP9 DUP3 PUSH2 0xE50 JUMP JUMPDEST SWAP3 POP JUMPDEST PUSH1 0x3 SLOAD PUSH1 0x40 DUP1 MLOAD DUP10 DUP2 MSTORE PUSH1 0x20 DUP2 ADD DUP10 SWAP1 MSTORE PUSH1 0x1 PUSH1 0x1 PUSH1 0xA0 SHL SUB DUP9 DUP2 AND DUP3 DUP5 ADD MSTORE SWAP2 MLOAD CALLER SWAP4 SWAP3 DUP13 AND SWAP3 SWAP2 PUSH32 0x8A9F5B93A9427ED2074A269336914D74D6B34DFE5679F30C5CF172F5842AA795 SWAP2 SWAP1 DUP2 SWAP1 SUB PUSH1 0x60 ADD SWAP1 LOG4 POP PUSH1 0x1 SWAP8 SWAP7 POP POP POP POP POP POP POP JUMP JUMPDEST CALLER PUSH1 0x0 SWAP1 DUP2 MSTORE PUSH1 0x2 PUSH1 0x20 MSTORE PUSH1 0x40 DUP2 KECCAK256 SLOAD PUSH1 0xFF AND PUSH2 0xD2C JUMPI PUSH1 0x40 MLOAD PUSH3 0x461BCD PUSH1 0xE5 SHL DUP2 MSTORE PUSH1 0x20 PUSH1 0x4 DUP3 ADD MSTORE PUSH1 0x15 PUSH1 0x24 DUP3 ADD MSTORE PUSH21 0x31B0B63632B91036BAB9BA1031329039B4B3B732B9 PUSH1 0x59 SHL PUSH1 0x44 DUP3 ADD MSTORE PUSH1 0x64 ADD PUSH2 0x581 JUMP JUMPDEST PUSH1 0x40 MLOAD PUSH1 0x1 PUSH1 0x1 PUSH1 0xA0 SHL SUB DUP6 AND SWAP1 DUP5 ISZERO PUSH2 0x8FC MUL SWAP1 DUP6 SWAP1 PUSH1 0x0 DUP2 DUP2 DUP2 DUP6 DUP9 DUP9 CALL SWAP4 POP POP POP POP ISZERO DUP1 ISZERO PUSH2 0xD62 JUMPI RETURNDATASIZE PUSH1 0x0 DUP1 RETURNDATACOPY RETURNDATASIZE PUSH1 0x0 REVERT JUMPDEST POP DUP4 PUSH1 0x1 PUSH1 0x1 PUSH1 0xA0 SHL SUB AND DUP3 PUSH32 0x9651479651FE91907CEE7DE24A0E47091421878D660C93C6FE0D04C7B7B2404B DUP6 PUSH1 0x40 MLOAD PUSH2 0xD9F SWAP2 DUP2 MSTORE PUSH1 0x20 ADD SWAP1 JUMP JUMPDEST PUSH1 0x40 MLOAD DUP1 SWAP2 SUB SWAP1 LOG3 POP PUSH1 0x1 SWAP4 SWAP3 POP POP POP JUMP JUMPDEST PUSH1 0x0 DUP1 PUSH2 0x2710 PUSH2 0xDC3 DUP5 PUSH2 0x1F4 PUSH2 0x10BD JUMP JUMPDEST PUSH2 0xDCD SWAP2 SWAP1 PUSH2 0x10DA JUMP JUMPDEST SWAP1 POP PUSH2 0xDD9 DUP2 DUP5 PUSH2 0x10FC JUMP JUMPDEST SWAP2 POP SWAP2 POP SWAP2 JUMP JUMPDEST PUSH1 0x40 MLOAD PUSH4 0x40C10F19 PUSH1 0xE0 SHL DUP2 MSTORE PUSH1 0x1 PUSH1 0x1 PUSH1 0xA0 SHL SUB DUP4 DUP2 AND PUSH1 0x4 DUP4 ADD MSTORE PUSH1 0x24 DUP3 ADD DUP4 SWAP1 MSTORE PUSH1 0x0 SWAP2 DUP3 SWAP2 DUP7 AND SWAP1 PUSH4 0x40C10F19 SWAP1 PUSH1 0x44 ADD PUSH1 0x0 PUSH1 0x40 MLOAD DUP1 DUP4 SUB DUP2 PUSH1 0x0 DUP8 DUP1 EXTCODESIZE ISZERO DUP1 ISZERO PUSH2 0xE2F JUMPI PUSH1 0x0 DUP1 REVERT JUMPDEST POP GAS CALL ISZERO DUP1 ISZERO PUSH2 0xE43 JUMPI RETURNDATASIZE PUSH1 0x0 DUP1 RETURNDATACOPY RETURNDATASIZE PUSH1 0x0 REVERT JUMPDEST POP SWAP5 SWAP8 SWAP6 SWAP7 POP POP POP POP POP POP JUMP JUMPDEST PUSH1 0x40 MLOAD PUSH4 0x2770A7EB PUSH1 0xE2 SHL DUP2 MSTORE ADDRESS PUSH1 0x4 DUP3 ADD MSTORE PUSH1 0x24 DUP2 ADD DUP3 SWAP1 MSTORE PUSH1 0x0 SWAP1 PUSH1 0x1 PUSH1 0x1 PUSH1 0xA0 SHL SUB DUP5 AND SWAP1 PUSH4 0x9DC29FAC SWAP1 PUSH1 0x44 ADD PUSH1 0x0 PUSH1 0x40 MLOAD DUP1 DUP4 SUB DUP2 PUSH1 0x0 DUP8 DUP1 EXTCODESIZE ISZERO DUP1 ISZERO PUSH2 0xE9B JUMPI PUSH1 0x0 DUP1 REVERT JUMPDEST POP GAS CALL ISZERO DUP1 ISZERO PUSH2 0xEAF JUMPI RETURNDATASIZE PUSH1 0x0 DUP1 RETURNDATACOPY RETURNDATASIZE PUSH1 0x0 REVERT JUMPDEST POP SWAP4 SWAP6 SWAP5 POP POP POP POP POP JUMP JUMPDEST PUSH1 0x1 PUSH1 0x1 PUSH1 0xA0 SHL SUB DUP2 AND DUP2 EQ PUSH2 0xECF JUMPI PUSH1 0x0 DUP1 REVERT JUMPDEST POP JUMP JUMPDEST PUSH1 0x0 PUSH1 0x20 DUP3 DUP5 SUB SLT ISZERO PUSH2 0xEE4 JUMPI PUSH1 0x0 DUP1 REVERT JUMPDEST DUP2 CALLDATALOAD PUSH2 0xEEF DUP2 PUSH2 0xEBA JUMP JUMPDEST SWAP4 SWAP3 POP POP POP JUMP JUMPDEST PUSH1 0x0 DUP1 PUSH1 0x0 DUP1 PUSH1 0x0 PUSH1 0xA0 DUP7 DUP9 SUB SLT ISZERO PUSH2 0xF0E JUMPI PUSH1 0x0 DUP1 REVERT JUMPDEST DUP6 CALLDATALOAD PUSH2 0xF19 DUP2 PUSH2 0xEBA JUMP JUMPDEST SWAP5 POP PUSH1 0x20 DUP7 ADD CALLDATALOAD PUSH2 0xF29 DUP2 PUSH2 0xEBA JUMP JUMPDEST SWAP5 SWAP8 SWAP5 SWAP7 POP POP POP POP PUSH1 0x40 DUP4 ADD CALLDATALOAD SWAP3 PUSH1 0x60 DUP2 ADD CALLDATALOAD SWAP3 PUSH1 0x80 SWAP1 SWAP2 ADD CALLDATALOAD SWAP2 POP JUMP JUMPDEST PUSH1 0x0 DUP1 PUSH1 0x40 DUP4 DUP6 SUB SLT ISZERO PUSH2 0xF5A JUMPI PUSH1 0x0 DUP1 REVERT JUMPDEST DUP3 CALLDATALOAD PUSH2 0xF65 DUP2 PUSH2 0xEBA JUMP JUMPDEST SWAP2 POP PUSH1 0x20 DUP4 ADD CALLDATALOAD PUSH2 0xF75 DUP2 PUSH2 0xEBA JUMP JUMPDEST DUP1 SWAP2 POP POP SWAP3 POP SWAP3 SWAP1 POP JUMP JUMPDEST DUP1 ISZERO ISZERO DUP2 EQ PUSH2 0xECF JUMPI PUSH1 0x0 DUP1 REVERT JUMPDEST PUSH1 0x0 DUP1 PUSH1 0x40 DUP4 DUP6 SUB SLT ISZERO PUSH2 0xFA1 JUMPI PUSH1 0x0 DUP1 REVERT JUMPDEST DUP3 CALLDATALOAD PUSH2 0xFAC DUP2 PUSH2 0xEBA JUMP JUMPDEST SWAP2 POP PUSH1 0x20 DUP4 ADD CALLDATALOAD PUSH2 0xF75 DUP2 PUSH2 0xF80 JUMP JUMPDEST PUSH1 0x0 PUSH1 0x20 DUP3 DUP5 SUB SLT ISZERO PUSH2 0xFCE JUMPI PUSH1 0x0 DUP1 REVERT JUMPDEST POP CALLDATALOAD SWAP2 SWAP1 POP JUMP JUMPDEST PUSH1 0x0 DUP1 PUSH1 0x0 DUP1 PUSH1 0x80 DUP6 DUP8 SUB SLT ISZERO PUSH2 0xFEB JUMPI PUSH1 0x0 DUP1 REVERT JUMPDEST DUP5 CALLDATALOAD PUSH2 0xFF6 DUP2 PUSH2 0xEBA JUMP JUMPDEST SWAP4 POP PUSH1 0x20 DUP6 ADD CALLDATALOAD SWAP3 POP PUSH1 0x40 DUP6 ADD CALLDATALOAD SWAP2 POP PUSH1 0x60 DUP6 ADD CALLDATALOAD PUSH2 0x1014 DUP2 PUSH2 0xEBA JUMP JUMPDEST SWAP4 SWAP7 SWAP3 SWAP6 POP SWAP1 SWAP4 POP POP JUMP JUMPDEST PUSH1 0x0 DUP1 PUSH1 0x0 PUSH1 0x60 DUP5 DUP7 SUB SLT ISZERO PUSH2 0x1034 JUMPI PUSH1 0x0 DUP1 REVERT JUMPDEST DUP4 CALLDATALOAD PUSH2 0x103F DUP2 PUSH2 0xEBA JUMP JUMPDEST SWAP6 PUSH1 0x20 DUP6 ADD CALLDATALOAD SWAP6 POP PUSH1 0x40 SWAP1 SWAP5 ADD CALLDATALOAD SWAP4 SWAP3 POP POP POP JUMP JUMPDEST PUSH4 0x4E487B71 PUSH1 0xE0 SHL PUSH1 0x0 MSTORE PUSH1 0x11 PUSH1 0x4 MSTORE PUSH1 0x24 PUSH1 0x0 REVERT JUMPDEST PUSH1 0x0 PUSH1 0x1 DUP3 ADD PUSH2 0x107C JUMPI PUSH2 0x107C PUSH2 0x1054 JUMP JUMPDEST POP PUSH1 0x1 ADD SWAP1 JUMP JUMPDEST PUSH1 0x0 PUSH1 0x20 DUP3 DUP5 SUB SLT ISZERO PUSH2 0x1095 JUMPI PUSH1 0x0 DUP1 REVERT JUMPDEST DUP2 MLOAD PUSH2 0xEEF DUP2 PUSH2 0xEBA JUMP JUMPDEST PUSH1 0x0 PUSH1 0x20 DUP3 DUP5 SUB SLT ISZERO PUSH2 0x10B2 JUMPI PUSH1 0x0 DUP1 REVERT JUMPDEST DUP2 MLOAD PUSH2 0xEEF DUP2 PUSH2 0xF80 JUMP JUMPDEST DUP1 DUP3 MUL DUP2 ISZERO DUP3 DUP3 DIV DUP5 EQ OR PUSH2 0x10D4 JUMPI PUSH2 0x10D4 PUSH2 0x1054 JUMP JUMPDEST SWAP3 SWAP2 POP POP JUMP JUMPDEST PUSH1 0x0 DUP3 PUSH2 0x10F7 JUMPI PUSH4 0x4E487B71 PUSH1 0xE0 SHL PUSH1 0x0 MSTORE PUSH1 0x12 PUSH1 0x4 MSTORE PUSH1 0x24 PUSH1 0x0 REVERT JUMPDEST POP DIV SWAP1 JUMP JUMPDEST DUP2 DUP2 SUB DUP2 DUP2 GT ISZERO PUSH2 0x10D4 JUMPI PUSH2 0x10D4 PUSH2 0x1054 JUMP INVALID LOG2 PUSH5 0x6970667358 0x22 SLT KECCAK256 EXTCODECOPY 0xD0 PUSH31 0xCD11B1E6C81942EF4CDDC8F2FB9F07A8CED845B728FFF12FA0676EF99E6473 PUSH16 0x6C634300081100330000000000000000 "
				},
				"gasEstimates": {
					"creation": {
						"codeDepositCost": "884200",
						"executionCost": "71499",
						"totalCost": "955699"
					},
					"external": {
						"acceptOwnership()": "56586",
						"changeSigner(address,bool)": "infinite",
						"coinIn(address)": "infinite",
						"coinOut(address,uint256,uint256)": "infinite",
						"destroyContract()": "29923",
						"exraCoinRewards()": "2339",
						"feeWallet()": "2403",
						"orderID()": "2384",
						"owner()": "2448",
						"reserveFundThreshold()": "2384",
						"reserveWallet()": "2448",
						"setFeeWallet(address)": "26858",
						"setFundThreshold(uint256)": "26740",
						"setReserveWallet(address)": "26857",
						"setUSDTAddress(address)": "29021",
						"signer(address)": "2538",
						"tokenIn(address,uint256,uint256,address)": "infinite",
						"tokenOut(address,address,uint256,uint256,uint256)": "infinite",
						"transferOwnership(address)": "26793",
						"transferTokenOwnership(address,address)": "infinite",
						"usdtAddress()": "2382"
					},
					"internal": {
						"burnTokens(address,uint256)": "infinite",
						"mintTokens(address,address,uint256)": "infinite",
						"processTax(uint256)": "infinite"
					}
				},
				"methodIdentifiers": {
					"acceptOwnership()": "79ba5097",
					"changeSigner(address,bool)": "51295f01",
					"coinIn(address)": "15a01045",
					"coinOut(address,uint256,uint256)": "fea54d06",
					"destroyContract()": "092a5cce",
					"exraCoinRewards()": "f1c06906",
					"feeWallet()": "f25f4b56",
					"orderID()": "81203d03",
					"owner()": "8da5cb5b",
					"reserveFundThreshold()": "cd23e147",
					"reserveWallet()": "d72b11bd",
					"setFeeWallet(address)": "90d49b9d",
					"setFundThreshold(uint256)": "c7e0af6a",
					"setReserveWallet(address)": "dda4fa8f",
					"setUSDTAddress(address)": "55eba868",
					"signer(address)": "0536b723",
					"tokenIn(address,uint256,uint256,address)": "f3a7cb61",
					"tokenOut(address,address,uint256,uint256,uint256)": "256c1ea3",
					"transferOwnership(address)": "f2fde38b",
					"transferTokenOwnership(address,address)": "383fe467",
					"usdtAddress()": "9ab4a445"
				}
			},
			"storageLayout": {
				"storage": [
					{
						"astId": 86,
						"contract": "Bridge.sol:Bridge",
						"label": "owner",
						"offset": 0,
						"slot": "0",
						"type": "t_address"
					},
					{
						"astId": 88,
						"contract": "Bridge.sol:Bridge",
						"label": "newOwner",
						"offset": 0,
						"slot": "1",
						"type": "t_address"
					},
					{
						"astId": 92,
						"contract": "Bridge.sol:Bridge",
						"label": "signer",
						"offset": 0,
						"slot": "2",
						"type": "t_mapping(t_address,t_bool)"
					},
					{
						"astId": 201,
						"contract": "Bridge.sol:Bridge",
						"label": "orderID",
						"offset": 0,
						"slot": "3",
						"type": "t_uint256"
					},
					{
						"astId": 203,
						"contract": "Bridge.sol:Bridge",
						"label": "exraCoinRewards",
						"offset": 0,
						"slot": "4",
						"type": "t_uint256"
					},
					{
						"astId": 205,
						"contract": "Bridge.sol:Bridge",
						"label": "feeWallet",
						"offset": 0,
						"slot": "5",
						"type": "t_address"
					},
					{
						"astId": 207,
						"contract": "Bridge.sol:Bridge",
						"label": "reserveWallet",
						"offset": 0,
						"slot": "6",
						"type": "t_address"
					},
					{
						"astId": 210,
						"contract": "Bridge.sol:Bridge",
						"label": "usdtAddress",
						"offset": 0,
						"slot": "7",
						"type": "t_address"
					},
					{
						"astId": 213,
						"contract": "Bridge.sol:Bridge",
						"label": "reserveFundThreshold",
						"offset": 0,
						"slot": "8",
						"type": "t_uint256"
					}
				],
				"types": {
					"t_address": {
						"encoding": "inplace",
						"label": "address",
						"numberOfBytes": "20"
					},
					"t_bool": {
						"encoding": "inplace",
						"label": "bool",
						"numberOfBytes": "1"
					},
					"t_mapping(t_address,t_bool)": {
						"encoding": "mapping",
						"key": "t_address",
						"label": "mapping(address => bool)",
						"numberOfBytes": "32",
						"value": "t_bool"
					},
					"t_uint256": {
						"encoding": "inplace",
						"label": "uint256",
						"numberOfBytes": "32"
					}
				}
			},
			"userdoc": {
				"kind": "user",
				"methods": {},
				"version": 1
			}
		}
	}
}