{
	"pegged-token.sol": {
		"USDT": {
			"abi": [
				{
					"inputs": [],
					"stateMutability": "nonpayable",
					"type": "constructor"
				},
				{
					"anonymous": false,
					"inputs": [
						{
							"indexed": true,
							"internalType": "address",
							"name": "owner",
							"type": "address"
						},
						{
							"indexed": true,
							"internalType": "address",
							"name": "spender",
							"type": "address"
						},
						{
							"indexed": false,
							"internalType": "uint256",
							"name": "value",
							"type": "uint256"
						}
					],
					"name": "Approval",
					"type": "event"
				},
				{
					"anonymous": false,
					"inputs": [
						{
							"indexed": true,
							"internalType": "address",
							"name": "previousOwner",
							"type": "address"
						},
						{
							"indexed": true,
							"internalType": "address",
							"name": "newOwner",
							"type": "address"
						}
					],
					"name": "OwnershipTransferred",
					"type": "event"
				},
				{
					"anonymous": false,
					"inputs": [
						{
							"indexed": true,
							"internalType": "address",
							"name": "from",
							"type": "address"
						},
						{
							"indexed": true,
							"internalType": "address",
							"name": "to",
							"type": "address"
						},
						{
							"indexed": false,
							"internalType": "uint256",
							"name": "value",
							"type": "uint256"
						}
					],
					"name": "Transfer",
					"type": "event"
				},
				{
					"inputs": [
						{
							"internalType": "address",
							"name": "owner",
							"type": "address"
						},
						{
							"internalType": "address",
							"name": "spender",
							"type": "address"
						}
					],
					"name": "allowance",
					"outputs": [
						{
							"internalType": "uint256",
							"name": "",
							"type": "uint256"
						}
					],
					"stateMutability": "view",
					"type": "function"
				},
				{
					"inputs": [
						{
							"internalType": "address",
							"name": "spender",
							"type": "address"
						},
						{
							"internalType": "uint256",
							"name": "amount",
							"type": "uint256"
						}
					],
					"name": "approve",
					"outputs": [
						{
							"internalType": "bool",
							"name": "",
							"type": "bool"
						}
					],
					"stateMutability": "nonpayable",
					"type": "function"
				},
				{
					"inputs": [
						{
							"internalType": "address",
							"name": "account",
							"type": "address"
						}
					],
					"name": "balanceOf",
					"outputs": [
						{
							"internalType": "uint256",
							"name": "",
							"type": "uint256"
						}
					],
					"stateMutability": "view",
					"type": "function"
				},
				{
					"inputs": [
						{
							"internalType": "address",
							"name": "account",
							"type": "address"
						},
						{
							"internalType": "uint256",
							"name": "amount",
							"type": "uint256"
						}
					],
					"name": "burn",
					"outputs": [
						{
							"internalType": "bool",
							"name": "",
							"type": "bool"
						}
					],
					"stateMutability": "nonpayable",
					"type": "function"
				},
				{
					"inputs": [],
					"name": "decimals",
					"outputs": [
						{
							"internalType": "uint8",
							"name": "",
							"type": "uint8"
						}
					],
					"stateMutability": "view",
					"type": "function"
				},
				{
					"inputs": [],
					"name": "destroyContract",
					"outputs": [],
					"stateMutability": "nonpayable",
					"type": "function"
				},
				{
					"inputs": [],
					"name": "getOwner",
					"outputs": [
						{
							"internalType": "address",
							"name": "",
							"type": "address"
						}
					],
					"stateMutability": "view",
					"type": "function"
				},
				{
					"inputs": [
						{
							"internalType": "address",
							"name": "account",
							"type": "address"
						},
						{
							"internalType": "uint256",
							"name": "amount",
							"type": "uint256"
						}
					],
					"name": "mint",
					"outputs": [
						{
							"internalType": "bool",
							"name": "",
							"type": "bool"
						}
					],
					"stateMutability": "nonpayable",
					"type": "function"
				},
				{
					"inputs": [],
					"name": "name",
					"outputs": [
						{
							"internalType": "string",
							"name": "",
							"type": "string"
						}
					],
					"stateMutability": "view",
					"type": "function"
				},
				{
					"inputs": [],
					"name": "owner",
					"outputs": [
						{
							"internalType": "address",
							"name": "",
							"type": "address"
						}
					],
					"stateMutability": "view",
					"type": "function"
				},
				{
					"inputs": [],
					"name": "renounceOwnership",
					"outputs": [],
					"stateMutability": "nonpayable",
					"type": "function"
				},
				{
					"inputs": [
						{
							"internalType": "address",
							"name": "depositor",
							"type": "address"
						}
					],
					"name": "setDepositor",
					"outputs": [],
					"stateMutability": "nonpayable",
					"type": "function"
				},
				{
					"inputs": [],
					"name": "symbol",
					"outputs": [
						{
							"internalType": "string",
							"name": "",
							"type": "string"
						}
					],
					"stateMutability": "view",
					"type": "function"
				},
				{
					"inputs": [],
					"name": "totalSupply",
					"outputs": [
						{
							"internalType": "uint256",
							"name": "",
							"type": "uint256"
						}
					],
					"stateMutability": "view",
					"type": "function"
				},
				{
					"inputs": [
						{
							"internalType": "address",
							"name": "recipient",
							"type": "address"
						},
						{
							"internalType": "uint256",
							"name": "amount",
							"type": "uint256"
						}
					],
					"name": "transfer",
					"outputs": [
						{
							"internalType": "bool",
							"name": "",
							"type": "bool"
						}
					],
					"stateMutability": "nonpayable",
					"type": "function"
				},
				{
					"inputs": [
						{
							"internalType": "address",
							"name": "sender",
							"type": "address"
						},
						{
							"internalType": "address",
							"name": "recipient",
							"type": "address"
						},
						{
							"internalType": "uint256",
							"name": "amount",
							"type": "uint256"
						}
					],
					"name": "transferFrom",
					"outputs": [
						{
							"internalType": "bool",
							"name": "",
							"type": "bool"
						}
					],
					"stateMutability": "nonpayable",
					"type": "function"
				},
				{
					"inputs": [
						{
							"internalType": "address",
							"name": "newOwner",
							"type": "address"
						}
					],
					"name": "transferOwnership",
					"outputs": [],
					"stateMutability": "nonpayable",
					"type": "function"
				}
			],
			"devdoc": {
				"kind": "dev",
				"methods": {
					"allowance(address,address)": {
						"details": "See {ZRC20-allowance}."
					},
					"approve(address,uint256)": {
						"details": "See {ZRC20-approve}. Requirements: - `spender` cannot be the zero address."
					},
					"balanceOf(address)": {
						"details": "See {ZRC20-balanceOf}."
					},
					"burn(address,uint256)": {
						"details": "Burn `amount` tokens and decreasing the total supply."
					},
					"decimals()": {
						"details": "Returns the token decimals."
					},
					"getOwner()": {
						"details": "Returns the bep token owner."
					},
					"mint(address,uint256)": {
						"details": "Creates `amount` tokens and assigns them to `msg.sender`, increasing the total supply. Requirements - `msg.sender` must be the token owner"
					},
					"name()": {
						"details": "Returns the token name."
					},
					"owner()": {
						"details": "Returns the address of the current owner."
					},
					"renounceOwnership()": {
						"details": "Leaves the contract without owner. It will not be possible to call `onlyOwner` functions anymore. Can only be called by the current owner. NOTE: Renouncing ownership will leave the contract without an owner, thereby removing any functionality that is only available to the owner."
					},
					"symbol()": {
						"details": "Returns the token symbol."
					},
					"totalSupply()": {
						"details": "See {ZRC20-totalSupply}."
					},
					"transfer(address,uint256)": {
						"details": "See {ZRC20-transfer}. Requirements: - `recipient` cannot be the zero address. - the caller must have a balance of at least `amount`."
					},
					"transferFrom(address,address,uint256)": {
						"details": "See {ZRC20-transferFrom}. Emits an {Approval} event indicating the updated allowance. This is not required by the EIP. See the note at the beginning of {ZRC20}; Requirements: - `sender` and `recipient` cannot be the zero address. - `sender` must have a balance of at least `amount`. - the caller must have allowance for `sender`'s tokens of at least `amount`."
					},
					"transferOwnership(address)": {
						"details": "Transfers ownership of the contract to a new account (`newOwner`). Can only be called by the current owner."
					}
				},
				"version": 1
			},
			"evm": {
				"assembly": "    /* \"pegged-token.sol\":6699:13131  contract USDT is Context, IZRC20, Ownable {... */\n  mstore(0x40, 0x80)\n    /* \"pegged-token.sol\":7010:7175  constructor()  {... */\n  callvalue\n  dup1\n  iszero\n  tag_1\n  jumpi\n  0x00\n  dup1\n  revert\ntag_1:\n  pop\n    /* \"pegged-token.sol\":5258:5275  address msgSender */\n  0x00\n    /* \"pegged-token.sol\":5296:5314  _owner = msgSender */\n  dup1\n  sload\n  not(sub(shl(0xa0, 0x01), 0x01))\n  and\n    /* \"pegged-token.sol\":3702:3712  msg.sender */\n  caller\n    /* \"pegged-token.sol\":5296:5314  _owner = msgSender */\n  swap1\n  dup2\n  or\n  dup3\n  sstore\n    /* \"pegged-token.sol\":5325:5368  OwnershipTransferred(address(0), msgSender) */\n  mload(0x40)\n    /* \"pegged-token.sol\":3702:3712  msg.sender */\n  swap1\n  swap2\n  dup3\n  swap2\n    /* \"pegged-token.sol\":5325:5368  OwnershipTransferred(address(0), msgSender) */\n  0x8be0079c531659141344cd1fd0a4f28419497f9722a3daafe3b4186f6b6457e0\n  swap1\n    /* \"pegged-token.sol\":5258:5275  address msgSender */\n  dup3\n  swap1\n    /* \"pegged-token.sol\":5325:5368  OwnershipTransferred(address(0), msgSender) */\n  log3\n  pop\n    /* \"pegged-token.sol\":7031:7068  _name = \"MainnetZ Pegged zUSDT Token\" */\n  0x40\n  dup1\n  mload\n  dup1\n  dup3\n  add\n  swap1\n  swap2\n  mstore\n  0x1b\n  dup2\n  mstore\n  0x4d61696e6e65745a20506567676564207a5553445420546f6b656e0000000000\n  0x20\n  dup3\n  add\n  mstore\n    /* \"pegged-token.sol\":7031:7036  _name */\n  0x06\n  swap1\n    /* \"pegged-token.sol\":7031:7068  _name = \"MainnetZ Pegged zUSDT Token\" */\n  tag_10\n  swap1\n    /* \"pegged-token.sol\":7031:7036  _name */\n  dup3\n    /* \"pegged-token.sol\":7031:7068  _name = \"MainnetZ Pegged zUSDT Token\" */\n  tag_11\n  jump\t// in\ntag_10:\n  pop\n    /* \"pegged-token.sol\":7075:7092  _symbol = \"zUSDT\" */\n  0x40\n  dup1\n  mload\n  dup1\n  dup3\n  add\n  swap1\n  swap2\n  mstore\n  0x05\n  dup1\n  dup3\n  mstore\n  shl(0xda, 0x1e9554d115)\n  0x20\n  dup4\n  add\n  mstore\n  swap1\n  tag_12\n  swap1\n  dup3\n  tag_11\n  jump\t// in\ntag_12:\n  pop\n    /* \"pegged-token.sol\":7098:7107  _decimals */\n  0x04\n    /* \"pegged-token.sol\":7098:7112  _decimals = 18 */\n  dup1\n  sload\n  not(0xff)\n  and\n    /* \"pegged-token.sol\":7110:7112  18 */\n  0x12\n    /* \"pegged-token.sol\":7098:7112  _decimals = 18 */\n  or\n  swap1\n  sstore\n    /* \"pegged-token.sol\":7157:7169  _totalSupply */\n  sload(0x03)\n    /* \"pegged-token.sol\":7124:7170  Transfer(address(0), msg.sender, _totalSupply) */\n  mload(0x40)\n    /* \"pegged-token.sol\":7145:7155  msg.sender */\n  caller\n  swap2\n    /* \"pegged-token.sol\":7098:7107  _decimals */\n  0x00\n  swap2\n    /* \"pegged-token.sol\":7124:7170  Transfer(address(0), msg.sender, _totalSupply) */\n  0xddf252ad1be2c89b69c2b068fc378daa952ba7f163c4a11628f55a4df523b3ef\n  swap2\n  tag_13\n  swap2\n    /* \"#utility.yul\":2881:2906   */\n  swap1\n  dup2\n  mstore\n    /* \"#utility.yul\":2869:2871   */\n  0x20\n    /* \"#utility.yul\":2854:2872   */\n  add\n  swap1\n    /* \"#utility.yul\":2735:2912   */\n  jump\n    /* \"pegged-token.sol\":7124:7170  Transfer(address(0), msg.sender, _totalSupply) */\ntag_13:\n  mload(0x40)\n  dup1\n  swap2\n  sub\n  swap1\n  log3\n    /* \"pegged-token.sol\":6699:13131  contract USDT is Context, IZRC20, Ownable {... */\n  jump(tag_22)\n    /* \"#utility.yul\":14:141   */\ntag_17:\n    /* \"#utility.yul\":75:85   */\n  0x4e487b71\n    /* \"#utility.yul\":70:73   */\n  0xe0\n    /* \"#utility.yul\":66:86   */\n  shl\n    /* \"#utility.yul\":63:64   */\n  0x00\n    /* \"#utility.yul\":56:87   */\n  mstore\n    /* \"#utility.yul\":106:110   */\n  0x41\n    /* \"#utility.yul\":103:104   */\n  0x04\n    /* \"#utility.yul\":96:111   */\n  mstore\n    /* \"#utility.yul\":130:134   */\n  0x24\n    /* \"#utility.yul\":127:128   */\n  0x00\n    /* \"#utility.yul\":120:135   */\n  revert\n    /* \"#utility.yul\":146:526   */\ntag_18:\n    /* \"#utility.yul\":225:226   */\n  0x01\n    /* \"#utility.yul\":221:233   */\n  dup2\n  dup2\n  shr\n  swap1\n    /* \"#utility.yul\":268:280   */\n  dup3\n  and\n  dup1\n    /* \"#utility.yul\":289:350   */\n  tag_25\n  jumpi\n    /* \"#utility.yul\":343:347   */\n  0x7f\n    /* \"#utility.yul\":335:341   */\n  dup3\n    /* \"#utility.yul\":331:348   */\n  and\n    /* \"#utility.yul\":321:348   */\n  swap2\n  pop\n    /* \"#utility.yul\":289:350   */\ntag_25:\n    /* \"#utility.yul\":396:398   */\n  0x20\n    /* \"#utility.yul\":388:394   */\n  dup3\n    /* \"#utility.yul\":385:399   */\n  lt\n    /* \"#utility.yul\":365:383   */\n  dup2\n    /* \"#utility.yul\":362:400   */\n  sub\n    /* \"#utility.yul\":359:520   */\n  tag_26\n  jumpi\n    /* \"#utility.yul\":442:452   */\n  0x4e487b71\n    /* \"#utility.yul\":437:440   */\n  0xe0\n    /* \"#utility.yul\":433:453   */\n  shl\n    /* \"#utility.yul\":430:431   */\n  0x00\n    /* \"#utility.yul\":423:454   */\n  mstore\n    /* \"#utility.yul\":477:481   */\n  0x22\n    /* \"#utility.yul\":474:475   */\n  0x04\n    /* \"#utility.yul\":467:482   */\n  mstore\n    /* \"#utility.yul\":505:509   */\n  0x24\n    /* \"#utility.yul\":502:503   */\n  0x00\n    /* \"#utility.yul\":495:510   */\n  revert\n    /* \"#utility.yul\":359:520   */\ntag_26:\n  pop\n    /* \"#utility.yul\":146:526   */\n  swap2\n  swap1\n  pop\n  jump\t// out\n    /* \"#utility.yul\":657:1202   */\ntag_20:\n    /* \"#utility.yul\":759:761   */\n  0x1f\n    /* \"#utility.yul\":754:757   */\n  dup3\n    /* \"#utility.yul\":751:762   */\n  gt\n    /* \"#utility.yul\":748:1196   */\n  iszero\n  tag_29\n  jumpi\n    /* \"#utility.yul\":795:796   */\n  0x00\n    /* \"#utility.yul\":820:825   */\n  dup2\n    /* \"#utility.yul\":816:818   */\n  dup2\n    /* \"#utility.yul\":809:826   */\n  mstore\n    /* \"#utility.yul\":865:869   */\n  0x20\n    /* \"#utility.yul\":861:863   */\n  dup2\n    /* \"#utility.yul\":851:870   */\n  keccak256\n    /* \"#utility.yul\":935:937   */\n  0x1f\n    /* \"#utility.yul\":923:933   */\n  dup6\n    /* \"#utility.yul\":919:938   */\n  add\n    /* \"#utility.yul\":916:917   */\n  0x05\n    /* \"#utility.yul\":912:939   */\n  shr\n    /* \"#utility.yul\":906:910   */\n  dup2\n    /* \"#utility.yul\":902:940   */\n  add\n    /* \"#utility.yul\":971:975   */\n  0x20\n    /* \"#utility.yul\":959:969   */\n  dup7\n    /* \"#utility.yul\":956:976   */\n  lt\n    /* \"#utility.yul\":953:1000   */\n  iszero\n  tag_30\n  jumpi\n  pop\n    /* \"#utility.yul\":994:998   */\n  dup1\n    /* \"#utility.yul\":953:1000   */\ntag_30:\n    /* \"#utility.yul\":1049:1051   */\n  0x1f\n    /* \"#utility.yul\":1044:1047   */\n  dup6\n    /* \"#utility.yul\":1040:1052   */\n  add\n    /* \"#utility.yul\":1037:1038   */\n  0x05\n    /* \"#utility.yul\":1033:1053   */\n  shr\n    /* \"#utility.yul\":1027:1031   */\n  dup3\n    /* \"#utility.yul\":1023:1054   */\n  add\n    /* \"#utility.yul\":1013:1054   */\n  swap2\n  pop\n    /* \"#utility.yul\":1104:1186   */\ntag_31:\n    /* \"#utility.yul\":1122:1124   */\n  dup2\n    /* \"#utility.yul\":1115:1120   */\n  dup2\n    /* \"#utility.yul\":1112:1125   */\n  lt\n    /* \"#utility.yul\":1104:1186   */\n  iszero\n  tag_33\n  jumpi\n    /* \"#utility.yul\":1167:1184   */\n  dup3\n  dup2\n  sstore\n    /* \"#utility.yul\":1148:1149   */\n  0x01\n    /* \"#utility.yul\":1137:1150   */\n  add\n    /* \"#utility.yul\":1104:1186   */\n  jump(tag_31)\ntag_33:\n    /* \"#utility.yul\":1108:1111   */\n  pop\n  pop\n  pop\n    /* \"#utility.yul\":748:1196   */\ntag_29:\n    /* \"#utility.yul\":657:1202   */\n  pop\n  pop\n  pop\n  jump\t// out\n    /* \"#utility.yul\":1378:2730   */\ntag_11:\n    /* \"#utility.yul\":1498:1508   */\n  dup2\n  mload\n  sub(shl(0x40, 0x01), 0x01)\n    /* \"#utility.yul\":1520:1550   */\n  dup2\n  gt\n    /* \"#utility.yul\":1517:1573   */\n  iszero\n  tag_37\n  jumpi\n    /* \"#utility.yul\":1553:1571   */\n  tag_37\n  tag_17\n  jump\t// in\ntag_37:\n    /* \"#utility.yul\":1582:1679   */\n  tag_38\n    /* \"#utility.yul\":1672:1678   */\n  dup2\n    /* \"#utility.yul\":1632:1670   */\n  tag_39\n    /* \"#utility.yul\":1664:1668   */\n  dup5\n    /* \"#utility.yul\":1658:1669   */\n  sload\n    /* \"#utility.yul\":1632:1670   */\n  tag_18\n  jump\t// in\ntag_39:\n    /* \"#utility.yul\":1626:1630   */\n  dup5\n    /* \"#utility.yul\":1582:1679   */\n  tag_20\n  jump\t// in\ntag_38:\n    /* \"#utility.yul\":1734:1738   */\n  0x20\n  dup1\n    /* \"#utility.yul\":1798:1800   */\n  0x1f\n    /* \"#utility.yul\":1787:1801   */\n  dup4\n  gt\n    /* \"#utility.yul\":1815:1816   */\n  0x01\n    /* \"#utility.yul\":1810:2473   */\n  dup2\n  eq\n  tag_41\n  jumpi\n    /* \"#utility.yul\":2517:2518   */\n  0x00\n    /* \"#utility.yul\":2534:2540   */\n  dup5\n    /* \"#utility.yul\":2531:2620   */\n  iszero\n  tag_42\n  jumpi\n  pop\n    /* \"#utility.yul\":2586:2605   */\n  dup6\n  dup4\n  add\n    /* \"#utility.yul\":2580:2606   */\n  mload\n    /* \"#utility.yul\":2531:2620   */\ntag_42:\n  not(0x00)\n    /* \"#utility.yul\":1335:1336   */\n  0x03\n    /* \"#utility.yul\":1331:1342   */\n  dup7\n  swap1\n  shl\n    /* \"#utility.yul\":1327:1351   */\n  shr\n    /* \"#utility.yul\":1323:1352   */\n  not\n    /* \"#utility.yul\":1313:1353   */\n  and\n    /* \"#utility.yul\":1359:1360   */\n  0x01\n    /* \"#utility.yul\":1355:1366   */\n  dup6\n  swap1\n  shl\n    /* \"#utility.yul\":1310:1367   */\n  or\n    /* \"#utility.yul\":2633:2714   */\n  dup6\n  sstore\n    /* \"#utility.yul\":1780:2724   */\n  jump(tag_33)\n    /* \"#utility.yul\":1810:2473   */\ntag_41:\n    /* \"#utility.yul\":604:605   */\n  0x00\n    /* \"#utility.yul\":597:611   */\n  dup6\n  dup2\n  mstore\n    /* \"#utility.yul\":641:645   */\n  0x20\n    /* \"#utility.yul\":628:646   */\n  dup2\n  keccak256\n  not(0x1f)\n    /* \"#utility.yul\":1846:1866   */\n  dup7\n  and\n  swap2\n    /* \"#utility.yul\":1964:2200   */\ntag_45:\n    /* \"#utility.yul\":1978:1985   */\n  dup3\n    /* \"#utility.yul\":1975:1976   */\n  dup2\n    /* \"#utility.yul\":1972:1986   */\n  lt\n    /* \"#utility.yul\":1964:2200   */\n  iszero\n  tag_47\n  jumpi\n    /* \"#utility.yul\":2067:2086   */\n  dup9\n  dup7\n  add\n    /* \"#utility.yul\":2061:2087   */\n  mload\n    /* \"#utility.yul\":2046:2088   */\n  dup3\n  sstore\n    /* \"#utility.yul\":2159:2186   */\n  swap5\n  dup5\n  add\n  swap5\n    /* \"#utility.yul\":2127:2128   */\n  0x01\n    /* \"#utility.yul\":2115:2129   */\n  swap1\n  swap2\n  add\n  swap1\n    /* \"#utility.yul\":1994:2013   */\n  dup5\n  add\n    /* \"#utility.yul\":1964:2200   */\n  jump(tag_45)\ntag_47:\n    /* \"#utility.yul\":1968:1971   */\n  pop\n    /* \"#utility.yul\":2228:2234   */\n  dup6\n    /* \"#utility.yul\":2219:2226   */\n  dup3\n    /* \"#utility.yul\":2216:2235   */\n  lt\n    /* \"#utility.yul\":2213:2414   */\n  iszero\n  tag_48\n  jumpi\n    /* \"#utility.yul\":2289:2308   */\n  dup8\n  dup6\n  add\n    /* \"#utility.yul\":2283:2309   */\n  mload\n  not(0x00)\n    /* \"#utility.yul\":2372:2373   */\n  0x03\n    /* \"#utility.yul\":2368:2382   */\n  dup9\n  swap1\n  shl\n    /* \"#utility.yul\":2384:2387   */\n  0xf8\n    /* \"#utility.yul\":2364:2388   */\n  and\n    /* \"#utility.yul\":2360:2397   */\n  shr\n    /* \"#utility.yul\":2356:2398   */\n  not\n    /* \"#utility.yul\":2341:2399   */\n  and\n    /* \"#utility.yul\":2326:2400   */\n  dup2\n  sstore\n    /* \"#utility.yul\":2213:2414   */\ntag_48:\n  pop\n  pop\n  pop\n  pop\n  pop\n    /* \"#utility.yul\":2460:2461   */\n  0x01\n    /* \"#utility.yul\":2444:2458   */\n  swap1\n  dup2\n  shl\n    /* \"#utility.yul\":2440:2462   */\n  add\n    /* \"#utility.yul\":2427:2463   */\n  swap1\n  sstore\n  pop\n    /* \"#utility.yul\":1378:2730   */\n  jump\t// out\n    /* \"#utility.yul\":2735:2912   */\ntag_22:\n    /* \"pegged-token.sol\":6699:13131  contract USDT is Context, IZRC20, Ownable {... */\n  dataSize(sub_0)\n  dup1\n  dataOffset(sub_0)\n  0x00\n  codecopy\n  0x00\n  return\nstop\n\nsub_0: assembly {\n        /* \"pegged-token.sol\":6699:13131  contract USDT is Context, IZRC20, Ownable {... */\n      mstore(0x40, 0x80)\n      callvalue\n      dup1\n      iszero\n      tag_1\n      jumpi\n      0x00\n      dup1\n      revert\n    tag_1:\n      pop\n      jumpi(tag_2, lt(calldatasize, 0x04))\n      shr(0xe0, calldataload(0x00))\n      dup1\n      0x715018a6\n      gt\n      tag_20\n      jumpi\n      dup1\n      0x9dc29fac\n      gt\n      tag_21\n      jumpi\n      dup1\n      0x9dc29fac\n      eq\n      tag_15\n      jumpi\n      dup1\n      0xa9059cbb\n      eq\n      tag_16\n      jumpi\n      dup1\n      0xdd62ed3e\n      eq\n      tag_17\n      jumpi\n      dup1\n      0xf2c098b7\n      eq\n      tag_18\n      jumpi\n      dup1\n      0xf2fde38b\n      eq\n      tag_19\n      jumpi\n      0x00\n      dup1\n      revert\n    tag_21:\n      dup1\n      0x715018a6\n      eq\n      tag_11\n      jumpi\n      dup1\n      0x893d20e8\n      eq\n      tag_12\n      jumpi\n      dup1\n      0x8da5cb5b\n      eq\n      tag_13\n      jumpi\n      dup1\n      0x95d89b41\n      eq\n      tag_14\n      jumpi\n      0x00\n      dup1\n      revert\n    tag_20:\n      dup1\n      0x23b872dd\n      gt\n      tag_22\n      jumpi\n      dup1\n      0x23b872dd\n      eq\n      tag_7\n      jumpi\n      dup1\n      0x313ce567\n      eq\n      tag_8\n      jumpi\n      dup1\n      0x40c10f19\n      eq\n      tag_9\n      jumpi\n      dup1\n      0x70a08231\n      eq\n      tag_10\n      jumpi\n      0x00\n      dup1\n      revert\n    tag_22:\n      dup1\n      0x06fdde03\n      eq\n      tag_3\n      jumpi\n      dup1\n      0x092a5cce\n      eq\n      tag_4\n      jumpi\n      dup1\n      0x095ea7b3\n      eq\n      tag_5\n      jumpi\n      dup1\n      0x18160ddd\n      eq\n      tag_6\n      jumpi\n    tag_2:\n      0x00\n      dup1\n      revert\n        /* \"pegged-token.sol\":7833:7910  function name() external view returns (string memory) {... */\n    tag_3:\n      tag_23\n      tag_24\n      jump\t// in\n    tag_23:\n      mload(0x40)\n      tag_25\n      swap2\n      swap1\n      tag_26\n      jump\t// in\n    tag_25:\n      mload(0x40)\n      dup1\n      swap2\n      sub\n      swap1\n      return\n        /* \"pegged-token.sol\":13037:13128  function destroyContract() external onlyOwner{... */\n    tag_4:\n      tag_27\n      tag_28\n      jump\t// in\n    tag_27:\n      stop\n        /* \"pegged-token.sol\":8828:8969  function approve(address spender, uint256 amount) external returns (bool) {... */\n    tag_5:\n      tag_29\n      tag_30\n      calldatasize\n      0x04\n      tag_31\n      jump\t// in\n    tag_30:\n      tag_32\n      jump\t// in\n    tag_29:\n      mload(0x40)\n        /* \"#utility.yul\":1169:1183   */\n      swap1\n      iszero\n        /* \"#utility.yul\":1162:1184   */\n      iszero\n        /* \"#utility.yul\":1144:1185   */\n      dup2\n      mstore\n        /* \"#utility.yul\":1132:1134   */\n      0x20\n        /* \"#utility.yul\":1117:1135   */\n      add\n        /* \"pegged-token.sol\":8828:8969  function approve(address spender, uint256 amount) external returns (bool) {... */\n      tag_25\n        /* \"#utility.yul\":1004:1191   */\n      jump\n        /* \"pegged-token.sol\":7961:8046  function totalSupply() external view returns (uint256) {... */\n    tag_6:\n        /* \"pegged-token.sol\":8029:8041  _totalSupply */\n      sload(0x03)\n        /* \"pegged-token.sol\":7961:8046  function totalSupply() external view returns (uint256) {... */\n    tag_35:\n      mload(0x40)\n        /* \"#utility.yul\":1342:1367   */\n      swap1\n      dup2\n      mstore\n        /* \"#utility.yul\":1330:1332   */\n      0x20\n        /* \"#utility.yul\":1315:1333   */\n      add\n        /* \"pegged-token.sol\":7961:8046  function totalSupply() external view returns (uint256) {... */\n      tag_25\n        /* \"#utility.yul\":1196:1373   */\n      jump\n        /* \"pegged-token.sol\":9400:9641  function transferFrom(address sender, address recipient, uint256 amount) external returns (bool) {... */\n    tag_7:\n      tag_29\n      tag_40\n      calldatasize\n      0x04\n      tag_41\n      jump\t// in\n    tag_40:\n      tag_42\n      jump\t// in\n        /* \"pegged-token.sol\":7575:7652  function decimals() external view returns (uint8) {... */\n    tag_8:\n        /* \"pegged-token.sol\":7638:7647  _decimals */\n      sload(0x04)\n        /* \"pegged-token.sol\":7575:7652  function decimals() external view returns (uint8) {... */\n      mload(0x40)\n        /* \"pegged-token.sol\":7638:7647  _decimals */\n      0xff\n      swap1\n      swap2\n      and\n        /* \"#utility.yul\":1853:1889   */\n      dup2\n      mstore\n        /* \"#utility.yul\":1841:1843   */\n      0x20\n        /* \"#utility.yul\":1826:1844   */\n      add\n        /* \"pegged-token.sol\":7575:7652  function decimals() external view returns (uint8) {... */\n      tag_25\n        /* \"#utility.yul\":1711:1895   */\n      jump\n        /* \"pegged-token.sol\":9832:10056  function mint(address account,uint256 amount) public onlyDepositor returns (bool) {... */\n    tag_9:\n      tag_29\n      tag_49\n      calldatasize\n      0x04\n      tag_31\n      jump\t// in\n    tag_49:\n      tag_50\n      jump\t// in\n        /* \"pegged-token.sol\":8095:8199  function balanceOf(address account) external view returns (uint256) {... */\n    tag_10:\n      tag_35\n      tag_53\n      calldatasize\n      0x04\n      tag_54\n      jump\t// in\n    tag_53:\n      sub(shl(0xa0, 0x01), 0x01)\n        /* \"pegged-token.sol\":8176:8194  _balances[account] */\n      and\n        /* \"pegged-token.sol\":8154:8161  uint256 */\n      0x00\n        /* \"pegged-token.sol\":8176:8194  _balances[account] */\n      swap1\n      dup2\n      mstore\n        /* \"pegged-token.sol\":8176:8185  _balances */\n      0x01\n        /* \"pegged-token.sol\":8176:8194  _balances[account] */\n      0x20\n      mstore\n      0x40\n      swap1\n      keccak256\n      sload\n      swap1\n        /* \"pegged-token.sol\":8095:8199  function balanceOf(address account) external view returns (uint256) {... */\n      jump\n        /* \"pegged-token.sol\":6024:6151  function renounceOwnership() public onlyOwner {... */\n    tag_11:\n      tag_27\n      tag_58\n      jump\t// in\n        /* \"pegged-token.sol\":7444:7521  function getOwner() external view returns (address) {... */\n    tag_12:\n        /* \"pegged-token.sol\":7487:7494  address */\n      0x00\n        /* \"pegged-token.sol\":5501:5507  _owner */\n      sload\n      sub(shl(0xa0, 0x01), 0x01)\n      and\n        /* \"pegged-token.sol\":7444:7521  function getOwner() external view returns (address) {... */\n    tag_59:\n      mload(0x40)\n      sub(shl(0xa0, 0x01), 0x01)\n        /* \"#utility.yul\":2255:2287   */\n      swap1\n      swap2\n      and\n        /* \"#utility.yul\":2237:2288   */\n      dup2\n      mstore\n        /* \"#utility.yul\":2225:2227   */\n      0x20\n        /* \"#utility.yul\":2210:2228   */\n      add\n        /* \"pegged-token.sol\":7444:7521  function getOwner() external view returns (address) {... */\n      tag_25\n        /* \"#utility.yul\":2091:2294   */\n      jump\n        /* \"pegged-token.sol\":5441:5512  function owner() public view returns (address) {... */\n    tag_13:\n        /* \"pegged-token.sol\":5479:5486  address */\n      0x00\n        /* \"pegged-token.sol\":5501:5507  _owner */\n      sload\n      sub(shl(0xa0, 0x01), 0x01)\n      and\n        /* \"pegged-token.sol\":5441:5512  function owner() public view returns (address) {... */\n      jump(tag_59)\n        /* \"pegged-token.sol\":7704:7785  function symbol() external view returns (string memory) {... */\n    tag_14:\n      tag_23\n      tag_67\n      jump\t// in\n        /* \"pegged-token.sol\":10136:10361  function burn(address account ,uint256 amount) public onlyDepositor returns (bool) {... */\n    tag_15:\n      tag_29\n      tag_70\n      calldatasize\n      0x04\n      tag_31\n      jump\t// in\n    tag_70:\n      tag_71\n      jump\t// in\n        /* \"pegged-token.sol\":8383:8530  function transfer(address recipient, uint256 amount) external returns (bool) {... */\n    tag_16:\n      tag_29\n      tag_74\n      calldatasize\n      0x04\n      tag_31\n      jump\t// in\n    tag_74:\n      tag_75\n      jump\t// in\n        /* \"pegged-token.sol\":8579:8707  function allowance(address owner, address spender) external view returns (uint256) {... */\n    tag_17:\n      tag_35\n      tag_78\n      calldatasize\n      0x04\n      tag_79\n      jump\t// in\n    tag_78:\n      sub(shl(0xa0, 0x01), 0x01)\n        /* \"pegged-token.sol\":8675:8693  _allowances[owner] */\n      swap2\n      dup3\n      and\n        /* \"pegged-token.sol\":8653:8660  uint256 */\n      0x00\n        /* \"pegged-token.sol\":8675:8693  _allowances[owner] */\n      swap1\n      dup2\n      mstore\n        /* \"pegged-token.sol\":8675:8686  _allowances */\n      0x02\n        /* \"pegged-token.sol\":8675:8693  _allowances[owner] */\n      0x20\n      swap1\n      dup2\n      mstore\n      0x40\n      dup1\n      dup4\n      keccak256\n        /* \"pegged-token.sol\":8675:8702  _allowances[owner][spender] */\n      swap4\n      swap1\n      swap5\n      and\n      dup3\n      mstore\n      swap2\n      swap1\n      swap2\n      mstore\n      keccak256\n      sload\n      swap1\n        /* \"pegged-token.sol\":8579:8707  function allowance(address owner, address spender) external view returns (uint256) {... */\n      jump\n        /* \"pegged-token.sol\":7295:7388  function setDepositor(address depositor) external onlyOwner {... */\n    tag_18:\n      tag_27\n      tag_83\n      calldatasize\n      0x04\n      tag_54\n      jump\t// in\n    tag_83:\n      tag_84\n      jump\t// in\n        /* \"pegged-token.sol\":6290:6391  function transferOwnership(address newOwner) public onlyOwner {... */\n    tag_19:\n      tag_27\n      tag_86\n      calldatasize\n      0x04\n      tag_54\n      jump\t// in\n    tag_86:\n      tag_87\n      jump\t// in\n        /* \"pegged-token.sol\":7833:7910  function name() external view returns (string memory) {... */\n    tag_24:\n        /* \"pegged-token.sol\":7872:7885  string memory */\n      0x60\n        /* \"pegged-token.sol\":7900:7905  _name */\n      0x06\n        /* \"pegged-token.sol\":7893:7905  return _name */\n      dup1\n      sload\n      tag_89\n      swap1\n      tag_90\n      jump\t// in\n    tag_89:\n      dup1\n      0x1f\n      add\n      0x20\n      dup1\n      swap2\n      div\n      mul\n      0x20\n      add\n      mload(0x40)\n      swap1\n      dup2\n      add\n      0x40\n      mstore\n      dup1\n      swap3\n      swap2\n      swap1\n      dup2\n      dup2\n      mstore\n      0x20\n      add\n      dup3\n      dup1\n      sload\n      tag_91\n      swap1\n      tag_90\n      jump\t// in\n    tag_91:\n      dup1\n      iszero\n      tag_92\n      jumpi\n      dup1\n      0x1f\n      lt\n      tag_93\n      jumpi\n      0x0100\n      dup1\n      dup4\n      sload\n      div\n      mul\n      dup4\n      mstore\n      swap2\n      0x20\n      add\n      swap2\n      jump(tag_92)\n    tag_93:\n      dup3\n      add\n      swap2\n      swap1\n      0x00\n      mstore\n      keccak256(0x00, 0x20)\n      swap1\n    tag_94:\n      dup2\n      sload\n      dup2\n      mstore\n      swap1\n      0x01\n      add\n      swap1\n      0x20\n      add\n      dup1\n      dup4\n      gt\n      tag_94\n      jumpi\n      dup3\n      swap1\n      sub\n      0x1f\n      and\n      dup3\n      add\n      swap2\n    tag_92:\n      pop\n      pop\n      pop\n      pop\n      pop\n      swap1\n      pop\n        /* \"pegged-token.sol\":7833:7910  function name() external view returns (string memory) {... */\n      swap1\n      jump\t// out\n        /* \"pegged-token.sol\":13037:13128  function destroyContract() external onlyOwner{... */\n    tag_28:\n        /* \"pegged-token.sol\":5627:5633  _owner */\n      and(sub(shl(0xa0, 0x01), 0x01), sload(0x00))\n        /* \"pegged-token.sol\":3702:3712  msg.sender */\n      caller\n        /* \"pegged-token.sol\":5627:5649  _owner == _msgSender() */\n      eq\n        /* \"pegged-token.sol\":5619:5686  require(_owner == _msgSender(), \"Ownable: caller is not the owner\") */\n      tag_98\n      jumpi\n      mload(0x40)\n      shl(0xe5, 0x461bcd)\n      dup2\n      mstore\n      0x04\n      add\n      tag_99\n      swap1\n      tag_100\n      jump\t// in\n    tag_99:\n      mload(0x40)\n      dup1\n      swap2\n      sub\n      swap1\n      revert\n    tag_98:\n        /* \"pegged-token.sol\":3702:3712  msg.sender */\n      caller\n        /* \"pegged-token.sol\":13088:13123  selfdestruct(payable(_msgSender())) */\n      selfdestruct\n        /* \"pegged-token.sol\":8828:8969  function approve(address spender, uint256 amount) external returns (bool) {... */\n    tag_32:\n        /* \"pegged-token.sol\":8896:8900  bool */\n      0x00\n        /* \"pegged-token.sol\":8908:8947  _approve(_msgSender(), spender, amount) */\n      tag_104\n        /* \"pegged-token.sol\":3702:3712  msg.sender */\n      caller\n        /* \"pegged-token.sol\":8931:8938  spender */\n      dup5\n        /* \"pegged-token.sol\":8940:8946  amount */\n      dup5\n        /* \"pegged-token.sol\":8908:8916  _approve */\n      tag_106\n        /* \"pegged-token.sol\":8908:8947  _approve(_msgSender(), spender, amount) */\n      jump\t// in\n    tag_104:\n      pop\n        /* \"pegged-token.sol\":8960:8964  true */\n      0x01\n        /* \"pegged-token.sol\":8828:8969  function approve(address spender, uint256 amount) external returns (bool) {... */\n    tag_103:\n      swap3\n      swap2\n      pop\n      pop\n      jump\t// out\n        /* \"pegged-token.sol\":9400:9641  function transferFrom(address sender, address recipient, uint256 amount) external returns (bool) {... */\n    tag_42:\n        /* \"pegged-token.sol\":9491:9495  bool */\n      0x00\n        /* \"pegged-token.sol\":9503:9539  _transfer(sender, recipient, amount) */\n      tag_109\n        /* \"pegged-token.sol\":9513:9519  sender */\n      dup5\n        /* \"pegged-token.sol\":9521:9530  recipient */\n      dup5\n        /* \"pegged-token.sol\":9532:9538  amount */\n      dup5\n        /* \"pegged-token.sol\":9503:9512  _transfer */\n      tag_110\n        /* \"pegged-token.sol\":9503:9539  _transfer(sender, recipient, amount) */\n      jump\t// in\n    tag_109:\n      sub(shl(0xa0, 0x01), 0x01)\n        /* \"pegged-token.sol\":9576:9595  _allowances[sender] */\n      dup5\n      and\n      0x00\n      swap1\n      dup2\n      mstore\n        /* \"pegged-token.sol\":9576:9587  _allowances */\n      0x02\n        /* \"pegged-token.sol\":9576:9595  _allowances[sender] */\n      0x20\n      swap1\n      dup2\n      mstore\n      0x40\n      dup1\n      dup4\n      keccak256\n        /* \"pegged-token.sol\":3702:3712  msg.sender */\n      caller\n        /* \"pegged-token.sol\":9576:9609  _allowances[sender][_msgSender()] */\n      dup1\n      dup6\n      mstore\n      swap3\n      mstore\n      swap1\n      swap2\n      keccak256\n      sload\n        /* \"pegged-token.sol\":9545:9619  _approve(sender, _msgSender(), _allowances[sender][_msgSender()] - amount) */\n      tag_111\n      swap2\n        /* \"pegged-token.sol\":9554:9560  sender */\n      dup7\n      swap2\n        /* \"pegged-token.sol\":9576:9618  _allowances[sender][_msgSender()] - amount */\n      tag_114\n      swap1\n        /* \"pegged-token.sol\":9612:9618  amount */\n      dup7\n      swap1\n        /* \"pegged-token.sol\":9576:9618  _allowances[sender][_msgSender()] - amount */\n      tag_115\n      jump\t// in\n    tag_114:\n        /* \"pegged-token.sol\":9545:9553  _approve */\n      tag_106\n        /* \"pegged-token.sol\":9545:9619  _approve(sender, _msgSender(), _allowances[sender][_msgSender()] - amount) */\n      jump\t// in\n    tag_111:\n      pop\n        /* \"pegged-token.sol\":9632:9636  true */\n      0x01\n        /* \"pegged-token.sol\":9400:9641  function transferFrom(address sender, address recipient, uint256 amount) external returns (bool) {... */\n      swap4\n      swap3\n      pop\n      pop\n      pop\n      jump\t// out\n        /* \"pegged-token.sol\":9832:10056  function mint(address account,uint256 amount) public onlyDepositor returns (bool) {... */\n    tag_50:\n        /* \"pegged-token.sol\":7237:7247  _depositor */\n      sload(0x07)\n        /* \"pegged-token.sol\":9908:9912  bool */\n      0x00\n      swap1\n      sub(shl(0xa0, 0x01), 0x01)\n        /* \"pegged-token.sol\":7237:7247  _depositor */\n      and\n        /* \"pegged-token.sol\":3702:3712  msg.sender */\n      caller\n      sub(shl(0xa0, 0x01), 0x01)\n        /* \"pegged-token.sol\":7221:7247  _msgSender() == _depositor */\n      and\n      eq\n        /* \"pegged-token.sol\":7213:7279  require(_msgSender() == _depositor, \"caller is not the depositor\") */\n      tag_119\n      jumpi\n      mload(0x40)\n      shl(0xe5, 0x461bcd)\n      dup2\n      mstore\n        /* \"#utility.yul\":3777:3779   */\n      0x20\n        /* \"pegged-token.sol\":7213:7279  require(_msgSender() == _depositor, \"caller is not the depositor\") */\n      0x04\n      dup3\n      add\n        /* \"#utility.yul\":3759:3780   */\n      mstore\n        /* \"#utility.yul\":3816:3818   */\n      0x1b\n        /* \"#utility.yul\":3796:3814   */\n      0x24\n      dup3\n      add\n        /* \"#utility.yul\":3789:3819   */\n      mstore\n        /* \"#utility.yul\":3855:3884   */\n      0x63616c6c6572206973206e6f7420746865206465706f7369746f720000000000\n        /* \"#utility.yul\":3835:3853   */\n      0x44\n      dup3\n      add\n        /* \"#utility.yul\":3828:3885   */\n      mstore\n        /* \"#utility.yul\":3902:3920   */\n      0x64\n      add\n        /* \"pegged-token.sol\":7213:7279  require(_msgSender() == _depositor, \"caller is not the depositor\") */\n      tag_99\n        /* \"#utility.yul\":3575:3926   */\n      jump\n        /* \"pegged-token.sol\":7213:7279  require(_msgSender() == _depositor, \"caller is not the depositor\") */\n    tag_119:\n      sub(shl(0xa0, 0x01), 0x01)\n        /* \"pegged-token.sol\":9928:9947  account!=address(0) */\n      dup4\n      and\n        /* \"pegged-token.sol\":9920:9966  require(account!=address(0),\"invalid account\") */\n      tag_123\n      jumpi\n      mload(0x40)\n      shl(0xe5, 0x461bcd)\n      dup2\n      mstore\n        /* \"#utility.yul\":4133:4135   */\n      0x20\n        /* \"pegged-token.sol\":9920:9966  require(account!=address(0),\"invalid account\") */\n      0x04\n      dup3\n      add\n        /* \"#utility.yul\":4115:4136   */\n      mstore\n        /* \"#utility.yul\":4172:4174   */\n      0x0f\n        /* \"#utility.yul\":4152:4170   */\n      0x24\n      dup3\n      add\n        /* \"#utility.yul\":4145:4175   */\n      mstore\n      shl(0x8a, 0x1a5b9d985b1a59081858d8dbdd5b9d)\n        /* \"#utility.yul\":4191:4209   */\n      0x44\n      dup3\n      add\n        /* \"#utility.yul\":4184:4229   */\n      mstore\n        /* \"#utility.yul\":4246:4264   */\n      0x64\n      add\n        /* \"pegged-token.sol\":9920:9966  require(account!=address(0),\"invalid account\") */\n      tag_99\n        /* \"#utility.yul\":3931:4270   */\n      jump\n        /* \"pegged-token.sol\":9920:9966  require(account!=address(0),\"invalid account\") */\n    tag_123:\n        /* \"pegged-token.sol\":9987:9988  0 */\n      0x00\n        /* \"pegged-token.sol\":9980:9986  amount */\n      dup3\n        /* \"pegged-token.sol\":9980:9988  amount>0 */\n      gt\n        /* \"pegged-token.sol\":9972:10006  require(amount>0,\"invalid amount\") */\n      tag_126\n      jumpi\n      mload(0x40)\n      shl(0xe5, 0x461bcd)\n      dup2\n      mstore\n        /* \"#utility.yul\":4477:4479   */\n      0x20\n        /* \"pegged-token.sol\":9972:10006  require(amount>0,\"invalid amount\") */\n      0x04\n      dup3\n      add\n        /* \"#utility.yul\":4459:4480   */\n      mstore\n        /* \"#utility.yul\":4516:4518   */\n      0x0e\n        /* \"#utility.yul\":4496:4514   */\n      0x24\n      dup3\n      add\n        /* \"#utility.yul\":4489:4519   */\n      mstore\n      shl(0x92, 0x1a5b9d985b1a5908185b5bdd5b9d)\n        /* \"#utility.yul\":4535:4553   */\n      0x44\n      dup3\n      add\n        /* \"#utility.yul\":4528:4572   */\n      mstore\n        /* \"#utility.yul\":4589:4607   */\n      0x64\n      add\n        /* \"pegged-token.sol\":9972:10006  require(amount>0,\"invalid amount\") */\n      tag_99\n        /* \"#utility.yul\":4275:4613   */\n      jump\n        /* \"pegged-token.sol\":9972:10006  require(amount>0,\"invalid amount\") */\n    tag_126:\n        /* \"pegged-token.sol\":10012:10034  _mint(account, amount) */\n      tag_104\n        /* \"pegged-token.sol\":10018:10025  account */\n      dup4\n        /* \"pegged-token.sol\":10027:10033  amount */\n      dup4\n        /* \"pegged-token.sol\":10012:10017  _mint */\n      tag_130\n        /* \"pegged-token.sol\":10012:10034  _mint(account, amount) */\n      jump\t// in\n        /* \"pegged-token.sol\":6024:6151  function renounceOwnership() public onlyOwner {... */\n    tag_58:\n        /* \"pegged-token.sol\":5627:5633  _owner */\n      and(sub(shl(0xa0, 0x01), 0x01), sload(0x00))\n        /* \"pegged-token.sol\":3702:3712  msg.sender */\n      caller\n        /* \"pegged-token.sol\":5627:5649  _owner == _msgSender() */\n      eq\n        /* \"pegged-token.sol\":5619:5686  require(_owner == _msgSender(), \"Ownable: caller is not the owner\") */\n      tag_134\n      jumpi\n      mload(0x40)\n      shl(0xe5, 0x461bcd)\n      dup2\n      mstore\n      0x04\n      add\n      tag_99\n      swap1\n      tag_100\n      jump\t// in\n    tag_134:\n        /* \"pegged-token.sol\":6118:6119  0 */\n      0x00\n        /* \"pegged-token.sol\":6102:6108  _owner */\n      dup1\n      sload\n        /* \"pegged-token.sol\":6081:6121  OwnershipTransferred(_owner, address(0)) */\n      mload(0x40)\n      sub(shl(0xa0, 0x01), 0x01)\n        /* \"pegged-token.sol\":6102:6108  _owner */\n      swap1\n      swap2\n      and\n      swap1\n        /* \"pegged-token.sol\":6081:6121  OwnershipTransferred(_owner, address(0)) */\n      0x8be0079c531659141344cd1fd0a4f28419497f9722a3daafe3b4186f6b6457e0\n      swap1\n        /* \"pegged-token.sol\":6118:6119  0 */\n      dup4\n      swap1\n        /* \"pegged-token.sol\":6081:6121  OwnershipTransferred(_owner, address(0)) */\n      log3\n        /* \"pegged-token.sol\":6144:6145  0 */\n      0x00\n        /* \"pegged-token.sol\":6127:6146  _owner = address(0) */\n      dup1\n      sload\n      not(sub(shl(0xa0, 0x01), 0x01))\n      and\n      swap1\n      sstore\n        /* \"pegged-token.sol\":6024:6151  function renounceOwnership() public onlyOwner {... */\n      jump\t// out\n        /* \"pegged-token.sol\":7704:7785  function symbol() external view returns (string memory) {... */\n    tag_67:\n        /* \"pegged-token.sol\":7745:7758  string memory */\n      0x60\n        /* \"pegged-token.sol\":7773:7780  _symbol */\n      0x05\n        /* \"pegged-token.sol\":7766:7780  return _symbol */\n      dup1\n      sload\n      tag_89\n      swap1\n      tag_90\n      jump\t// in\n        /* \"pegged-token.sol\":10136:10361  function burn(address account ,uint256 amount) public onlyDepositor returns (bool) {... */\n    tag_71:\n        /* \"pegged-token.sol\":7237:7247  _depositor */\n      sload(0x07)\n        /* \"pegged-token.sol\":10213:10217  bool */\n      0x00\n      swap1\n      sub(shl(0xa0, 0x01), 0x01)\n        /* \"pegged-token.sol\":7237:7247  _depositor */\n      and\n        /* \"pegged-token.sol\":3702:3712  msg.sender */\n      caller\n      sub(shl(0xa0, 0x01), 0x01)\n        /* \"pegged-token.sol\":7221:7247  _msgSender() == _depositor */\n      and\n      eq\n        /* \"pegged-token.sol\":7213:7279  require(_msgSender() == _depositor, \"caller is not the depositor\") */\n      tag_148\n      jumpi\n      mload(0x40)\n      shl(0xe5, 0x461bcd)\n      dup2\n      mstore\n        /* \"#utility.yul\":3777:3779   */\n      0x20\n        /* \"pegged-token.sol\":7213:7279  require(_msgSender() == _depositor, \"caller is not the depositor\") */\n      0x04\n      dup3\n      add\n        /* \"#utility.yul\":3759:3780   */\n      mstore\n        /* \"#utility.yul\":3816:3818   */\n      0x1b\n        /* \"#utility.yul\":3796:3814   */\n      0x24\n      dup3\n      add\n        /* \"#utility.yul\":3789:3819   */\n      mstore\n        /* \"#utility.yul\":3855:3884   */\n      0x63616c6c6572206973206e6f7420746865206465706f7369746f720000000000\n        /* \"#utility.yul\":3835:3853   */\n      0x44\n      dup3\n      add\n        /* \"#utility.yul\":3828:3885   */\n      mstore\n        /* \"#utility.yul\":3902:3920   */\n      0x64\n      add\n        /* \"pegged-token.sol\":7213:7279  require(_msgSender() == _depositor, \"caller is not the depositor\") */\n      tag_99\n        /* \"#utility.yul\":3575:3926   */\n      jump\n        /* \"pegged-token.sol\":7213:7279  require(_msgSender() == _depositor, \"caller is not the depositor\") */\n    tag_148:\n      sub(shl(0xa0, 0x01), 0x01)\n        /* \"pegged-token.sol\":10233:10252  account!=address(0) */\n      dup4\n      and\n        /* \"pegged-token.sol\":10225:10271  require(account!=address(0),\"invalid account\") */\n      tag_151\n      jumpi\n      mload(0x40)\n      shl(0xe5, 0x461bcd)\n      dup2\n      mstore\n        /* \"#utility.yul\":4133:4135   */\n      0x20\n        /* \"pegged-token.sol\":10225:10271  require(account!=address(0),\"invalid account\") */\n      0x04\n      dup3\n      add\n        /* \"#utility.yul\":4115:4136   */\n      mstore\n        /* \"#utility.yul\":4172:4174   */\n      0x0f\n        /* \"#utility.yul\":4152:4170   */\n      0x24\n      dup3\n      add\n        /* \"#utility.yul\":4145:4175   */\n      mstore\n      shl(0x8a, 0x1a5b9d985b1a59081858d8dbdd5b9d)\n        /* \"#utility.yul\":4191:4209   */\n      0x44\n      dup3\n      add\n        /* \"#utility.yul\":4184:4229   */\n      mstore\n        /* \"#utility.yul\":4246:4264   */\n      0x64\n      add\n        /* \"pegged-token.sol\":10225:10271  require(account!=address(0),\"invalid account\") */\n      tag_99\n        /* \"#utility.yul\":3931:4270   */\n      jump\n        /* \"pegged-token.sol\":10225:10271  require(account!=address(0),\"invalid account\") */\n    tag_151:\n        /* \"pegged-token.sol\":10292:10293  0 */\n      0x00\n        /* \"pegged-token.sol\":10285:10291  amount */\n      dup3\n        /* \"pegged-token.sol\":10285:10293  amount>0 */\n      gt\n        /* \"pegged-token.sol\":10277:10311  require(amount>0,\"invalid amount\") */\n      tag_153\n      jumpi\n      mload(0x40)\n      shl(0xe5, 0x461bcd)\n      dup2\n      mstore\n        /* \"#utility.yul\":4477:4479   */\n      0x20\n        /* \"pegged-token.sol\":10277:10311  require(amount>0,\"invalid amount\") */\n      0x04\n      dup3\n      add\n        /* \"#utility.yul\":4459:4480   */\n      mstore\n        /* \"#utility.yul\":4516:4518   */\n      0x0e\n        /* \"#utility.yul\":4496:4514   */\n      0x24\n      dup3\n      add\n        /* \"#utility.yul\":4489:4519   */\n      mstore\n      shl(0x92, 0x1a5b9d985b1a5908185b5bdd5b9d)\n        /* \"#utility.yul\":4535:4553   */\n      0x44\n      dup3\n      add\n        /* \"#utility.yul\":4528:4572   */\n      mstore\n        /* \"#utility.yul\":4589:4607   */\n      0x64\n      add\n        /* \"pegged-token.sol\":10277:10311  require(amount>0,\"invalid amount\") */\n      tag_99\n        /* \"#utility.yul\":4275:4613   */\n      jump\n        /* \"pegged-token.sol\":10277:10311  require(amount>0,\"invalid amount\") */\n    tag_153:\n        /* \"pegged-token.sol\":10317:10339  _burn(account, amount) */\n      tag_104\n        /* \"pegged-token.sol\":10323:10330  account */\n      dup4\n        /* \"pegged-token.sol\":10332:10338  amount */\n      dup4\n        /* \"pegged-token.sol\":10317:10322  _burn */\n      tag_156\n        /* \"pegged-token.sol\":10317:10339  _burn(account, amount) */\n      jump\t// in\n        /* \"pegged-token.sol\":8383:8530  function transfer(address recipient, uint256 amount) external returns (bool) {... */\n    tag_75:\n        /* \"pegged-token.sol\":8454:8458  bool */\n      0x00\n        /* \"pegged-token.sol\":8466:8508  _transfer(_msgSender(), recipient, amount) */\n      tag_104\n        /* \"pegged-token.sol\":3702:3712  msg.sender */\n      caller\n        /* \"pegged-token.sol\":8490:8499  recipient */\n      dup5\n        /* \"pegged-token.sol\":8501:8507  amount */\n      dup5\n        /* \"pegged-token.sol\":8466:8475  _transfer */\n      tag_110\n        /* \"pegged-token.sol\":8466:8508  _transfer(_msgSender(), recipient, amount) */\n      jump\t// in\n        /* \"pegged-token.sol\":7295:7388  function setDepositor(address depositor) external onlyOwner {... */\n    tag_84:\n        /* \"pegged-token.sol\":5627:5633  _owner */\n      and(sub(shl(0xa0, 0x01), 0x01), sload(0x00))\n        /* \"pegged-token.sol\":3702:3712  msg.sender */\n      caller\n        /* \"pegged-token.sol\":5627:5649  _owner == _msgSender() */\n      eq\n        /* \"pegged-token.sol\":5619:5686  require(_owner == _msgSender(), \"Ownable: caller is not the owner\") */\n      tag_163\n      jumpi\n      mload(0x40)\n      shl(0xe5, 0x461bcd)\n      dup2\n      mstore\n      0x04\n      add\n      tag_99\n      swap1\n      tag_100\n      jump\t// in\n    tag_163:\n        /* \"pegged-token.sol\":7361:7371  _depositor */\n      0x07\n        /* \"pegged-token.sol\":7361:7383  _depositor = depositor */\n      dup1\n      sload\n      not(sub(shl(0xa0, 0x01), 0x01))\n      and\n      sub(shl(0xa0, 0x01), 0x01)\n      swap3\n      swap1\n      swap3\n      and\n      swap2\n      swap1\n      swap2\n      or\n      swap1\n      sstore\n        /* \"pegged-token.sol\":7295:7388  function setDepositor(address depositor) external onlyOwner {... */\n      jump\t// out\n        /* \"pegged-token.sol\":6290:6391  function transferOwnership(address newOwner) public onlyOwner {... */\n    tag_87:\n        /* \"pegged-token.sol\":5627:5633  _owner */\n      and(sub(shl(0xa0, 0x01), 0x01), sload(0x00))\n        /* \"pegged-token.sol\":3702:3712  msg.sender */\n      caller\n        /* \"pegged-token.sol\":5627:5649  _owner == _msgSender() */\n      eq\n        /* \"pegged-token.sol\":5619:5686  require(_owner == _msgSender(), \"Ownable: caller is not the owner\") */\n      tag_168\n      jumpi\n      mload(0x40)\n      shl(0xe5, 0x461bcd)\n      dup2\n      mstore\n      0x04\n      add\n      tag_99\n      swap1\n      tag_100\n      jump\t// in\n    tag_168:\n        /* \"pegged-token.sol\":6358:6386  _transferOwnership(newOwner) */\n      tag_171\n        /* \"pegged-token.sol\":6377:6385  newOwner */\n      dup2\n        /* \"pegged-token.sol\":6358:6376  _transferOwnership */\n      tag_172\n        /* \"pegged-token.sol\":6358:6386  _transferOwnership(newOwner) */\n      jump\t// in\n    tag_171:\n        /* \"pegged-token.sol\":6290:6391  function transferOwnership(address newOwner) public onlyOwner {... */\n      pop\n      jump\t// out\n        /* \"pegged-token.sol\":12699:13013  function _approve(address owner, address spender, uint256 amount) internal {... */\n    tag_106:\n      sub(shl(0xa0, 0x01), 0x01)\n        /* \"pegged-token.sol\":12788:12807  owner != address(0) */\n      dup4\n      and\n        /* \"pegged-token.sol\":12780:12848  require(owner != address(0), \"ZRC20: approve from the zero address\") */\n      tag_175\n      jumpi\n      mload(0x40)\n      shl(0xe5, 0x461bcd)\n      dup2\n      mstore\n        /* \"#utility.yul\":4820:4822   */\n      0x20\n        /* \"pegged-token.sol\":12780:12848  require(owner != address(0), \"ZRC20: approve from the zero address\") */\n      0x04\n      dup3\n      add\n        /* \"#utility.yul\":4802:4823   */\n      mstore\n        /* \"#utility.yul\":4859:4861   */\n      0x24\n        /* \"#utility.yul\":4839:4857   */\n      dup1\n      dup3\n      add\n        /* \"#utility.yul\":4832:4862   */\n      mstore\n        /* \"#utility.yul\":4898:4932   */\n      0x5a524332303a20617070726f76652066726f6d20746865207a65726f20616464\n        /* \"#utility.yul\":4878:4896   */\n      0x44\n      dup3\n      add\n        /* \"#utility.yul\":4871:4933   */\n      mstore\n      shl(0xe0, 0x72657373)\n        /* \"#utility.yul\":4949:4967   */\n      0x64\n      dup3\n      add\n        /* \"#utility.yul\":4942:4976   */\n      mstore\n        /* \"#utility.yul\":4993:5012   */\n      0x84\n      add\n        /* \"pegged-token.sol\":12780:12848  require(owner != address(0), \"ZRC20: approve from the zero address\") */\n      tag_99\n        /* \"#utility.yul\":4618:5018   */\n      jump\n        /* \"pegged-token.sol\":12780:12848  require(owner != address(0), \"ZRC20: approve from the zero address\") */\n    tag_175:\n      sub(shl(0xa0, 0x01), 0x01)\n        /* \"pegged-token.sol\":12862:12883  spender != address(0) */\n      dup3\n      and\n        /* \"pegged-token.sol\":12854:12922  require(spender != address(0), \"ZRC20: approve to the zero address\") */\n      tag_178\n      jumpi\n      mload(0x40)\n      shl(0xe5, 0x461bcd)\n      dup2\n      mstore\n        /* \"#utility.yul\":5225:5227   */\n      0x20\n        /* \"pegged-token.sol\":12854:12922  require(spender != address(0), \"ZRC20: approve to the zero address\") */\n      0x04\n      dup3\n      add\n        /* \"#utility.yul\":5207:5228   */\n      mstore\n        /* \"#utility.yul\":5264:5266   */\n      0x22\n        /* \"#utility.yul\":5244:5262   */\n      0x24\n      dup3\n      add\n        /* \"#utility.yul\":5237:5267   */\n      mstore\n        /* \"#utility.yul\":5303:5337   */\n      0x5a524332303a20617070726f766520746f20746865207a65726f206164647265\n        /* \"#utility.yul\":5283:5301   */\n      0x44\n      dup3\n      add\n        /* \"#utility.yul\":5276:5338   */\n      mstore\n      shl(0xf0, 0x7373)\n        /* \"#utility.yul\":5354:5372   */\n      0x64\n      dup3\n      add\n        /* \"#utility.yul\":5347:5379   */\n      mstore\n        /* \"#utility.yul\":5396:5415   */\n      0x84\n      add\n        /* \"pegged-token.sol\":12854:12922  require(spender != address(0), \"ZRC20: approve to the zero address\") */\n      tag_99\n        /* \"#utility.yul\":5023:5421   */\n      jump\n        /* \"pegged-token.sol\":12854:12922  require(spender != address(0), \"ZRC20: approve to the zero address\") */\n    tag_178:\n      sub(shl(0xa0, 0x01), 0x01)\n        /* \"pegged-token.sol\":12929:12947  _allowances[owner] */\n      dup4\n      dup2\n      and\n      0x00\n      dup2\n      dup2\n      mstore\n        /* \"pegged-token.sol\":12929:12940  _allowances */\n      0x02\n        /* \"pegged-token.sol\":12929:12947  _allowances[owner] */\n      0x20\n      swap1\n      dup2\n      mstore\n      0x40\n      dup1\n      dup4\n      keccak256\n        /* \"pegged-token.sol\":12929:12956  _allowances[owner][spender] */\n      swap5\n      dup8\n      and\n      dup1\n      dup5\n      mstore\n      swap5\n      dup3\n      mstore\n      swap2\n      dup3\n      swap1\n      keccak256\n        /* \"pegged-token.sol\":12929:12965  _allowances[owner][spender] = amount */\n      dup6\n      swap1\n      sstore\n        /* \"pegged-token.sol\":12976:13008  Approval(owner, spender, amount) */\n      swap1\n      mload\n        /* \"#utility.yul\":1342:1367   */\n      dup5\n      dup2\n      mstore\n        /* \"pegged-token.sol\":12976:13008  Approval(owner, spender, amount) */\n      0x8c5be1e5ebec7d5bd14f71427d1e84f3dd0314c0f7b2291e5b200ac8c7c3b925\n      swap2\n        /* \"#utility.yul\":1315:1333   */\n      add\n        /* \"pegged-token.sol\":12976:13008  Approval(owner, spender, amount) */\n    tag_181:\n      mload(0x40)\n      dup1\n      swap2\n      sub\n      swap1\n      log3\n        /* \"pegged-token.sol\":12699:13013  function _approve(address owner, address spender, uint256 amount) internal {... */\n      pop\n      pop\n      pop\n      jump\t// out\n        /* \"pegged-token.sol\":10805:11199  function _transfer(address sender, address recipient, uint256 amount) internal {... */\n    tag_110:\n      sub(shl(0xa0, 0x01), 0x01)\n        /* \"pegged-token.sol\":10898:10918  sender != address(0) */\n      dup4\n      and\n        /* \"pegged-token.sol\":10890:10960  require(sender != address(0), \"ZRC20: transfer from the zero address\") */\n      tag_183\n      jumpi\n      mload(0x40)\n      shl(0xe5, 0x461bcd)\n      dup2\n      mstore\n        /* \"#utility.yul\":5628:5630   */\n      0x20\n        /* \"pegged-token.sol\":10890:10960  require(sender != address(0), \"ZRC20: transfer from the zero address\") */\n      0x04\n      dup3\n      add\n        /* \"#utility.yul\":5610:5631   */\n      mstore\n        /* \"#utility.yul\":5667:5669   */\n      0x25\n        /* \"#utility.yul\":5647:5665   */\n      0x24\n      dup3\n      add\n        /* \"#utility.yul\":5640:5670   */\n      mstore\n        /* \"#utility.yul\":5706:5740   */\n      0x5a524332303a207472616e736665722066726f6d20746865207a65726f206164\n        /* \"#utility.yul\":5686:5704   */\n      0x44\n      dup3\n      add\n        /* \"#utility.yul\":5679:5741   */\n      mstore\n      shl(0xd8, 0x6472657373)\n        /* \"#utility.yul\":5757:5775   */\n      0x64\n      dup3\n      add\n        /* \"#utility.yul\":5750:5785   */\n      mstore\n        /* \"#utility.yul\":5802:5821   */\n      0x84\n      add\n        /* \"pegged-token.sol\":10890:10960  require(sender != address(0), \"ZRC20: transfer from the zero address\") */\n      tag_99\n        /* \"#utility.yul\":5426:5827   */\n      jump\n        /* \"pegged-token.sol\":10890:10960  require(sender != address(0), \"ZRC20: transfer from the zero address\") */\n    tag_183:\n      sub(shl(0xa0, 0x01), 0x01)\n        /* \"pegged-token.sol\":10974:10997  recipient != address(0) */\n      dup3\n      and\n        /* \"pegged-token.sol\":10966:11037  require(recipient != address(0), \"ZRC20: transfer to the zero address\") */\n      tag_186\n      jumpi\n      mload(0x40)\n      shl(0xe5, 0x461bcd)\n      dup2\n      mstore\n        /* \"#utility.yul\":6034:6036   */\n      0x20\n        /* \"pegged-token.sol\":10966:11037  require(recipient != address(0), \"ZRC20: transfer to the zero address\") */\n      0x04\n      dup3\n      add\n        /* \"#utility.yul\":6016:6037   */\n      mstore\n        /* \"#utility.yul\":6073:6075   */\n      0x23\n        /* \"#utility.yul\":6053:6071   */\n      0x24\n      dup3\n      add\n        /* \"#utility.yul\":6046:6076   */\n      mstore\n        /* \"#utility.yul\":6112:6146   */\n      0x5a524332303a207472616e7366657220746f20746865207a65726f2061646472\n        /* \"#utility.yul\":6092:6110   */\n      0x44\n      dup3\n      add\n        /* \"#utility.yul\":6085:6147   */\n      mstore\n      shl(0xe8, 0x657373)\n        /* \"#utility.yul\":6163:6181   */\n      0x64\n      dup3\n      add\n        /* \"#utility.yul\":6156:6189   */\n      mstore\n        /* \"#utility.yul\":6206:6225   */\n      0x84\n      add\n        /* \"pegged-token.sol\":10966:11037  require(recipient != address(0), \"ZRC20: transfer to the zero address\") */\n      tag_99\n        /* \"#utility.yul\":5832:6231   */\n      jump\n        /* \"pegged-token.sol\":10966:11037  require(recipient != address(0), \"ZRC20: transfer to the zero address\") */\n    tag_186:\n      sub(shl(0xa0, 0x01), 0x01)\n        /* \"pegged-token.sol\":11064:11081  _balances[sender] */\n      dup4\n      and\n      0x00\n      swap1\n      dup2\n      mstore\n        /* \"pegged-token.sol\":11064:11073  _balances */\n      0x01\n        /* \"pegged-token.sol\":11064:11081  _balances[sender] */\n      0x20\n      mstore\n      0x40\n      swap1\n      keccak256\n      sload\n        /* \"pegged-token.sol\":11064:11090  _balances[sender] - amount */\n      tag_189\n      swap1\n        /* \"pegged-token.sol\":11084:11090  amount */\n      dup3\n      swap1\n        /* \"pegged-token.sol\":11064:11090  _balances[sender] - amount */\n      tag_115\n      jump\t// in\n    tag_189:\n      sub(shl(0xa0, 0x01), 0x01)\n        /* \"pegged-token.sol\":11044:11061  _balances[sender] */\n      dup1\n      dup6\n      and\n      0x00\n      swap1\n      dup2\n      mstore\n        /* \"pegged-token.sol\":11044:11053  _balances */\n      0x01\n        /* \"pegged-token.sol\":11044:11061  _balances[sender] */\n      0x20\n      mstore\n      0x40\n      dup1\n      dup3\n      keccak256\n        /* \"pegged-token.sol\":11044:11090  _balances[sender] = _balances[sender] - amount */\n      swap4\n      swap1\n      swap4\n      sstore\n        /* \"pegged-token.sol\":11119:11139  _balances[recipient] */\n      swap1\n      dup5\n      and\n      dup2\n      mstore\n      keccak256\n      sload\n        /* \"pegged-token.sol\":11119:11148  _balances[recipient] + amount */\n      tag_190\n      swap1\n        /* \"pegged-token.sol\":11142:11148  amount */\n      dup3\n      swap1\n        /* \"pegged-token.sol\":11119:11148  _balances[recipient] + amount */\n      tag_191\n      jump\t// in\n    tag_190:\n      sub(shl(0xa0, 0x01), 0x01)\n        /* \"pegged-token.sol\":11096:11116  _balances[recipient] */\n      dup1\n      dup5\n      and\n      0x00\n      dup2\n      dup2\n      mstore\n        /* \"pegged-token.sol\":11096:11105  _balances */\n      0x01\n        /* \"pegged-token.sol\":11096:11116  _balances[recipient] */\n      0x20\n      mstore\n      0x40\n      swap1\n      dup2\n      swap1\n      keccak256\n        /* \"pegged-token.sol\":11096:11148  _balances[recipient] = _balances[recipient] + amount */\n      swap4\n      swap1\n      swap4\n      sstore\n        /* \"pegged-token.sol\":11159:11194  Transfer(sender, recipient, amount) */\n      swap2\n      mload\n      swap1\n      dup6\n      and\n      swap1\n      0xddf252ad1be2c89b69c2b068fc378daa952ba7f163c4a11628f55a4df523b3ef\n      swap1\n      tag_181\n      swap1\n        /* \"pegged-token.sol\":11187:11193  amount */\n      dup6\n        /* \"#utility.yul\":1342:1367   */\n      dup2\n      mstore\n        /* \"#utility.yul\":1330:1332   */\n      0x20\n        /* \"#utility.yul\":1315:1333   */\n      add\n      swap1\n        /* \"#utility.yul\":1196:1373   */\n      jump\n        /* \"pegged-token.sol\":11449:11727  function _mint(address account, uint256 amount) internal {... */\n    tag_130:\n      sub(shl(0xa0, 0x01), 0x01)\n        /* \"pegged-token.sol\":11520:11541  account != address(0) */\n      dup3\n      and\n        /* \"pegged-token.sol\":11512:11577  require(account != address(0), \"ZRC20: mint to the zero address\") */\n      tag_194\n      jumpi\n      mload(0x40)\n      shl(0xe5, 0x461bcd)\n      dup2\n      mstore\n        /* \"#utility.yul\":6568:6570   */\n      0x20\n        /* \"pegged-token.sol\":11512:11577  require(account != address(0), \"ZRC20: mint to the zero address\") */\n      0x04\n      dup3\n      add\n        /* \"#utility.yul\":6550:6571   */\n      mstore\n        /* \"#utility.yul\":6607:6609   */\n      0x1f\n        /* \"#utility.yul\":6587:6605   */\n      0x24\n      dup3\n      add\n        /* \"#utility.yul\":6580:6610   */\n      mstore\n        /* \"#utility.yul\":6646:6679   */\n      0x5a524332303a206d696e7420746f20746865207a65726f206164647265737300\n        /* \"#utility.yul\":6626:6644   */\n      0x44\n      dup3\n      add\n        /* \"#utility.yul\":6619:6680   */\n      mstore\n        /* \"#utility.yul\":6697:6715   */\n      0x64\n      add\n        /* \"pegged-token.sol\":11512:11577  require(account != address(0), \"ZRC20: mint to the zero address\") */\n      tag_99\n        /* \"#utility.yul\":6366:6721   */\n      jump\n        /* \"pegged-token.sol\":11512:11577  require(account != address(0), \"ZRC20: mint to the zero address\") */\n    tag_194:\n        /* \"pegged-token.sol\":11614:11620  amount */\n      dup1\n        /* \"pegged-token.sol\":11599:11611  _totalSupply */\n      sload(0x03)\n        /* \"pegged-token.sol\":11599:11620  _totalSupply + amount */\n      tag_197\n      swap2\n      swap1\n      tag_191\n      jump\t// in\n    tag_197:\n        /* \"pegged-token.sol\":11584:11596  _totalSupply */\n      0x03\n        /* \"pegged-token.sol\":11584:11620  _totalSupply = _totalSupply + amount */\n      sstore\n      sub(shl(0xa0, 0x01), 0x01)\n        /* \"pegged-token.sol\":11647:11665  _balances[account] */\n      dup3\n      and\n      0x00\n      swap1\n      dup2\n      mstore\n        /* \"pegged-token.sol\":11647:11656  _balances */\n      0x01\n        /* \"pegged-token.sol\":11647:11665  _balances[account] */\n      0x20\n      mstore\n      0x40\n      swap1\n      keccak256\n      sload\n        /* \"pegged-token.sol\":11647:11674  _balances[account] + amount */\n      tag_198\n      swap1\n        /* \"pegged-token.sol\":11668:11674  amount */\n      dup3\n      swap1\n        /* \"pegged-token.sol\":11647:11674  _balances[account] + amount */\n      tag_191\n      jump\t// in\n    tag_198:\n      sub(shl(0xa0, 0x01), 0x01)\n        /* \"pegged-token.sol\":11626:11644  _balances[account] */\n      dup4\n      and\n      0x00\n      dup2\n      dup2\n      mstore\n        /* \"pegged-token.sol\":11626:11635  _balances */\n      0x01\n        /* \"pegged-token.sol\":11626:11644  _balances[account] */\n      0x20\n      mstore\n      0x40\n      dup1\n      dup3\n      keccak256\n        /* \"pegged-token.sol\":11626:11674  _balances[account] = _balances[account] + amount */\n      swap4\n      swap1\n      swap4\n      sstore\n        /* \"pegged-token.sol\":11685:11722  Transfer(address(0), account, amount) */\n      swap2\n      mload\n        /* \"pegged-token.sol\":11626:11644  _balances[account] */\n      swap1\n      swap2\n      swap1\n        /* \"pegged-token.sol\":11685:11722  Transfer(address(0), account, amount) */\n      0xddf252ad1be2c89b69c2b068fc378daa952ba7f163c4a11628f55a4df523b3ef\n      swap1\n      tag_199\n      swap1\n        /* \"pegged-token.sol\":11715:11721  amount */\n      dup6\n        /* \"#utility.yul\":1342:1367   */\n      dup2\n      mstore\n        /* \"#utility.yul\":1330:1332   */\n      0x20\n        /* \"#utility.yul\":1315:1333   */\n      add\n      swap1\n        /* \"#utility.yul\":1196:1373   */\n      jump\n        /* \"pegged-token.sol\":11685:11722  Transfer(address(0), account, amount) */\n    tag_199:\n      mload(0x40)\n      dup1\n      swap2\n      sub\n      swap1\n      log3\n        /* \"pegged-token.sol\":11449:11727  function _mint(address account, uint256 amount) internal {... */\n      pop\n      pop\n      jump\t// out\n        /* \"pegged-token.sol\":12022:12302  function _burn(address account, uint256 amount) internal {... */\n    tag_156:\n      sub(shl(0xa0, 0x01), 0x01)\n        /* \"pegged-token.sol\":12093:12114  account != address(0) */\n      dup3\n      and\n        /* \"pegged-token.sol\":12085:12152  require(account != address(0), \"ZRC20: burn from the zero address\") */\n      tag_201\n      jumpi\n      mload(0x40)\n      shl(0xe5, 0x461bcd)\n      dup2\n      mstore\n        /* \"#utility.yul\":6928:6930   */\n      0x20\n        /* \"pegged-token.sol\":12085:12152  require(account != address(0), \"ZRC20: burn from the zero address\") */\n      0x04\n      dup3\n      add\n        /* \"#utility.yul\":6910:6931   */\n      mstore\n        /* \"#utility.yul\":6967:6969   */\n      0x21\n        /* \"#utility.yul\":6947:6965   */\n      0x24\n      dup3\n      add\n        /* \"#utility.yul\":6940:6970   */\n      mstore\n        /* \"#utility.yul\":7006:7040   */\n      0x5a524332303a206275726e2066726f6d20746865207a65726f20616464726573\n        /* \"#utility.yul\":6986:7004   */\n      0x44\n      dup3\n      add\n        /* \"#utility.yul\":6979:7041   */\n      mstore\n      shl(0xf8, 0x73)\n        /* \"#utility.yul\":7057:7075   */\n      0x64\n      dup3\n      add\n        /* \"#utility.yul\":7050:7081   */\n      mstore\n        /* \"#utility.yul\":7098:7117   */\n      0x84\n      add\n        /* \"pegged-token.sol\":12085:12152  require(account != address(0), \"ZRC20: burn from the zero address\") */\n      tag_99\n        /* \"#utility.yul\":6726:7123   */\n      jump\n        /* \"pegged-token.sol\":12085:12152  require(account != address(0), \"ZRC20: burn from the zero address\") */\n    tag_201:\n      sub(shl(0xa0, 0x01), 0x01)\n        /* \"pegged-token.sol\":12180:12198  _balances[account] */\n      dup3\n      and\n      0x00\n      swap1\n      dup2\n      mstore\n        /* \"pegged-token.sol\":12180:12189  _balances */\n      0x01\n        /* \"pegged-token.sol\":12180:12198  _balances[account] */\n      0x20\n      mstore\n      0x40\n      swap1\n      keccak256\n      sload\n        /* \"pegged-token.sol\":12180:12207  _balances[account] - amount */\n      tag_204\n      swap1\n        /* \"pegged-token.sol\":12201:12207  amount */\n      dup3\n      swap1\n        /* \"pegged-token.sol\":12180:12207  _balances[account] - amount */\n      tag_115\n      jump\t// in\n    tag_204:\n      sub(shl(0xa0, 0x01), 0x01)\n        /* \"pegged-token.sol\":12159:12177  _balances[account] */\n      dup4\n      and\n      0x00\n      swap1\n      dup2\n      mstore\n        /* \"pegged-token.sol\":12159:12168  _balances */\n      0x01\n        /* \"pegged-token.sol\":12159:12177  _balances[account] */\n      0x20\n      mstore\n      0x40\n      swap1\n      keccak256\n        /* \"pegged-token.sol\":12159:12207  _balances[account] = _balances[account] - amount */\n      sstore\n        /* \"pegged-token.sol\":12228:12240  _totalSupply */\n      sload(0x03)\n        /* \"pegged-token.sol\":12228:12249  _totalSupply - amount */\n      tag_205\n      swap1\n        /* \"pegged-token.sol\":12243:12249  amount */\n      dup3\n      swap1\n        /* \"pegged-token.sol\":12228:12249  _totalSupply - amount */\n      tag_115\n      jump\t// in\n    tag_205:\n        /* \"pegged-token.sol\":12213:12225  _totalSupply */\n      0x03\n        /* \"pegged-token.sol\":12213:12249  _totalSupply = _totalSupply - amount */\n      sstore\n        /* \"pegged-token.sol\":12260:12297  Transfer(account, address(0), amount) */\n      mload(0x40)\n        /* \"#utility.yul\":1342:1367   */\n      dup2\n      dup2\n      mstore\n        /* \"pegged-token.sol\":12286:12287  0 */\n      0x00\n      swap1\n      sub(shl(0xa0, 0x01), 0x01)\n        /* \"pegged-token.sol\":12260:12297  Transfer(account, address(0), amount) */\n      dup5\n      and\n      swap1\n      0xddf252ad1be2c89b69c2b068fc378daa952ba7f163c4a11628f55a4df523b3ef\n      swap1\n        /* \"#utility.yul\":1330:1332   */\n      0x20\n        /* \"#utility.yul\":1315:1333   */\n      add\n        /* \"pegged-token.sol\":12260:12297  Transfer(account, address(0), amount) */\n      tag_199\n        /* \"#utility.yul\":1196:1373   */\n      jump\n        /* \"pegged-token.sol\":6484:6695  function _transferOwnership(address newOwner) internal {... */\n    tag_172:\n      sub(shl(0xa0, 0x01), 0x01)\n        /* \"pegged-token.sol\":6553:6575  newOwner != address(0) */\n      dup2\n      and\n        /* \"pegged-token.sol\":6545:6618  require(newOwner != address(0), \"Ownable: new owner is the zero address\") */\n      tag_208\n      jumpi\n      mload(0x40)\n      shl(0xe5, 0x461bcd)\n      dup2\n      mstore\n        /* \"#utility.yul\":7330:7332   */\n      0x20\n        /* \"pegged-token.sol\":6545:6618  require(newOwner != address(0), \"Ownable: new owner is the zero address\") */\n      0x04\n      dup3\n      add\n        /* \"#utility.yul\":7312:7333   */\n      mstore\n        /* \"#utility.yul\":7369:7371   */\n      0x26\n        /* \"#utility.yul\":7349:7367   */\n      0x24\n      dup3\n      add\n        /* \"#utility.yul\":7342:7372   */\n      mstore\n        /* \"#utility.yul\":7408:7442   */\n      0x4f776e61626c653a206e6577206f776e657220697320746865207a65726f2061\n        /* \"#utility.yul\":7388:7406   */\n      0x44\n      dup3\n      add\n        /* \"#utility.yul\":7381:7443   */\n      mstore\n      shl(0xd0, 0x646472657373)\n        /* \"#utility.yul\":7459:7477   */\n      0x64\n      dup3\n      add\n        /* \"#utility.yul\":7452:7488   */\n      mstore\n        /* \"#utility.yul\":7505:7524   */\n      0x84\n      add\n        /* \"pegged-token.sol\":6545:6618  require(newOwner != address(0), \"Ownable: new owner is the zero address\") */\n      tag_99\n        /* \"#utility.yul\":7128:7530   */\n      jump\n        /* \"pegged-token.sol\":6545:6618  require(newOwner != address(0), \"Ownable: new owner is the zero address\") */\n    tag_208:\n        /* \"pegged-token.sol\":6650:6656  _owner */\n      0x00\n      dup1\n      sload\n        /* \"pegged-token.sol\":6629:6667  OwnershipTransferred(_owner, newOwner) */\n      mload(0x40)\n      sub(shl(0xa0, 0x01), 0x01)\n      dup1\n      dup6\n      and\n      swap4\n        /* \"pegged-token.sol\":6650:6656  _owner */\n      swap3\n      and\n      swap2\n        /* \"pegged-token.sol\":6629:6667  OwnershipTransferred(_owner, newOwner) */\n      0x8be0079c531659141344cd1fd0a4f28419497f9722a3daafe3b4186f6b6457e0\n      swap2\n      log3\n        /* \"pegged-token.sol\":6673:6679  _owner */\n      0x00\n        /* \"pegged-token.sol\":6673:6690  _owner = newOwner */\n      dup1\n      sload\n      not(sub(shl(0xa0, 0x01), 0x01))\n      and\n      sub(shl(0xa0, 0x01), 0x01)\n      swap3\n      swap1\n      swap3\n      and\n      swap2\n      swap1\n      swap2\n      or\n      swap1\n      sstore\n        /* \"pegged-token.sol\":6484:6695  function _transferOwnership(address newOwner) internal {... */\n      jump\t// out\n        /* \"#utility.yul\":14:562   */\n    tag_26:\n        /* \"#utility.yul\":126:130   */\n      0x00\n        /* \"#utility.yul\":155:157   */\n      0x20\n        /* \"#utility.yul\":184:186   */\n      dup1\n        /* \"#utility.yul\":173:182   */\n      dup4\n        /* \"#utility.yul\":166:187   */\n      mstore\n        /* \"#utility.yul\":216:222   */\n      dup4\n        /* \"#utility.yul\":210:223   */\n      mload\n        /* \"#utility.yul\":259:265   */\n      dup1\n        /* \"#utility.yul\":254:256   */\n      dup3\n        /* \"#utility.yul\":243:252   */\n      dup6\n        /* \"#utility.yul\":239:257   */\n      add\n        /* \"#utility.yul\":232:266   */\n      mstore\n        /* \"#utility.yul\":284:285   */\n      0x00\n        /* \"#utility.yul\":294:434   */\n    tag_215:\n        /* \"#utility.yul\":308:314   */\n      dup2\n        /* \"#utility.yul\":305:306   */\n      dup2\n        /* \"#utility.yul\":302:315   */\n      lt\n        /* \"#utility.yul\":294:434   */\n      iszero\n      tag_217\n      jumpi\n        /* \"#utility.yul\":403:417   */\n      dup6\n      dup2\n      add\n        /* \"#utility.yul\":399:422   */\n      dup4\n      add\n        /* \"#utility.yul\":393:423   */\n      mload\n        /* \"#utility.yul\":369:386   */\n      dup6\n      dup3\n      add\n        /* \"#utility.yul\":388:390   */\n      0x40\n        /* \"#utility.yul\":365:391   */\n      add\n        /* \"#utility.yul\":358:424   */\n      mstore\n        /* \"#utility.yul\":323:333   */\n      dup3\n      add\n        /* \"#utility.yul\":294:434   */\n      jump(tag_215)\n    tag_217:\n        /* \"#utility.yul\":298:301   */\n      pop\n        /* \"#utility.yul\":483:484   */\n      0x00\n        /* \"#utility.yul\":478:480   */\n      0x40\n        /* \"#utility.yul\":469:475   */\n      dup3\n        /* \"#utility.yul\":458:467   */\n      dup7\n        /* \"#utility.yul\":454:476   */\n      add\n        /* \"#utility.yul\":450:481   */\n      add\n        /* \"#utility.yul\":443:485   */\n      mstore\n        /* \"#utility.yul\":553:555   */\n      0x40\n        /* \"#utility.yul\":546:548   */\n      0x1f\n        /* \"#utility.yul\":542:549   */\n      not\n        /* \"#utility.yul\":537:539   */\n      0x1f\n        /* \"#utility.yul\":529:535   */\n      dup4\n        /* \"#utility.yul\":525:540   */\n      add\n        /* \"#utility.yul\":521:550   */\n      and\n        /* \"#utility.yul\":510:519   */\n      dup6\n        /* \"#utility.yul\":506:551   */\n      add\n        /* \"#utility.yul\":502:556   */\n      add\n        /* \"#utility.yul\":494:556   */\n      swap3\n      pop\n      pop\n      pop\n        /* \"#utility.yul\":14:562   */\n      swap3\n      swap2\n      pop\n      pop\n      jump\t// out\n        /* \"#utility.yul\":567:740   */\n    tag_211:\n        /* \"#utility.yul\":635:655   */\n      dup1\n      calldataload\n      sub(shl(0xa0, 0x01), 0x01)\n        /* \"#utility.yul\":684:715   */\n      dup2\n      and\n        /* \"#utility.yul\":674:716   */\n      dup2\n      eq\n        /* \"#utility.yul\":664:734   */\n      tag_219\n      jumpi\n        /* \"#utility.yul\":730:731   */\n      0x00\n        /* \"#utility.yul\":727:728   */\n      dup1\n        /* \"#utility.yul\":720:732   */\n      revert\n        /* \"#utility.yul\":664:734   */\n    tag_219:\n        /* \"#utility.yul\":567:740   */\n      swap2\n      swap1\n      pop\n      jump\t// out\n        /* \"#utility.yul\":745:999   */\n    tag_31:\n        /* \"#utility.yul\":813:819   */\n      0x00\n        /* \"#utility.yul\":821:827   */\n      dup1\n        /* \"#utility.yul\":874:876   */\n      0x40\n        /* \"#utility.yul\":862:871   */\n      dup4\n        /* \"#utility.yul\":853:860   */\n      dup6\n        /* \"#utility.yul\":849:872   */\n      sub\n        /* \"#utility.yul\":845:877   */\n      slt\n        /* \"#utility.yul\":842:894   */\n      iszero\n      tag_221\n      jumpi\n        /* \"#utility.yul\":890:891   */\n      0x00\n        /* \"#utility.yul\":887:888   */\n      dup1\n        /* \"#utility.yul\":880:892   */\n      revert\n        /* \"#utility.yul\":842:894   */\n    tag_221:\n        /* \"#utility.yul\":913:942   */\n      tag_222\n        /* \"#utility.yul\":932:941   */\n      dup4\n        /* \"#utility.yul\":913:942   */\n      tag_211\n      jump\t// in\n    tag_222:\n        /* \"#utility.yul\":903:942   */\n      swap5\n        /* \"#utility.yul\":989:991   */\n      0x20\n        /* \"#utility.yul\":974:992   */\n      swap4\n      swap1\n      swap4\n      add\n        /* \"#utility.yul\":961:993   */\n      calldataload\n      swap4\n      pop\n      pop\n      pop\n        /* \"#utility.yul\":745:999   */\n      jump\t// out\n        /* \"#utility.yul\":1378:1706   */\n    tag_41:\n        /* \"#utility.yul\":1455:1461   */\n      0x00\n        /* \"#utility.yul\":1463:1469   */\n      dup1\n        /* \"#utility.yul\":1471:1477   */\n      0x00\n        /* \"#utility.yul\":1524:1526   */\n      0x60\n        /* \"#utility.yul\":1512:1521   */\n      dup5\n        /* \"#utility.yul\":1503:1510   */\n      dup7\n        /* \"#utility.yul\":1499:1522   */\n      sub\n        /* \"#utility.yul\":1495:1527   */\n      slt\n        /* \"#utility.yul\":1492:1544   */\n      iszero\n      tag_226\n      jumpi\n        /* \"#utility.yul\":1540:1541   */\n      0x00\n        /* \"#utility.yul\":1537:1538   */\n      dup1\n        /* \"#utility.yul\":1530:1542   */\n      revert\n        /* \"#utility.yul\":1492:1544   */\n    tag_226:\n        /* \"#utility.yul\":1563:1592   */\n      tag_227\n        /* \"#utility.yul\":1582:1591   */\n      dup5\n        /* \"#utility.yul\":1563:1592   */\n      tag_211\n      jump\t// in\n    tag_227:\n        /* \"#utility.yul\":1553:1592   */\n      swap3\n      pop\n        /* \"#utility.yul\":1611:1649   */\n      tag_228\n        /* \"#utility.yul\":1645:1647   */\n      0x20\n        /* \"#utility.yul\":1634:1643   */\n      dup6\n        /* \"#utility.yul\":1630:1648   */\n      add\n        /* \"#utility.yul\":1611:1649   */\n      tag_211\n      jump\t// in\n    tag_228:\n        /* \"#utility.yul\":1601:1649   */\n      swap2\n      pop\n        /* \"#utility.yul\":1696:1698   */\n      0x40\n        /* \"#utility.yul\":1685:1694   */\n      dup5\n        /* \"#utility.yul\":1681:1699   */\n      add\n        /* \"#utility.yul\":1668:1700   */\n      calldataload\n        /* \"#utility.yul\":1658:1700   */\n      swap1\n      pop\n        /* \"#utility.yul\":1378:1706   */\n      swap3\n      pop\n      swap3\n      pop\n      swap3\n      jump\t// out\n        /* \"#utility.yul\":1900:2086   */\n    tag_54:\n        /* \"#utility.yul\":1959:1965   */\n      0x00\n        /* \"#utility.yul\":2012:2014   */\n      0x20\n        /* \"#utility.yul\":2000:2009   */\n      dup3\n        /* \"#utility.yul\":1991:1998   */\n      dup5\n        /* \"#utility.yul\":1987:2010   */\n      sub\n        /* \"#utility.yul\":1983:2015   */\n      slt\n        /* \"#utility.yul\":1980:2032   */\n      iszero\n      tag_231\n      jumpi\n        /* \"#utility.yul\":2028:2029   */\n      0x00\n        /* \"#utility.yul\":2025:2026   */\n      dup1\n        /* \"#utility.yul\":2018:2030   */\n      revert\n        /* \"#utility.yul\":1980:2032   */\n    tag_231:\n        /* \"#utility.yul\":2051:2080   */\n      tag_232\n        /* \"#utility.yul\":2070:2079   */\n      dup3\n        /* \"#utility.yul\":2051:2080   */\n      tag_211\n      jump\t// in\n    tag_232:\n        /* \"#utility.yul\":2041:2080   */\n      swap4\n        /* \"#utility.yul\":1900:2086   */\n      swap3\n      pop\n      pop\n      pop\n      jump\t// out\n        /* \"#utility.yul\":2299:2559   */\n    tag_79:\n        /* \"#utility.yul\":2367:2373   */\n      0x00\n        /* \"#utility.yul\":2375:2381   */\n      dup1\n        /* \"#utility.yul\":2428:2430   */\n      0x40\n        /* \"#utility.yul\":2416:2425   */\n      dup4\n        /* \"#utility.yul\":2407:2414   */\n      dup6\n        /* \"#utility.yul\":2403:2426   */\n      sub\n        /* \"#utility.yul\":2399:2431   */\n      slt\n        /* \"#utility.yul\":2396:2448   */\n      iszero\n      tag_235\n      jumpi\n        /* \"#utility.yul\":2444:2445   */\n      0x00\n        /* \"#utility.yul\":2441:2442   */\n      dup1\n        /* \"#utility.yul\":2434:2446   */\n      revert\n        /* \"#utility.yul\":2396:2448   */\n    tag_235:\n        /* \"#utility.yul\":2467:2496   */\n      tag_236\n        /* \"#utility.yul\":2486:2495   */\n      dup4\n        /* \"#utility.yul\":2467:2496   */\n      tag_211\n      jump\t// in\n    tag_236:\n        /* \"#utility.yul\":2457:2496   */\n      swap2\n      pop\n        /* \"#utility.yul\":2515:2553   */\n      tag_237\n        /* \"#utility.yul\":2549:2551   */\n      0x20\n        /* \"#utility.yul\":2538:2547   */\n      dup5\n        /* \"#utility.yul\":2534:2552   */\n      add\n        /* \"#utility.yul\":2515:2553   */\n      tag_211\n      jump\t// in\n    tag_237:\n        /* \"#utility.yul\":2505:2553   */\n      swap1\n      pop\n        /* \"#utility.yul\":2299:2559   */\n      swap3\n      pop\n      swap3\n      swap1\n      pop\n      jump\t// out\n        /* \"#utility.yul\":2564:2944   */\n    tag_90:\n        /* \"#utility.yul\":2643:2644   */\n      0x01\n        /* \"#utility.yul\":2639:2651   */\n      dup2\n      dup2\n      shr\n      swap1\n        /* \"#utility.yul\":2686:2698   */\n      dup3\n      and\n      dup1\n        /* \"#utility.yul\":2707:2768   */\n      tag_239\n      jumpi\n        /* \"#utility.yul\":2761:2765   */\n      0x7f\n        /* \"#utility.yul\":2753:2759   */\n      dup3\n        /* \"#utility.yul\":2749:2766   */\n      and\n        /* \"#utility.yul\":2739:2766   */\n      swap2\n      pop\n        /* \"#utility.yul\":2707:2768   */\n    tag_239:\n        /* \"#utility.yul\":2814:2816   */\n      0x20\n        /* \"#utility.yul\":2806:2812   */\n      dup3\n        /* \"#utility.yul\":2803:2817   */\n      lt\n        /* \"#utility.yul\":2783:2801   */\n      dup2\n        /* \"#utility.yul\":2780:2818   */\n      sub\n        /* \"#utility.yul\":2777:2938   */\n      tag_240\n      jumpi\n        /* \"#utility.yul\":2860:2870   */\n      0x4e487b71\n        /* \"#utility.yul\":2855:2858   */\n      0xe0\n        /* \"#utility.yul\":2851:2871   */\n      shl\n        /* \"#utility.yul\":2848:2849   */\n      0x00\n        /* \"#utility.yul\":2841:2872   */\n      mstore\n        /* \"#utility.yul\":2895:2899   */\n      0x22\n        /* \"#utility.yul\":2892:2893   */\n      0x04\n        /* \"#utility.yul\":2885:2900   */\n      mstore\n        /* \"#utility.yul\":2923:2927   */\n      0x24\n        /* \"#utility.yul\":2920:2921   */\n      0x00\n        /* \"#utility.yul\":2913:2928   */\n      revert\n        /* \"#utility.yul\":2777:2938   */\n    tag_240:\n      pop\n        /* \"#utility.yul\":2564:2944   */\n      swap2\n      swap1\n      pop\n      jump\t// out\n        /* \"#utility.yul\":2949:3305   */\n    tag_100:\n        /* \"#utility.yul\":3151:3153   */\n      0x20\n        /* \"#utility.yul\":3133:3154   */\n      dup1\n      dup3\n      mstore\n        /* \"#utility.yul\":3170:3188   */\n      dup2\n      dup2\n      add\n        /* \"#utility.yul\":3163:3193   */\n      mstore\n        /* \"#utility.yul\":3229:3263   */\n      0x4f776e61626c653a2063616c6c6572206973206e6f7420746865206f776e6572\n        /* \"#utility.yul\":3224:3226   */\n      0x40\n        /* \"#utility.yul\":3209:3227   */\n      dup3\n      add\n        /* \"#utility.yul\":3202:3264   */\n      mstore\n        /* \"#utility.yul\":3296:3298   */\n      0x60\n        /* \"#utility.yul\":3281:3299   */\n      add\n      swap1\n        /* \"#utility.yul\":2949:3305   */\n      jump\t// out\n        /* \"#utility.yul\":3310:3437   */\n    tag_212:\n        /* \"#utility.yul\":3371:3381   */\n      0x4e487b71\n        /* \"#utility.yul\":3366:3369   */\n      0xe0\n        /* \"#utility.yul\":3362:3382   */\n      shl\n        /* \"#utility.yul\":3359:3360   */\n      0x00\n        /* \"#utility.yul\":3352:3383   */\n      mstore\n        /* \"#utility.yul\":3402:3406   */\n      0x11\n        /* \"#utility.yul\":3399:3400   */\n      0x04\n        /* \"#utility.yul\":3392:3407   */\n      mstore\n        /* \"#utility.yul\":3426:3430   */\n      0x24\n        /* \"#utility.yul\":3423:3424   */\n      0x00\n        /* \"#utility.yul\":3416:3431   */\n      revert\n        /* \"#utility.yul\":3442:3570   */\n    tag_115:\n        /* \"#utility.yul\":3509:3518   */\n      dup2\n      dup2\n      sub\n        /* \"#utility.yul\":3530:3541   */\n      dup2\n      dup2\n      gt\n        /* \"#utility.yul\":3527:3564   */\n      iszero\n      tag_103\n      jumpi\n        /* \"#utility.yul\":3544:3562   */\n      tag_103\n      tag_212\n      jump\t// in\n        /* \"#utility.yul\":6236:6361   */\n    tag_191:\n        /* \"#utility.yul\":6301:6310   */\n      dup1\n      dup3\n      add\n        /* \"#utility.yul\":6322:6332   */\n      dup1\n      dup3\n      gt\n        /* \"#utility.yul\":6319:6355   */\n      iszero\n      tag_103\n      jumpi\n        /* \"#utility.yul\":6335:6353   */\n      tag_103\n      tag_212\n      jump\t// in\n\n    auxdata: 0xa264697066735822122099db7c272cd31b919dfbd18552ae91cee2fcb8fe1d94a578380966e2c2538e7064736f6c63430008110033\n}\n",
				"bytecode": {
					"linkReferences": {},
					"object": "60806040523480156200001157600080fd5b50600080546001600160a01b031916339081178255604051909182917f8be0079c531659141344cd1fd0a4f28419497f9722a3daafe3b4186f6b6457e0908290a35060408051808201909152601b81527f4d61696e6e65745a20506567676564207a5553445420546f6b656e00000000006020820152600690620000969082620001bd565b50604080518082019091526005808252641e9554d11560da1b602083015290620000c19082620001bd565b506004805460ff1916601217905560035460405133916000917fddf252ad1be2c89b69c2b068fc378daa952ba7f163c4a11628f55a4df523b3ef916200010a9190815260200190565b60405180910390a362000289565b634e487b7160e01b600052604160045260246000fd5b600181811c908216806200014357607f821691505b6020821081036200016457634e487b7160e01b600052602260045260246000fd5b50919050565b601f821115620001b857600081815260208120601f850160051c81016020861015620001935750805b601f850160051c820191505b81811015620001b4578281556001016200019f565b5050505b505050565b81516001600160401b03811115620001d957620001d962000118565b620001f181620001ea84546200012e565b846200016a565b602080601f831160018114620002295760008415620002105750858301515b600019600386901b1c1916600185901b178555620001b4565b600085815260208120601f198616915b828110156200025a5788860151825594840194600190910190840162000239565b5085821015620002795787850151600019600388901b60f8161c191681555b5050505050600190811b01905550565b610dfe80620002996000396000f3fe608060405234801561001057600080fd5b506004361061010b5760003560e01c8063715018a6116100a25780639dc29fac116100715780639dc29fac14610217578063a9059cbb1461022a578063dd62ed3e1461023d578063f2c098b714610276578063f2fde38b1461028957600080fd5b8063715018a6146101d1578063893d20e8146101d95780638da5cb5b146101fe57806395d89b411461020f57600080fd5b806323b872dd116100de57806323b872dd1461016d578063313ce5671461018057806340c10f191461019557806370a08231146101a857600080fd5b806306fdde0314610110578063092a5cce1461012e578063095ea7b31461013857806318160ddd1461015b575b600080fd5b61011861029c565b6040516101259190610bf8565b60405180910390f35b61013661032e565b005b61014b610146366004610c62565b610364565b6040519015158152602001610125565b6003545b604051908152602001610125565b61014b61017b366004610c8c565b61037b565b60045460405160ff9091168152602001610125565b61014b6101a3366004610c62565b6103cd565b61015f6101b6366004610cc8565b6001600160a01b031660009081526001602052604090205490565b6101366104c6565b6000546001600160a01b03165b6040516001600160a01b039091168152602001610125565b6000546001600160a01b03166101e6565b61011861053a565b61014b610225366004610c62565b610549565b61014b610238366004610c62565b610642565b61015f61024b366004610cea565b6001600160a01b03918216600090815260026020908152604080832093909416825291909152205490565b610136610284366004610cc8565b61064f565b610136610297366004610cc8565b61069b565b6060600680546102ab90610d1d565b80601f01602080910402602001604051908101604052809291908181526020018280546102d790610d1d565b80156103245780601f106102f957610100808354040283529160200191610324565b820191906000526020600020905b81548152906001019060200180831161030757829003601f168201915b5050505050905090565b6000546001600160a01b031633146103615760405162461bcd60e51b815260040161035890610d57565b60405180910390fd5b33ff5b60006103713384846106d1565b5060015b92915050565b60006103888484846107f6565b6001600160a01b0384166000908152600260209081526040808320338085529252909120546103c39186916103be908690610da2565b6106d1565b5060019392505050565b6007546000906001600160a01b0316336001600160a01b0316146104335760405162461bcd60e51b815260206004820152601b60248201527f63616c6c6572206973206e6f7420746865206465706f7369746f7200000000006044820152606401610358565b6001600160a01b03831661047b5760405162461bcd60e51b815260206004820152600f60248201526e1a5b9d985b1a59081858d8dbdd5b9d608a1b6044820152606401610358565b600082116104bc5760405162461bcd60e51b815260206004820152600e60248201526d1a5b9d985b1a5908185b5bdd5b9d60921b6044820152606401610358565b6103718383610964565b6000546001600160a01b031633146104f05760405162461bcd60e51b815260040161035890610d57565b600080546040516001600160a01b03909116907f8be0079c531659141344cd1fd0a4f28419497f9722a3daafe3b4186f6b6457e0908390a3600080546001600160a01b0319169055565b6060600580546102ab90610d1d565b6007546000906001600160a01b0316336001600160a01b0316146105af5760405162461bcd60e51b815260206004820152601b60248201527f63616c6c6572206973206e6f7420746865206465706f7369746f7200000000006044820152606401610358565b6001600160a01b0383166105f75760405162461bcd60e51b815260206004820152600f60248201526e1a5b9d985b1a59081858d8dbdd5b9d608a1b6044820152606401610358565b600082116106385760405162461bcd60e51b815260206004820152600e60248201526d1a5b9d985b1a5908185b5bdd5b9d60921b6044820152606401610358565b6103718383610a4c565b60006103713384846107f6565b6000546001600160a01b031633146106795760405162461bcd60e51b815260040161035890610d57565b600780546001600160a01b0319166001600160a01b0392909216919091179055565b6000546001600160a01b031633146106c55760405162461bcd60e51b815260040161035890610d57565b6106ce81610b38565b50565b6001600160a01b0383166107335760405162461bcd60e51b8152602060048201526024808201527f5a524332303a20617070726f76652066726f6d20746865207a65726f206164646044820152637265737360e01b6064820152608401610358565b6001600160a01b0382166107945760405162461bcd60e51b815260206004820152602260248201527f5a524332303a20617070726f766520746f20746865207a65726f206164647265604482015261737360f01b6064820152608401610358565b6001600160a01b0383811660008181526002602090815260408083209487168084529482529182902085905590518481527f8c5be1e5ebec7d5bd14f71427d1e84f3dd0314c0f7b2291e5b200ac8c7c3b92591015b60405180910390a3505050565b6001600160a01b03831661085a5760405162461bcd60e51b815260206004820152602560248201527f5a524332303a207472616e736665722066726f6d20746865207a65726f206164604482015264647265737360d81b6064820152608401610358565b6001600160a01b0382166108bc5760405162461bcd60e51b815260206004820152602360248201527f5a524332303a207472616e7366657220746f20746865207a65726f206164647260448201526265737360e81b6064820152608401610358565b6001600160a01b0383166000908152600160205260409020546108e0908290610da2565b6001600160a01b038085166000908152600160205260408082209390935590841681522054610910908290610db5565b6001600160a01b0380841660008181526001602052604090819020939093559151908516907fddf252ad1be2c89b69c2b068fc378daa952ba7f163c4a11628f55a4df523b3ef906107e99085815260200190565b6001600160a01b0382166109ba5760405162461bcd60e51b815260206004820152601f60248201527f5a524332303a206d696e7420746f20746865207a65726f2061646472657373006044820152606401610358565b806003546109c89190610db5565b6003556001600160a01b0382166000908152600160205260409020546109ef908290610db5565b6001600160a01b0383166000818152600160205260408082209390935591519091907fddf252ad1be2c89b69c2b068fc378daa952ba7f163c4a11628f55a4df523b3ef90610a409085815260200190565b60405180910390a35050565b6001600160a01b038216610aac5760405162461bcd60e51b815260206004820152602160248201527f5a524332303a206275726e2066726f6d20746865207a65726f206164647265736044820152607360f81b6064820152608401610358565b6001600160a01b038216600090815260016020526040902054610ad0908290610da2565b6001600160a01b038316600090815260016020526040902055600354610af7908290610da2565b6003556040518181526000906001600160a01b038416907fddf252ad1be2c89b69c2b068fc378daa952ba7f163c4a11628f55a4df523b3ef90602001610a40565b6001600160a01b038116610b9d5760405162461bcd60e51b815260206004820152602660248201527f4f776e61626c653a206e6577206f776e657220697320746865207a65726f206160448201526564647265737360d01b6064820152608401610358565b600080546040516001600160a01b03808516939216917f8be0079c531659141344cd1fd0a4f28419497f9722a3daafe3b4186f6b6457e091a3600080546001600160a01b0319166001600160a01b0392909216919091179055565b600060208083528351808285015260005b81811015610c2557858101830151858201604001528201610c09565b506000604082860101526040601f19601f8301168501019250505092915050565b80356001600160a01b0381168114610c5d57600080fd5b919050565b60008060408385031215610c7557600080fd5b610c7e83610c46565b946020939093013593505050565b600080600060608486031215610ca157600080fd5b610caa84610c46565b9250610cb860208501610c46565b9150604084013590509250925092565b600060208284031215610cda57600080fd5b610ce382610c46565b9392505050565b60008060408385031215610cfd57600080fd5b610d0683610c46565b9150610d1460208401610c46565b90509250929050565b600181811c90821680610d3157607f821691505b602082108103610d5157634e487b7160e01b600052602260045260246000fd5b50919050565b6020808252818101527f4f776e61626c653a2063616c6c6572206973206e6f7420746865206f776e6572604082015260600190565b634e487b7160e01b600052601160045260246000fd5b8181038181111561037557610375610d8c565b8082018082111561037557610375610d8c56fea264697066735822122099db7c272cd31b919dfbd18552ae91cee2fcb8fe1d94a578380966e2c2538e7064736f6c63430008110033",
					"opcodes": "PUSH1 0x80 PUSH1 0x40 MSTORE CALLVALUE DUP1 ISZERO PUSH3 0x11 JUMPI PUSH1 0x0 DUP1 REVERT JUMPDEST POP PUSH1 0x0 DUP1 SLOAD PUSH1 0x1 PUSH1 0x1 PUSH1 0xA0 SHL SUB NOT AND CALLER SWAP1 DUP2 OR DUP3 SSTORE PUSH1 0x40 MLOAD SWAP1 SWAP2 DUP3 SWAP2 PUSH32 0x8BE0079C531659141344CD1FD0A4F28419497F9722A3DAAFE3B4186F6B6457E0 SWAP1 DUP3 SWAP1 LOG3 POP PUSH1 0x40 DUP1 MLOAD DUP1 DUP3 ADD SWAP1 SWAP2 MSTORE PUSH1 0x1B DUP2 MSTORE PUSH32 0x4D61696E6E65745A20506567676564207A5553445420546F6B656E0000000000 PUSH1 0x20 DUP3 ADD MSTORE PUSH1 0x6 SWAP1 PUSH3 0x96 SWAP1 DUP3 PUSH3 0x1BD JUMP JUMPDEST POP PUSH1 0x40 DUP1 MLOAD DUP1 DUP3 ADD SWAP1 SWAP2 MSTORE PUSH1 0x5 DUP1 DUP3 MSTORE PUSH5 0x1E9554D115 PUSH1 0xDA SHL PUSH1 0x20 DUP4 ADD MSTORE SWAP1 PUSH3 0xC1 SWAP1 DUP3 PUSH3 0x1BD JUMP JUMPDEST POP PUSH1 0x4 DUP1 SLOAD PUSH1 0xFF NOT AND PUSH1 0x12 OR SWAP1 SSTORE PUSH1 0x3 SLOAD PUSH1 0x40 MLOAD CALLER SWAP2 PUSH1 0x0 SWAP2 PUSH32 0xDDF252AD1BE2C89B69C2B068FC378DAA952BA7F163C4A11628F55A4DF523B3EF SWAP2 PUSH3 0x10A SWAP2 SWAP1 DUP2 MSTORE PUSH1 0x20 ADD SWAP1 JUMP JUMPDEST PUSH1 0x40 MLOAD DUP1 SWAP2 SUB SWAP1 LOG3 PUSH3 0x289 JUMP JUMPDEST PUSH4 0x4E487B71 PUSH1 0xE0 SHL PUSH1 0x0 MSTORE PUSH1 0x41 PUSH1 0x4 MSTORE PUSH1 0x24 PUSH1 0x0 REVERT JUMPDEST PUSH1 0x1 DUP2 DUP2 SHR SWAP1 DUP3 AND DUP1 PUSH3 0x143 JUMPI PUSH1 0x7F DUP3 AND SWAP2 POP JUMPDEST PUSH1 0x20 DUP3 LT DUP2 SUB PUSH3 0x164 JUMPI PUSH4 0x4E487B71 PUSH1 0xE0 SHL PUSH1 0x0 MSTORE PUSH1 0x22 PUSH1 0x4 MSTORE PUSH1 0x24 PUSH1 0x0 REVERT JUMPDEST POP SWAP2 SWAP1 POP JUMP JUMPDEST PUSH1 0x1F DUP3 GT ISZERO PUSH3 0x1B8 JUMPI PUSH1 0x0 DUP2 DUP2 MSTORE PUSH1 0x20 DUP2 KECCAK256 PUSH1 0x1F DUP6 ADD PUSH1 0x5 SHR DUP2 ADD PUSH1 0x20 DUP7 LT ISZERO PUSH3 0x193 JUMPI POP DUP1 JUMPDEST PUSH1 0x1F DUP6 ADD PUSH1 0x5 SHR DUP3 ADD SWAP2 POP JUMPDEST DUP2 DUP2 LT ISZERO PUSH3 0x1B4 JUMPI DUP3 DUP2 SSTORE PUSH1 0x1 ADD PUSH3 0x19F JUMP JUMPDEST POP POP POP JUMPDEST POP POP POP JUMP JUMPDEST DUP2 MLOAD PUSH1 0x1 PUSH1 0x1 PUSH1 0x40 SHL SUB DUP2 GT ISZERO PUSH3 0x1D9 JUMPI PUSH3 0x1D9 PUSH3 0x118 JUMP JUMPDEST PUSH3 0x1F1 DUP2 PUSH3 0x1EA DUP5 SLOAD PUSH3 0x12E JUMP JUMPDEST DUP5 PUSH3 0x16A JUMP JUMPDEST PUSH1 0x20 DUP1 PUSH1 0x1F DUP4 GT PUSH1 0x1 DUP2 EQ PUSH3 0x229 JUMPI PUSH1 0x0 DUP5 ISZERO PUSH3 0x210 JUMPI POP DUP6 DUP4 ADD MLOAD JUMPDEST PUSH1 0x0 NOT PUSH1 0x3 DUP7 SWAP1 SHL SHR NOT AND PUSH1 0x1 DUP6 SWAP1 SHL OR DUP6 SSTORE PUSH3 0x1B4 JUMP JUMPDEST PUSH1 0x0 DUP6 DUP2 MSTORE PUSH1 0x20 DUP2 KECCAK256 PUSH1 0x1F NOT DUP7 AND SWAP2 JUMPDEST DUP3 DUP2 LT ISZERO PUSH3 0x25A JUMPI DUP9 DUP7 ADD MLOAD DUP3 SSTORE SWAP5 DUP5 ADD SWAP5 PUSH1 0x1 SWAP1 SWAP2 ADD SWAP1 DUP5 ADD PUSH3 0x239 JUMP JUMPDEST POP DUP6 DUP3 LT ISZERO PUSH3 0x279 JUMPI DUP8 DUP6 ADD MLOAD PUSH1 0x0 NOT PUSH1 0x3 DUP9 SWAP1 SHL PUSH1 0xF8 AND SHR NOT AND DUP2 SSTORE JUMPDEST POP POP POP POP POP PUSH1 0x1 SWAP1 DUP2 SHL ADD SWAP1 SSTORE POP JUMP JUMPDEST PUSH2 0xDFE DUP1 PUSH3 0x299 PUSH1 0x0 CODECOPY PUSH1 0x0 RETURN INVALID PUSH1 0x80 PUSH1 0x40 MSTORE CALLVALUE DUP1 ISZERO PUSH2 0x10 JUMPI PUSH1 0x0 DUP1 REVERT JUMPDEST POP PUSH1 0x4 CALLDATASIZE LT PUSH2 0x10B JUMPI PUSH1 0x0 CALLDATALOAD PUSH1 0xE0 SHR DUP1 PUSH4 0x715018A6 GT PUSH2 0xA2 JUMPI DUP1 PUSH4 0x9DC29FAC GT PUSH2 0x71 JUMPI DUP1 PUSH4 0x9DC29FAC EQ PUSH2 0x217 JUMPI DUP1 PUSH4 0xA9059CBB EQ PUSH2 0x22A JUMPI DUP1 PUSH4 0xDD62ED3E EQ PUSH2 0x23D JUMPI DUP1 PUSH4 0xF2C098B7 EQ PUSH2 0x276 JUMPI DUP1 PUSH4 0xF2FDE38B EQ PUSH2 0x289 JUMPI PUSH1 0x0 DUP1 REVERT JUMPDEST DUP1 PUSH4 0x715018A6 EQ PUSH2 0x1D1 JUMPI DUP1 PUSH4 0x893D20E8 EQ PUSH2 0x1D9 JUMPI DUP1 PUSH4 0x8DA5CB5B EQ PUSH2 0x1FE JUMPI DUP1 PUSH4 0x95D89B41 EQ PUSH2 0x20F JUMPI PUSH1 0x0 DUP1 REVERT JUMPDEST DUP1 PUSH4 0x23B872DD GT PUSH2 0xDE JUMPI DUP1 PUSH4 0x23B872DD EQ PUSH2 0x16D JUMPI DUP1 PUSH4 0x313CE567 EQ PUSH2 0x180 JUMPI DUP1 PUSH4 0x40C10F19 EQ PUSH2 0x195 JUMPI DUP1 PUSH4 0x70A08231 EQ PUSH2 0x1A8 JUMPI PUSH1 0x0 DUP1 REVERT JUMPDEST DUP1 PUSH4 0x6FDDE03 EQ PUSH2 0x110 JUMPI DUP1 PUSH4 0x92A5CCE EQ PUSH2 0x12E JUMPI DUP1 PUSH4 0x95EA7B3 EQ PUSH2 0x138 JUMPI DUP1 PUSH4 0x18160DDD EQ PUSH2 0x15B JUMPI JUMPDEST PUSH1 0x0 DUP1 REVERT JUMPDEST PUSH2 0x118 PUSH2 0x29C JUMP JUMPDEST PUSH1 0x40 MLOAD PUSH2 0x125 SWAP2 SWAP1 PUSH2 0xBF8 JUMP JUMPDEST PUSH1 0x40 MLOAD DUP1 SWAP2 SUB SWAP1 RETURN JUMPDEST PUSH2 0x136 PUSH2 0x32E JUMP JUMPDEST STOP JUMPDEST PUSH2 0x14B PUSH2 0x146 CALLDATASIZE PUSH1 0x4 PUSH2 0xC62 JUMP JUMPDEST PUSH2 0x364 JUMP JUMPDEST PUSH1 0x40 MLOAD SWAP1 ISZERO ISZERO DUP2 MSTORE PUSH1 0x20 ADD PUSH2 0x125 JUMP JUMPDEST PUSH1 0x3 SLOAD JUMPDEST PUSH1 0x40 MLOAD SWAP1 DUP2 MSTORE PUSH1 0x20 ADD PUSH2 0x125 JUMP JUMPDEST PUSH2 0x14B PUSH2 0x17B CALLDATASIZE PUSH1 0x4 PUSH2 0xC8C JUMP JUMPDEST PUSH2 0x37B JUMP JUMPDEST PUSH1 0x4 SLOAD PUSH1 0x40 MLOAD PUSH1 0xFF SWAP1 SWAP2 AND DUP2 MSTORE PUSH1 0x20 ADD PUSH2 0x125 JUMP JUMPDEST PUSH2 0x14B PUSH2 0x1A3 CALLDATASIZE PUSH1 0x4 PUSH2 0xC62 JUMP JUMPDEST PUSH2 0x3CD JUMP JUMPDEST PUSH2 0x15F PUSH2 0x1B6 CALLDATASIZE PUSH1 0x4 PUSH2 0xCC8 JUMP JUMPDEST PUSH1 0x1 PUSH1 0x1 PUSH1 0xA0 SHL SUB AND PUSH1 0x0 SWAP1 DUP2 MSTORE PUSH1 0x1 PUSH1 0x20 MSTORE PUSH1 0x40 SWAP1 KECCAK256 SLOAD SWAP1 JUMP JUMPDEST PUSH2 0x136 PUSH2 0x4C6 JUMP JUMPDEST PUSH1 0x0 SLOAD PUSH1 0x1 PUSH1 0x1 PUSH1 0xA0 SHL SUB AND JUMPDEST PUSH1 0x40 MLOAD PUSH1 0x1 PUSH1 0x1 PUSH1 0xA0 SHL SUB SWAP1 SWAP2 AND DUP2 MSTORE PUSH1 0x20 ADD PUSH2 0x125 JUMP JUMPDEST PUSH1 0x0 SLOAD PUSH1 0x1 PUSH1 0x1 PUSH1 0xA0 SHL SUB AND PUSH2 0x1E6 JUMP JUMPDEST PUSH2 0x118 PUSH2 0x53A JUMP JUMPDEST PUSH2 0x14B PUSH2 0x225 CALLDATASIZE PUSH1 0x4 PUSH2 0xC62 JUMP JUMPDEST PUSH2 0x549 JUMP JUMPDEST PUSH2 0x14B PUSH2 0x238 CALLDATASIZE PUSH1 0x4 PUSH2 0xC62 JUMP JUMPDEST PUSH2 0x642 JUMP JUMPDEST PUSH2 0x15F PUSH2 0x24B CALLDATASIZE PUSH1 0x4 PUSH2 0xCEA JUMP JUMPDEST PUSH1 0x1 PUSH1 0x1 PUSH1 0xA0 SHL SUB SWAP2 DUP3 AND PUSH1 0x0 SWAP1 DUP2 MSTORE PUSH1 0x2 PUSH1 0x20 SWAP1 DUP2 MSTORE PUSH1 0x40 DUP1 DUP4 KECCAK256 SWAP4 SWAP1 SWAP5 AND DUP3 MSTORE SWAP2 SWAP1 SWAP2 MSTORE KECCAK256 SLOAD SWAP1 JUMP JUMPDEST PUSH2 0x136 PUSH2 0x284 CALLDATASIZE PUSH1 0x4 PUSH2 0xCC8 JUMP JUMPDEST PUSH2 0x64F JUMP JUMPDEST PUSH2 0x136 PUSH2 0x297 CALLDATASIZE PUSH1 0x4 PUSH2 0xCC8 JUMP JUMPDEST PUSH2 0x69B JUMP JUMPDEST PUSH1 0x60 PUSH1 0x6 DUP1 SLOAD PUSH2 0x2AB SWAP1 PUSH2 0xD1D JUMP JUMPDEST DUP1 PUSH1 0x1F ADD PUSH1 0x20 DUP1 SWAP2 DIV MUL PUSH1 0x20 ADD PUSH1 0x40 MLOAD SWAP1 DUP2 ADD PUSH1 0x40 MSTORE DUP1 SWAP3 SWAP2 SWAP1 DUP2 DUP2 MSTORE PUSH1 0x20 ADD DUP3 DUP1 SLOAD PUSH2 0x2D7 SWAP1 PUSH2 0xD1D JUMP JUMPDEST DUP1 ISZERO PUSH2 0x324 JUMPI DUP1 PUSH1 0x1F LT PUSH2 0x2F9 JUMPI PUSH2 0x100 DUP1 DUP4 SLOAD DIV MUL DUP4 MSTORE SWAP2 PUSH1 0x20 ADD SWAP2 PUSH2 0x324 JUMP JUMPDEST DUP3 ADD SWAP2 SWAP1 PUSH1 0x0 MSTORE PUSH1 0x20 PUSH1 0x0 KECCAK256 SWAP1 JUMPDEST DUP2 SLOAD DUP2 MSTORE SWAP1 PUSH1 0x1 ADD SWAP1 PUSH1 0x20 ADD DUP1 DUP4 GT PUSH2 0x307 JUMPI DUP3 SWAP1 SUB PUSH1 0x1F AND DUP3 ADD SWAP2 JUMPDEST POP POP POP POP POP SWAP1 POP SWAP1 JUMP JUMPDEST PUSH1 0x0 SLOAD PUSH1 0x1 PUSH1 0x1 PUSH1 0xA0 SHL SUB AND CALLER EQ PUSH2 0x361 JUMPI PUSH1 0x40 MLOAD PUSH3 0x461BCD PUSH1 0xE5 SHL DUP2 MSTORE PUSH1 0x4 ADD PUSH2 0x358 SWAP1 PUSH2 0xD57 JUMP JUMPDEST PUSH1 0x40 MLOAD DUP1 SWAP2 SUB SWAP1 REVERT JUMPDEST CALLER SELFDESTRUCT JUMPDEST PUSH1 0x0 PUSH2 0x371 CALLER DUP5 DUP5 PUSH2 0x6D1 JUMP JUMPDEST POP PUSH1 0x1 JUMPDEST SWAP3 SWAP2 POP POP JUMP JUMPDEST PUSH1 0x0 PUSH2 0x388 DUP5 DUP5 DUP5 PUSH2 0x7F6 JUMP JUMPDEST PUSH1 0x1 PUSH1 0x1 PUSH1 0xA0 SHL SUB DUP5 AND PUSH1 0x0 SWAP1 DUP2 MSTORE PUSH1 0x2 PUSH1 0x20 SWAP1 DUP2 MSTORE PUSH1 0x40 DUP1 DUP4 KECCAK256 CALLER DUP1 DUP6 MSTORE SWAP3 MSTORE SWAP1 SWAP2 KECCAK256 SLOAD PUSH2 0x3C3 SWAP2 DUP7 SWAP2 PUSH2 0x3BE SWAP1 DUP7 SWAP1 PUSH2 0xDA2 JUMP JUMPDEST PUSH2 0x6D1 JUMP JUMPDEST POP PUSH1 0x1 SWAP4 SWAP3 POP POP POP JUMP JUMPDEST PUSH1 0x7 SLOAD PUSH1 0x0 SWAP1 PUSH1 0x1 PUSH1 0x1 PUSH1 0xA0 SHL SUB AND CALLER PUSH1 0x1 PUSH1 0x1 PUSH1 0xA0 SHL SUB AND EQ PUSH2 0x433 JUMPI PUSH1 0x40 MLOAD PUSH3 0x461BCD PUSH1 0xE5 SHL DUP2 MSTORE PUSH1 0x20 PUSH1 0x4 DUP3 ADD MSTORE PUSH1 0x1B PUSH1 0x24 DUP3 ADD MSTORE PUSH32 0x63616C6C6572206973206E6F7420746865206465706F7369746F720000000000 PUSH1 0x44 DUP3 ADD MSTORE PUSH1 0x64 ADD PUSH2 0x358 JUMP JUMPDEST PUSH1 0x1 PUSH1 0x1 PUSH1 0xA0 SHL SUB DUP4 AND PUSH2 0x47B JUMPI PUSH1 0x40 MLOAD PUSH3 0x461BCD PUSH1 0xE5 SHL DUP2 MSTORE PUSH1 0x20 PUSH1 0x4 DUP3 ADD MSTORE PUSH1 0xF PUSH1 0x24 DUP3 ADD MSTORE PUSH15 0x1A5B9D985B1A59081858D8DBDD5B9D PUSH1 0x8A SHL PUSH1 0x44 DUP3 ADD MSTORE PUSH1 0x64 ADD PUSH2 0x358 JUMP JUMPDEST PUSH1 0x0 DUP3 GT PUSH2 0x4BC JUMPI PUSH1 0x40 MLOAD PUSH3 0x461BCD PUSH1 0xE5 SHL DUP2 MSTORE PUSH1 0x20 PUSH1 0x4 DUP3 ADD MSTORE PUSH1 0xE PUSH1 0x24 DUP3 ADD MSTORE PUSH14 0x1A5B9D985B1A5908185B5BDD5B9D PUSH1 0x92 SHL PUSH1 0x44 DUP3 ADD MSTORE PUSH1 0x64 ADD PUSH2 0x358 JUMP JUMPDEST PUSH2 0x371 DUP4 DUP4 PUSH2 0x964 JUMP JUMPDEST PUSH1 0x0 SLOAD PUSH1 0x1 PUSH1 0x1 PUSH1 0xA0 SHL SUB AND CALLER EQ PUSH2 0x4F0 JUMPI PUSH1 0x40 MLOAD PUSH3 0x461BCD PUSH1 0xE5 SHL DUP2 MSTORE PUSH1 0x4 ADD PUSH2 0x358 SWAP1 PUSH2 0xD57 JUMP JUMPDEST PUSH1 0x0 DUP1 SLOAD PUSH1 0x40 MLOAD PUSH1 0x1 PUSH1 0x1 PUSH1 0xA0 SHL SUB SWAP1 SWAP2 AND SWAP1 PUSH32 0x8BE0079C531659141344CD1FD0A4F28419497F9722A3DAAFE3B4186F6B6457E0 SWAP1 DUP4 SWAP1 LOG3 PUSH1 0x0 DUP1 SLOAD PUSH1 0x1 PUSH1 0x1 PUSH1 0xA0 SHL SUB NOT AND SWAP1 SSTORE JUMP JUMPDEST PUSH1 0x60 PUSH1 0x5 DUP1 SLOAD PUSH2 0x2AB SWAP1 PUSH2 0xD1D JUMP JUMPDEST PUSH1 0x7 SLOAD PUSH1 0x0 SWAP1 PUSH1 0x1 PUSH1 0x1 PUSH1 0xA0 SHL SUB AND CALLER PUSH1 0x1 PUSH1 0x1 PUSH1 0xA0 SHL SUB AND EQ PUSH2 0x5AF JUMPI PUSH1 0x40 MLOAD PUSH3 0x461BCD PUSH1 0xE5 SHL DUP2 MSTORE PUSH1 0x20 PUSH1 0x4 DUP3 ADD MSTORE PUSH1 0x1B PUSH1 0x24 DUP3 ADD MSTORE PUSH32 0x63616C6C6572206973206E6F7420746865206465706F7369746F720000000000 PUSH1 0x44 DUP3 ADD MSTORE PUSH1 0x64 ADD PUSH2 0x358 JUMP JUMPDEST PUSH1 0x1 PUSH1 0x1 PUSH1 0xA0 SHL SUB DUP4 AND PUSH2 0x5F7 JUMPI PUSH1 0x40 MLOAD PUSH3 0x461BCD PUSH1 0xE5 SHL DUP2 MSTORE PUSH1 0x20 PUSH1 0x4 DUP3 ADD MSTORE PUSH1 0xF PUSH1 0x24 DUP3 ADD MSTORE PUSH15 0x1A5B9D985B1A59081858D8DBDD5B9D PUSH1 0x8A SHL PUSH1 0x44 DUP3 ADD MSTORE PUSH1 0x64 ADD PUSH2 0x358 JUMP JUMPDEST PUSH1 0x0 DUP3 GT PUSH2 0x638 JUMPI PUSH1 0x40 MLOAD PUSH3 0x461BCD PUSH1 0xE5 SHL DUP2 MSTORE PUSH1 0x20 PUSH1 0x4 DUP3 ADD MSTORE PUSH1 0xE PUSH1 0x24 DUP3 ADD MSTORE PUSH14 0x1A5B9D985B1A5908185B5BDD5B9D PUSH1 0x92 SHL PUSH1 0x44 DUP3 ADD MSTORE PUSH1 0x64 ADD PUSH2 0x358 JUMP JUMPDEST PUSH2 0x371 DUP4 DUP4 PUSH2 0xA4C JUMP JUMPDEST PUSH1 0x0 PUSH2 0x371 CALLER DUP5 DUP5 PUSH2 0x7F6 JUMP JUMPDEST PUSH1 0x0 SLOAD PUSH1 0x1 PUSH1 0x1 PUSH1 0xA0 SHL SUB AND CALLER EQ PUSH2 0x679 JUMPI PUSH1 0x40 MLOAD PUSH3 0x461BCD PUSH1 0xE5 SHL DUP2 MSTORE PUSH1 0x4 ADD PUSH2 0x358 SWAP1 PUSH2 0xD57 JUMP JUMPDEST PUSH1 0x7 DUP1 SLOAD PUSH1 0x1 PUSH1 0x1 PUSH1 0xA0 SHL SUB NOT AND PUSH1 0x1 PUSH1 0x1 PUSH1 0xA0 SHL SUB SWAP3 SWAP1 SWAP3 AND SWAP2 SWAP1 SWAP2 OR SWAP1 SSTORE JUMP JUMPDEST PUSH1 0x0 SLOAD PUSH1 0x1 PUSH1 0x1 PUSH1 0xA0 SHL SUB AND CALLER EQ PUSH2 0x6C5 JUMPI PUSH1 0x40 MLOAD PUSH3 0x461BCD PUSH1 0xE5 SHL DUP2 MSTORE PUSH1 0x4 ADD PUSH2 0x358 SWAP1 PUSH2 0xD57 JUMP JUMPDEST PUSH2 0x6CE DUP2 PUSH2 0xB38 JUMP JUMPDEST POP JUMP JUMPDEST PUSH1 0x1 PUSH1 0x1 PUSH1 0xA0 SHL SUB DUP4 AND PUSH2 0x733 JUMPI PUSH1 0x40 MLOAD PUSH3 0x461BCD PUSH1 0xE5 SHL DUP2 MSTORE PUSH1 0x20 PUSH1 0x4 DUP3 ADD MSTORE PUSH1 0x24 DUP1 DUP3 ADD MSTORE PUSH32 0x5A524332303A20617070726F76652066726F6D20746865207A65726F20616464 PUSH1 0x44 DUP3 ADD MSTORE PUSH4 0x72657373 PUSH1 0xE0 SHL PUSH1 0x64 DUP3 ADD MSTORE PUSH1 0x84 ADD PUSH2 0x358 JUMP JUMPDEST PUSH1 0x1 PUSH1 0x1 PUSH1 0xA0 SHL SUB DUP3 AND PUSH2 0x794 JUMPI PUSH1 0x40 MLOAD PUSH3 0x461BCD PUSH1 0xE5 SHL DUP2 MSTORE PUSH1 0x20 PUSH1 0x4 DUP3 ADD MSTORE PUSH1 0x22 PUSH1 0x24 DUP3 ADD MSTORE PUSH32 0x5A524332303A20617070726F766520746F20746865207A65726F206164647265 PUSH1 0x44 DUP3 ADD MSTORE PUSH2 0x7373 PUSH1 0xF0 SHL PUSH1 0x64 DUP3 ADD MSTORE PUSH1 0x84 ADD PUSH2 0x358 JUMP JUMPDEST PUSH1 0x1 PUSH1 0x1 PUSH1 0xA0 SHL SUB DUP4 DUP2 AND PUSH1 0x0 DUP2 DUP2 MSTORE PUSH1 0x2 PUSH1 0x20 SWAP1 DUP2 MSTORE PUSH1 0x40 DUP1 DUP4 KECCAK256 SWAP5 DUP8 AND DUP1 DUP5 MSTORE SWAP5 DUP3 MSTORE SWAP2 DUP3 SWAP1 KECCAK256 DUP6 SWAP1 SSTORE SWAP1 MLOAD DUP5 DUP2 MSTORE PUSH32 0x8C5BE1E5EBEC7D5BD14F71427D1E84F3DD0314C0F7B2291E5B200AC8C7C3B925 SWAP2 ADD JUMPDEST PUSH1 0x40 MLOAD DUP1 SWAP2 SUB SWAP1 LOG3 POP POP POP JUMP JUMPDEST PUSH1 0x1 PUSH1 0x1 PUSH1 0xA0 SHL SUB DUP4 AND PUSH2 0x85A JUMPI PUSH1 0x40 MLOAD PUSH3 0x461BCD PUSH1 0xE5 SHL DUP2 MSTORE PUSH1 0x20 PUSH1 0x4 DUP3 ADD MSTORE PUSH1 0x25 PUSH1 0x24 DUP3 ADD MSTORE PUSH32 0x5A524332303A207472616E736665722066726F6D20746865207A65726F206164 PUSH1 0x44 DUP3 ADD MSTORE PUSH5 0x6472657373 PUSH1 0xD8 SHL PUSH1 0x64 DUP3 ADD MSTORE PUSH1 0x84 ADD PUSH2 0x358 JUMP JUMPDEST PUSH1 0x1 PUSH1 0x1 PUSH1 0xA0 SHL SUB DUP3 AND PUSH2 0x8BC JUMPI PUSH1 0x40 MLOAD PUSH3 0x461BCD PUSH1 0xE5 SHL DUP2 MSTORE PUSH1 0x20 PUSH1 0x4 DUP3 ADD MSTORE PUSH1 0x23 PUSH1 0x24 DUP3 ADD MSTORE PUSH32 0x5A524332303A207472616E7366657220746F20746865207A65726F2061646472 PUSH1 0x44 DUP3 ADD MSTORE PUSH3 0x657373 PUSH1 0xE8 SHL PUSH1 0x64 DUP3 ADD MSTORE PUSH1 0x84 ADD PUSH2 0x358 JUMP JUMPDEST PUSH1 0x1 PUSH1 0x1 PUSH1 0xA0 SHL SUB DUP4 AND PUSH1 0x0 SWAP1 DUP2 MSTORE PUSH1 0x1 PUSH1 0x20 MSTORE PUSH1 0x40 SWAP1 KECCAK256 SLOAD PUSH2 0x8E0 SWAP1 DUP3 SWAP1 PUSH2 0xDA2 JUMP JUMPDEST PUSH1 0x1 PUSH1 0x1 PUSH1 0xA0 SHL SUB DUP1 DUP6 AND PUSH1 0x0 SWAP1 DUP2 MSTORE PUSH1 0x1 PUSH1 0x20 MSTORE PUSH1 0x40 DUP1 DUP3 KECCAK256 SWAP4 SWAP1 SWAP4 SSTORE SWAP1 DUP5 AND DUP2 MSTORE KECCAK256 SLOAD PUSH2 0x910 SWAP1 DUP3 SWAP1 PUSH2 0xDB5 JUMP JUMPDEST PUSH1 0x1 PUSH1 0x1 PUSH1 0xA0 SHL SUB DUP1 DUP5 AND PUSH1 0x0 DUP2 DUP2 MSTORE PUSH1 0x1 PUSH1 0x20 MSTORE PUSH1 0x40 SWAP1 DUP2 SWAP1 KECCAK256 SWAP4 SWAP1 SWAP4 SSTORE SWAP2 MLOAD SWAP1 DUP6 AND SWAP1 PUSH32 0xDDF252AD1BE2C89B69C2B068FC378DAA952BA7F163C4A11628F55A4DF523B3EF SWAP1 PUSH2 0x7E9 SWAP1 DUP6 DUP2 MSTORE PUSH1 0x20 ADD SWAP1 JUMP JUMPDEST PUSH1 0x1 PUSH1 0x1 PUSH1 0xA0 SHL SUB DUP3 AND PUSH2 0x9BA JUMPI PUSH1 0x40 MLOAD PUSH3 0x461BCD PUSH1 0xE5 SHL DUP2 MSTORE PUSH1 0x20 PUSH1 0x4 DUP3 ADD MSTORE PUSH1 0x1F PUSH1 0x24 DUP3 ADD MSTORE PUSH32 0x5A524332303A206D696E7420746F20746865207A65726F206164647265737300 PUSH1 0x44 DUP3 ADD MSTORE PUSH1 0x64 ADD PUSH2 0x358 JUMP JUMPDEST DUP1 PUSH1 0x3 SLOAD PUSH2 0x9C8 SWAP2 SWAP1 PUSH2 0xDB5 JUMP JUMPDEST PUSH1 0x3 SSTORE PUSH1 0x1 PUSH1 0x1 PUSH1 0xA0 SHL SUB DUP3 AND PUSH1 0x0 SWAP1 DUP2 MSTORE PUSH1 0x1 PUSH1 0x20 MSTORE PUSH1 0x40 SWAP1 KECCAK256 SLOAD PUSH2 0x9EF SWAP1 DUP3 SWAP1 PUSH2 0xDB5 JUMP JUMPDEST PUSH1 0x1 PUSH1 0x1 PUSH1 0xA0 SHL SUB DUP4 AND PUSH1 0x0 DUP2 DUP2 MSTORE PUSH1 0x1 PUSH1 0x20 MSTORE PUSH1 0x40 DUP1 DUP3 KECCAK256 SWAP4 SWAP1 SWAP4 SSTORE SWAP2 MLOAD SWAP1 SWAP2 SWAP1 PUSH32 0xDDF252AD1BE2C89B69C2B068FC378DAA952BA7F163C4A11628F55A4DF523B3EF SWAP1 PUSH2 0xA40 SWAP1 DUP6 DUP2 MSTORE PUSH1 0x20 ADD SWAP1 JUMP JUMPDEST PUSH1 0x40 MLOAD DUP1 SWAP2 SUB SWAP1 LOG3 POP POP JUMP JUMPDEST PUSH1 0x1 PUSH1 0x1 PUSH1 0xA0 SHL SUB DUP3 AND PUSH2 0xAAC JUMPI PUSH1 0x40 MLOAD PUSH3 0x461BCD PUSH1 0xE5 SHL DUP2 MSTORE PUSH1 0x20 PUSH1 0x4 DUP3 ADD MSTORE PUSH1 0x21 PUSH1 0x24 DUP3 ADD MSTORE PUSH32 0x5A524332303A206275726E2066726F6D20746865207A65726F20616464726573 PUSH1 0x44 DUP3 ADD MSTORE PUSH1 0x73 PUSH1 0xF8 SHL PUSH1 0x64 DUP3 ADD MSTORE PUSH1 0x84 ADD PUSH2 0x358 JUMP JUMPDEST PUSH1 0x1 PUSH1 0x1 PUSH1 0xA0 SHL SUB DUP3 AND PUSH1 0x0 SWAP1 DUP2 MSTORE PUSH1 0x1 PUSH1 0x20 MSTORE PUSH1 0x40 SWAP1 KECCAK256 SLOAD PUSH2 0xAD0 SWAP1 DUP3 SWAP1 PUSH2 0xDA2 JUMP JUMPDEST PUSH1 0x1 PUSH1 0x1 PUSH1 0xA0 SHL SUB DUP4 AND PUSH1 0x0 SWAP1 DUP2 MSTORE PUSH1 0x1 PUSH1 0x20 MSTORE PUSH1 0x40 SWAP1 KECCAK256 SSTORE PUSH1 0x3 SLOAD PUSH2 0xAF7 SWAP1 DUP3 SWAP1 PUSH2 0xDA2 JUMP JUMPDEST PUSH1 0x3 SSTORE PUSH1 0x40 MLOAD DUP2 DUP2 MSTORE PUSH1 0x0 SWAP1 PUSH1 0x1 PUSH1 0x1 PUSH1 0xA0 SHL SUB DUP5 AND SWAP1 PUSH32 0xDDF252AD1BE2C89B69C2B068FC378DAA952BA7F163C4A11628F55A4DF523B3EF SWAP1 PUSH1 0x20 ADD PUSH2 0xA40 JUMP JUMPDEST PUSH1 0x1 PUSH1 0x1 PUSH1 0xA0 SHL SUB DUP2 AND PUSH2 0xB9D JUMPI PUSH1 0x40 MLOAD PUSH3 0x461BCD PUSH1 0xE5 SHL DUP2 MSTORE PUSH1 0x20 PUSH1 0x4 DUP3 ADD MSTORE PUSH1 0x26 PUSH1 0x24 DUP3 ADD MSTORE PUSH32 0x4F776E61626C653A206E6577206F776E657220697320746865207A65726F2061 PUSH1 0x44 DUP3 ADD MSTORE PUSH6 0x646472657373 PUSH1 0xD0 SHL PUSH1 0x64 DUP3 ADD MSTORE PUSH1 0x84 ADD PUSH2 0x358 JUMP JUMPDEST PUSH1 0x0 DUP1 SLOAD PUSH1 0x40 MLOAD PUSH1 0x1 PUSH1 0x1 PUSH1 0xA0 SHL SUB DUP1 DUP6 AND SWAP4 SWAP3 AND SWAP2 PUSH32 0x8BE0079C531659141344CD1FD0A4F28419497F9722A3DAAFE3B4186F6B6457E0 SWAP2 LOG3 PUSH1 0x0 DUP1 SLOAD PUSH1 0x1 PUSH1 0x1 PUSH1 0xA0 SHL SUB NOT AND PUSH1 0x1 PUSH1 0x1 PUSH1 0xA0 SHL SUB SWAP3 SWAP1 SWAP3 AND SWAP2 SWAP1 SWAP2 OR SWAP1 SSTORE JUMP JUMPDEST PUSH1 0x0 PUSH1 0x20 DUP1 DUP4 MSTORE DUP4 MLOAD DUP1 DUP3 DUP6 ADD MSTORE PUSH1 0x0 JUMPDEST DUP2 DUP2 LT ISZERO PUSH2 0xC25 JUMPI DUP6 DUP2 ADD DUP4 ADD MLOAD DUP6 DUP3 ADD PUSH1 0x40 ADD MSTORE DUP3 ADD PUSH2 0xC09 JUMP JUMPDEST POP PUSH1 0x0 PUSH1 0x40 DUP3 DUP7 ADD ADD MSTORE PUSH1 0x40 PUSH1 0x1F NOT PUSH1 0x1F DUP4 ADD AND DUP6 ADD ADD SWAP3 POP POP POP SWAP3 SWAP2 POP POP JUMP JUMPDEST DUP1 CALLDATALOAD PUSH1 0x1 PUSH1 0x1 PUSH1 0xA0 SHL SUB DUP2 AND DUP2 EQ PUSH2 0xC5D JUMPI PUSH1 0x0 DUP1 REVERT JUMPDEST SWAP2 SWAP1 POP JUMP JUMPDEST PUSH1 0x0 DUP1 PUSH1 0x40 DUP4 DUP6 SUB SLT ISZERO PUSH2 0xC75 JUMPI PUSH1 0x0 DUP1 REVERT JUMPDEST PUSH2 0xC7E DUP4 PUSH2 0xC46 JUMP JUMPDEST SWAP5 PUSH1 0x20 SWAP4 SWAP1 SWAP4 ADD CALLDATALOAD SWAP4 POP POP POP JUMP JUMPDEST PUSH1 0x0 DUP1 PUSH1 0x0 PUSH1 0x60 DUP5 DUP7 SUB SLT ISZERO PUSH2 0xCA1 JUMPI PUSH1 0x0 DUP1 REVERT JUMPDEST PUSH2 0xCAA DUP5 PUSH2 0xC46 JUMP JUMPDEST SWAP3 POP PUSH2 0xCB8 PUSH1 0x20 DUP6 ADD PUSH2 0xC46 JUMP JUMPDEST SWAP2 POP PUSH1 0x40 DUP5 ADD CALLDATALOAD SWAP1 POP SWAP3 POP SWAP3 POP SWAP3 JUMP JUMPDEST PUSH1 0x0 PUSH1 0x20 DUP3 DUP5 SUB SLT ISZERO PUSH2 0xCDA JUMPI PUSH1 0x0 DUP1 REVERT JUMPDEST PUSH2 0xCE3 DUP3 PUSH2 0xC46 JUMP JUMPDEST SWAP4 SWAP3 POP POP POP JUMP JUMPDEST PUSH1 0x0 DUP1 PUSH1 0x40 DUP4 DUP6 SUB SLT ISZERO PUSH2 0xCFD JUMPI PUSH1 0x0 DUP1 REVERT JUMPDEST PUSH2 0xD06 DUP4 PUSH2 0xC46 JUMP JUMPDEST SWAP2 POP PUSH2 0xD14 PUSH1 0x20 DUP5 ADD PUSH2 0xC46 JUMP JUMPDEST SWAP1 POP SWAP3 POP SWAP3 SWAP1 POP JUMP JUMPDEST PUSH1 0x1 DUP2 DUP2 SHR SWAP1 DUP3 AND DUP1 PUSH2 0xD31 JUMPI PUSH1 0x7F DUP3 AND SWAP2 POP JUMPDEST PUSH1 0x20 DUP3 LT DUP2 SUB PUSH2 0xD51 JUMPI PUSH4 0x4E487B71 PUSH1 0xE0 SHL PUSH1 0x0 MSTORE PUSH1 0x22 PUSH1 0x4 MSTORE PUSH1 0x24 PUSH1 0x0 REVERT JUMPDEST POP SWAP2 SWAP1 POP JUMP JUMPDEST PUSH1 0x20 DUP1 DUP3 MSTORE DUP2 DUP2 ADD MSTORE PUSH32 0x4F776E61626C653A2063616C6C6572206973206E6F7420746865206F776E6572 PUSH1 0x40 DUP3 ADD MSTORE PUSH1 0x60 ADD SWAP1 JUMP JUMPDEST PUSH4 0x4E487B71 PUSH1 0xE0 SHL PUSH1 0x0 MSTORE PUSH1 0x11 PUSH1 0x4 MSTORE PUSH1 0x24 PUSH1 0x0 REVERT JUMPDEST DUP2 DUP2 SUB DUP2 DUP2 GT ISZERO PUSH2 0x375 JUMPI PUSH2 0x375 PUSH2 0xD8C JUMP JUMPDEST DUP1 DUP3 ADD DUP1 DUP3 GT ISZERO PUSH2 0x375 JUMPI PUSH2 0x375 PUSH2 0xD8C JUMP INVALID LOG2 PUSH5 0x6970667358 0x22 SLT KECCAK256 SWAP10 0xDB PUSH29 0x272CD31B919DFBD18552AE91CEE2FCB8FE1D94A578380966E2C2538E70 PUSH5 0x736F6C6343 STOP ADDMOD GT STOP CALLER "
				},
				"gasEstimates": {
					"creation": {
						"codeDepositCost": "716400",
						"executionCost": "infinite",
						"totalCost": "infinite"
					},
					"external": {
						"allowance(address,address)": "infinite",
						"approve(address,uint256)": "24666",
						"balanceOf(address)": "2626",
						"burn(address,uint256)": "infinite",
						"decimals()": "2334",
						"destroyContract()": "29923",
						"getOwner()": "2365",
						"mint(address,uint256)": "infinite",
						"name()": "infinite",
						"owner()": "2398",
						"renounceOwnership()": "30188",
						"setDepositor(address)": "26799",
						"symbol()": "infinite",
						"totalSupply()": "2371",
						"transfer(address,uint256)": "infinite",
						"transferFrom(address,address,uint256)": "infinite",
						"transferOwnership(address)": "30539"
					},
					"internal": {
						"_approve(address,address,uint256)": "infinite",
						"_burn(address,uint256)": "infinite",
						"_mint(address,uint256)": "infinite",
						"_transfer(address,address,uint256)": "infinite"
					}
				},
				"methodIdentifiers": {
					"allowance(address,address)": "dd62ed3e",
					"approve(address,uint256)": "095ea7b3",
					"balanceOf(address)": "70a08231",
					"burn(address,uint256)": "9dc29fac",
					"decimals()": "313ce567",
					"destroyContract()": "092a5cce",
					"getOwner()": "893d20e8",
					"mint(address,uint256)": "40c10f19",
					"name()": "06fdde03",
					"owner()": "8da5cb5b",
					"renounceOwnership()": "715018a6",
					"setDepositor(address)": "f2c098b7",
					"symbol()": "95d89b41",
					"totalSupply()": "18160ddd",
					"transfer(address,uint256)": "a9059cbb",
					"transferFrom(address,address,uint256)": "23b872dd",
					"transferOwnership(address)": "f2fde38b"
				}
			},
			"storageLayout": {
				"storage": [
					{
						"astId": 133,
						"contract": "pegged-token.sol:USDT",
						"label": "_owner",
						"offset": 0,
						"slot": "0",
						"type": "t_address"
					},
					{
						"astId": 255,
						"contract": "pegged-token.sol:USDT",
						"label": "_balances",
						"offset": 0,
						"slot": "1",
						"type": "t_mapping(t_address,t_uint256)"
					},
					{
						"astId": 261,
						"contract": "pegged-token.sol:USDT",
						"label": "_allowances",
						"offset": 0,
						"slot": "2",
						"type": "t_mapping(t_address,t_mapping(t_address,t_uint256))"
					},
					{
						"astId": 263,
						"contract": "pegged-token.sol:USDT",
						"label": "_totalSupply",
						"offset": 0,
						"slot": "3",
						"type": "t_uint256"
					},
					{
						"astId": 265,
						"contract": "pegged-token.sol:USDT",
						"label": "_decimals",
						"offset": 0,
						"slot": "4",
						"type": "t_uint8"
					},
					{
						"astId": 267,
						"contract": "pegged-token.sol:USDT",
						"label": "_symbol",
						"offset": 0,
						"slot": "5",
						"type": "t_string_storage"
					},
					{
						"astId": 269,
						"contract": "pegged-token.sol:USDT",
						"label": "_name",
						"offset": 0,
						"slot": "6",
						"type": "t_string_storage"
					},
					{
						"astId": 271,
						"contract": "pegged-token.sol:USDT",
						"label": "_depositor",
						"offset": 0,
						"slot": "7",
						"type": "t_address"
					}
				],
				"types": {
					"t_address": {
						"encoding": "inplace",
						"label": "address",
						"numberOfBytes": "20"
					},
					"t_mapping(t_address,t_mapping(t_address,t_uint256))": {
						"encoding": "mapping",
						"key": "t_address",
						"label": "mapping(address => mapping(address => uint256))",
						"numberOfBytes": "32",
						"value": "t_mapping(t_address,t_uint256)"
					},
					"t_mapping(t_address,t_uint256)": {
						"encoding": "mapping",
						"key": "t_address",
						"label": "mapping(address => uint256)",
						"numberOfBytes": "32",
						"value": "t_uint256"
					},
					"t_string_storage": {
						"encoding": "bytes",
						"label": "string",
						"numberOfBytes": "32"
					},
					"t_uint256": {
						"encoding": "inplace",
						"label": "uint256",
						"numberOfBytes": "32"
					},
					"t_uint8": {
						"encoding": "inplace",
						"label": "uint8",
						"numberOfBytes": "1"
					}
				}
			},
			"userdoc": {
				"kind": "user",
				"methods": {},
				"version": 1
			}
		}
	}
}